{
	"data": {
		"bytecode": {
			"linkReferences": {},
			"object": "60806040526007805460ff191690556002600d553480156200002057600080fd5b5060405162005d0938038062005d0983398181016040526101208110156200004757600080fd5b815160208301516040808501516060860151608087015160a088015160c089018051955197999698949793969295919483019291846401000000008211156200008f57600080fd5b908301906020820185811115620000a557600080fd5b8251640100000000811182820188101715620000c057600080fd5b82525081516020918201929091019080838360005b83811015620000ef578181015183820152602001620000d5565b50505050905090810190601f1680156200011d5780820380516001836020036101000a031916815260200191505b50604052602001805160405193929190846401000000008211156200014157600080fd5b9083019060208201858111156200015757600080fd5b82516401000000008111828201881017156200017257600080fd5b82525081516020918201929091019080838360005b83811015620001a157818101518382015260200162000187565b50505050905090810190601f168015620001cf5780820380516001836020036101000a031916815260200191505b5060405260200151915060009050620001e7620002ce565b600080546001600160a01b0319166001600160a01b0383169081178255604051929350917f8be0079c531659141344cd1fd0a4f28419497f9722a3daafe3b4186f6b6457e0908290a35060078054610100600160a81b0319166101006001600160a01b038c81169190910291909117909155600880546001600160a01b03199081168b841617909155600b805482168a8416179055600a80548216878416179055600980548216898416179055600c8054909116918716919091179055620002bf8383836000620002d2602090811b62004d2c17901c565b50505050505050505062000474565b3390565b620002dc620002ce565b6000546001600160a01b039081169116146200033f576040805162461bcd60e51b815260206004820181905260248201527f4f776e61626c653a2063616c6c6572206973206e6f7420746865206f776e6572604482015290519081900360640190fd5b60075460ff161562000387576040805162461bcd60e51b815260206004820152600c60248201526b1253959053125117d253925560a21b604482015290519081900360640190fd5b83516200039c906006906020870190620003d8565b508251620003b2906005906020860190620003d8565b506004805460ff90931660ff199384161790556003556007805490911660011790555050565b828054600181600116156101000203166002900490600052602060002090601f016020900481019282601f106200041b57805160ff19168380011785556200044b565b828001600101855582156200044b579182015b828111156200044b5782518255916020019190600101906200042e565b50620004599291506200045d565b5090565b5b808211156200045957600081556001016200045e565b61588580620004846000396000f3fe608060405234801561001057600080fd5b506004361061027f5760003560e01c806384900b041161015c578063d0e9de6c116100ce578063ead915e311610087578063ead915e314610765578063ec0229181461076d578063ee39e7a014610775578063f2fde38b1461077d578063fc0c546a146107a3578063ffea733e146107ab5761027f565b8063d0e9de6c146106ac578063d1322962146106d5578063da6ca9c9146106dd578063dbcfbf2f146106e5578063dd62ed3e1461070e578063e50a38d71461073c5761027f565b80639eb0e965116101205780639eb0e965146105fe578063a457c2d714610606578063a58d3d3114610632578063a9059cbb1461063a578063b7c3ba4514610666578063c6e842fc1461068f5761027f565b806384900b04146105b5578063893d20e8146105bd5780638da5cb5b146105c557806395d89b41146105cd57806397bb21c6146105d55761027f565b806342a6ae57116101f55780636662d177116101b95780636662d177146104dc57806370a0823114610512578063711f614214610538578063715018a61461055557806373dd25a31461055d57806376125deb146105865761027f565b806342a6ae571461045c57806342eba2ce146104645780635001f3b51461048857806360b1765c14610490578063635f95ff146104bf5761027f565b8063158ef93e11610247578063158ef93e146103a357806318160ddd146103ab57806323b872dd146103b35780632916bc10146103e9578063313ce5671461041257806339509351146104305761027f565b806303bf04c11461028457806306fdde03146102af578063095ea7b31461032c57806311fbded31461036c5780631279732c1461039b575b600080fd5b6102ad6004803603606081101561029a57600080fd5b50803590602081013590604001356108e0565b005b6102b7610f7d565b6040805160208082528351818301528351919283929083019185019080838360005b838110156102f15781810151838201526020016102d9565b50505050905090810190601f16801561031e5780820380516001836020036101000a031916815260200191505b509250505060405180910390f35b6103586004803603604081101561034257600080fd5b506001600160a01b038135169060200135611013565b604080519115158252519081900360200190f35b6103896004803603602081101561038257600080fd5b5035611031565b60408051918252519081900360200190f35b6102ad611083565b6103586113a5565b6103896113ae565b610358600480360360608110156103c957600080fd5b506001600160a01b038135811691602081013590911690604001356113b4565b610389600480360360608110156103ff57600080fd5b508035906020810135906040013561143b565b61041a6114bf565b6040805160ff9092168252519081900360200190f35b6103586004803603604081101561044657600080fd5b506001600160a01b0381351690602001356114c8565b6102ad611516565b61046c61188f565b604080516001600160a01b039092168252519081900360200190f35b61046c61189e565b610389600480360360808110156104a657600080fd5b50803590602081013590604081013590606001356118b2565b610389600480360360208110156104d557600080fd5b50356120f9565b6104f9600480360360208110156104f257600080fd5b5035612140565b6040805192835260208301919091528051918290030190f35b6103896004803603602081101561052857600080fd5b50356001600160a01b03166121a6565b6104f96004803603602081101561054e57600080fd5b50356121c1565b6102ad61221d565b6102ad6004803603606081101561057357600080fd5b50803590602081013590604001356122bf565b6104f96004803603608081101561059c57600080fd5b5080359060208101359060408101359060600135612960565b61046c613134565b61046c613143565b61046c613152565b6102b7613161565b610389600480360360608110156105eb57600080fd5b50803590602081013590604001356131c2565b61046c613240565b6103586004803603604081101561061c57600080fd5b506001600160a01b03813516906020013561324f565b6102ad6132b7565b6103586004803603604081101561065057600080fd5b506001600160a01b038135169060200135613846565b6103896004803603606081101561067c57600080fd5b508035906020810135906040013561385a565b6104f9600480360360208110156106a557600080fd5b50356138d8565b6102ad600480360360608110156106c257600080fd5b5080359060208101359060400135613935565b610389613fe0565b61046c613fe6565b610389600480360360608110156106fb57600080fd5b5080359060208101359060400135613ff5565b6103896004803603604081101561072457600080fd5b506001600160a01b0381358116916020013516614079565b6102ad6004803603606081101561075257600080fd5b50803590602081013590604001356140a4565b6102ad614746565b6104f9614ae6565b610389614c94565b6102ad6004803603602081101561079357600080fd5b50356001600160a01b0316614cb9565b61046c614d1d565b6102ad600480360360808110156107c157600080fd5b8101906020810181356401000000008111156107dc57600080fd5b8201836020820111156107ee57600080fd5b8035906020019184600183028401116401000000008311171561081057600080fd5b91908080601f016020809104026020016040519081016040528093929190818152602001838380828437600092019190915250929594936020810193503591505064010000000081111561086357600080fd5b82018360208201111561087557600080fd5b8035906020019184600183028401116401000000008311171561089757600080fd5b91908080601f0160208091040260200160405190810160405280939291908181526020018383808284376000920191909152509295505060ff8335169350505060200135614d2c565b3332146109a857600a5460408051636c9b2a3f60e11b815233600482015290516001600160a01b039092169163d936547e91602480820192602092909190829003018186803b15801561093257600080fd5b505afa158015610946573d6000803e3d6000fd5b505050506040513d602081101561095c57600080fd5b505115156001146109a8576040805162461bcd60e51b81526020600482015260116024820152701253959053125117d5d2125511531254d5607a1b604482015290519081900360640190fd5b428110156109f0576040805162461bcd60e51b815260206004820152601060248201526f494e56414c49445f444541444c494e4560801b604482015290519081900360640190fd5b60008211610a3f576040805162461bcd60e51b81526020600482015260176024820152761253959053125117d3525397d09054d157d3d555141555604a1b604482015290519081900360640190fd5b60008311610a8a576040805162461bcd60e51b81526020600482015260136024820152721253959053125117d513d2d15397d253941555606a1b604482015290519081900360640190fd5b600854604080516370a0823160e01b815233600482015290516001600160a01b03909216916370a0823191602480820192602092909190829003018186803b158015610ad557600080fd5b505afa158015610ae9573d6000803e3d6000fd5b505050506040513d6020811015610aff57600080fd5b5051831115610b55576040805162461bcd60e51b815260206004820152601f60248201527f544f4b454e5f494e5055545f4849474845525f555345525f42414c414e434500604482015290519081900360640190fd5b600080610b60614ae6565b9092509050818410610ba35760405162461bcd60e51b81526004018080602001828103825260288152602001806156cf6028913960400191505060405180910390fd5b6000610bc66103e8610bc0600d5489614e1890919063ffffffff16565b90614e78565b90506000610bd48783614eba565b90506000610be3828686613ff5565b905086811015610c2f576040805162461bcd60e51b815260206004820152601260248201527143414e5f4e4f545f4d414b455f545241444560701b604482015290519081900360640190fd5b848110610c6d5760405162461bcd60e51b81526004018080602001828103825260248152602001806157c76024913960400191505060405180910390fd5b600754604080516370a0823160e01b815230600482015290516101009092046001600160a01b0316916370a0823191602480820192602092909190829003018186803b158015610cbc57600080fd5b505afa158015610cd0573d6000803e3d6000fd5b505050506040513d6020811015610ce657600080fd5b50518110610d255760405162461bcd60e51b815260040180806020018281038252602881526020018061560d6028913960400191505060405180910390fd5b600854604080516323b872dd60e01b8152336004820152306024820152604481018b905290516001600160a01b03909216916323b872dd916064808201926020929091908290030181600087803b158015610d7f57600080fd5b505af1158015610d93573d6000803e3d6000fd5b505050506040513d6020811015610da957600080fd5b50506007546040805163a9059cbb60e01b81523360048201526024810184905290516101009092046001600160a01b03169163a9059cbb916044808201926020929091908290030181600087803b158015610e0357600080fd5b505af1158015610e17573d6000803e3d6000fd5b505050506040513d6020811015610e2d57600080fd5b50506008546009546040805163a9059cbb60e01b81526001600160a01b039283166004820152602481018790529051919092169163a9059cbb9160448083019260209291908290030181600087803b158015610e8857600080fd5b505af1158015610e9c573d6000803e3d6000fd5b505050506040513d6020811015610eb257600080fd5b50506009546008546040805163339dff2360e21b81526001600160a01b0392831660048201529051919092169163ce77fc8c91602480830192600092919082900301818387803b158015610f0557600080fd5b505af1158015610f19573d6000803e3d6000fd5b505060408051338152602081018b90528082018c9052606081018590526080810189905260a0810188905290517fb1b8c525a87e01fd3cda717635c4b24d56deba9f9d95c4f650c022bcd0bf8f5093509081900360c0019150a15050505050505050565b60068054604080516020601f60026000196101006001881615020190951694909404938401819004810282018101909252828152606093909290918301828280156110095780601f10610fde57610100808354040283529160200191611009565b820191906000526020600020905b815481529060010190602001808311610fec57829003601f168201915b5050505050905090565b6000611027611020614efc565b8484614f00565b5060015b92915050565b6000808061103d614ae6565b600d54919350915060009061105b906103e890610bc0908890614e18565b905060006110698683614eba565b9050600061107882868661143b565b979650505050505050565b61108b614efc565b6000546001600160a01b039081169116146110db576040805162461bcd60e51b81526020600482018190526024820152600080516020615718833981519152604482015290519081900360640190fd5b600b80546040805163109cc30b60e21b81523060048201526024810182905260448101939093526a736574547261646546656560a81b6064840152516001600160a01b03909116916342730c2c916084808301926020929190829003018186803b15801561114857600080fd5b505afa15801561115c573d6000803e3d6000fd5b505050506040513d602081101561117257600080fd5b50516111ba576040805162461bcd60e51b815260206004820152601260248201527124a72b20a624a22fa822a926a4a9a9a4a7a760711b604482015290519081900360640190fd5b600b805460408051636076dea560e11b81523060048201526060602482015260648101939093526a736574547261646546656560a81b608484015260a06044840152600860a484015267747261646546656560c01b60c4840152516000926001600160a01b039092169163c0edbd4a9160e4808301926020929190829003018186803b15801561124957600080fd5b505afa15801561125d573d6000803e3d6000fd5b505050506040513d602081101561127357600080fd5b5051600d819055600b805460408051636e977f0b60e01b8152600260448201526060600482015260648101939093526a736574547261646546656560a81b608484015260a06024840152600860a484015267747261646546656560c01b60c4840152519293506001600160a01b031691636e977f0b9160e48082019260009290919082900301818387803b15801561130a57600080fd5b505af115801561131e573d6000803e3d6000fd5b5050600b8054604080516345503fcb60e11b81526020600482015260248101939093526a736574547261646546656560a81b6044840152516001600160a01b039091169350638aa07f969250606480830192600092919082900301818387803b15801561138a57600080fd5b505af115801561139e573d6000803e3d6000fd5b5050505050565b60075460ff1681565b60035490565b60006113c1848484614fec565b611431846113cd614efc565b61142c8560405180606001604052806028815260200161565e602891396001600160a01b038a1660009081526002602052604081209061140b614efc565b6001600160a01b03168152602081019190915260400160002054919061513e565b614f00565b5060019392505050565b6000808311801561144c5750600082115b61148d576040805162461bcd60e51b815260206004820152600d60248201526c494e56414c49445f56414c554560981b604482015290519081900360640190fd5b60006114998385614e18565b905060006114a785876151d5565b905060006110786114b88484614e78565b8690614eba565b60045460ff1690565b60006110276114d5614efc565b8461142c85600260006114e6614efc565b6001600160a01b03908116825260208083019390935260409182016000908120918c1681529252902054906151d5565b61151e614efc565b6000546001600160a01b0390811691161461156e576040805162461bcd60e51b81526020600482018190526024820152600080516020615718833981519152604482015290519081900360640190fd5b600b546040805163109cc30b60e21b815230600482015260248101829052600f60448201526e1cd95d11985c9b50dbdb9d1c9858dd608a1b606482015290516001600160a01b03909216916342730c2c91608480820192602092909190829003018186803b1580156115df57600080fd5b505afa1580156115f3573d6000803e3d6000fd5b505050506040513d602081101561160957600080fd5b5051611651576040805162461bcd60e51b815260206004820152601260248201527124a72b20a624a22fa822a926a4a9a9a4a7a760711b604482015290519081900360640190fd5b600b5460408051636bfb078d60e01b815230600482015260606024820152600f60648201526e1cd95d11985c9b50dbdb9d1c9858dd608a1b608482015260a06044820152600c60a48201526b19985c9b50dbdb9d1c9858dd60a21b60c482015290516000926001600160a01b031691636bfb078d9160e4808301926020929190829003018186803b1580156116e557600080fd5b505afa1580156116f9573d6000803e3d6000fd5b505050506040513d602081101561170f57600080fd5b505190506001600160a01b038116611760576040805162461bcd60e51b815260206004820152600f60248201526e494e56414c49445f4144445245535360881b604482015290519081900360640190fd5b600c80546001600160a01b0319166001600160a01b03838116919091178255600b5460408051636e977f0b60e01b81526001604482015260606004820152600f60648201526e1cd95d11985c9b50dbdb9d1c9858dd608a1b608482015260a0602482015260a48101949094526b19985c9b50dbdb9d1c9858dd60a21b60c485015251911691636e977f0b9160e480830192600092919082900301818387803b15801561180b57600080fd5b505af115801561181f573d6000803e3d6000fd5b5050600b54604080516345503fcb60e11b815260206004820152600f60248201526e1cd95d11985c9b50dbdb9d1c9858dd608a1b604482015290516001600160a01b039092169350638aa07f96925060648082019260009290919082900301818387803b15801561138a57600080fd5b6009546001600160a01b031681565b60075461010090046001600160a01b031681565b600033321461197c57600a5460408051636c9b2a3f60e11b815233600482015290516001600160a01b039092169163d936547e91602480820192602092909190829003018186803b15801561190657600080fd5b505afa15801561191a573d6000803e3d6000fd5b505050506040513d602081101561193057600080fd5b5051151560011461197c576040805162461bcd60e51b81526020600482015260116024820152701253959053125117d5d2125511531254d5607a1b604482015290519081900360640190fd5b428210156119c4576040805162461bcd60e51b815260206004820152601060248201526f494e56414c49445f444541444c494e4560801b604482015290519081900360640190fd5b60008511611a0a576040805162461bcd60e51b815260206004820152600e60248201526d0494e56414c49445f4d494e5f4c560941b604482015290519081900360640190fd5b60008411611a54576040805162461bcd60e51b81526020600482015260126024820152711253959053125117d09054d157d25394155560721b604482015290519081900360640190fd5b60008311611aa3576040805162461bcd60e51b81526020600482015260176024820152761253959053125117d3505617d513d2d15397d253941555604a1b604482015290519081900360640190fd5b6000611aad6113ae565b905080611d3f57600754604080516323b872dd60e01b81523360048201523060248201526044810188905290516101009092046001600160a01b0316916323b872dd916064808201926020929091908290030181600087803b158015611b1257600080fd5b505af1158015611b26573d6000803e3d6000fd5b505050506040513d6020811015611b3c57600080fd5b5050600854604080516323b872dd60e01b81523360048201523060248201526044810187905290516001600160a01b03909216916323b872dd916064808201926020929091908290030181600087803b158015611b9857600080fd5b505af1158015611bac573d6000803e3d6000fd5b505050506040513d6020811015611bc257600080fd5b50859050611bd0338261522f565b7f28e12afd967cc11b786f1b1547f5e0da96ccc91ebb09bdd406248111a634e7e533828888600760019054906101000a90046001600160a01b03166001600160a01b03166370a08231306040518263ffffffff1660e01b815260040180826001600160a01b0316815260200191505060206040518083038186803b158015611c5757600080fd5b505afa158015611c6b573d6000803e3d6000fd5b505050506040513d6020811015611c8157600080fd5b5051600854604080516370a0823160e01b815230600482015290516001600160a01b03909216916370a0823191602480820192602092909190829003018186803b158015611cce57600080fd5b505afa158015611ce2573d6000803e3d6000fd5b505050506040513d6020811015611cf857600080fd5b5051604080516001600160a01b0390971687526020870195909552858501939093526060850191909152608084015260a0830152519081900360c00190a191506120f19050565b600080611d4a614ae6565b90925090506000611d7382611d6d85610bc0611d66828e6151d5565b8790614e18565b90614eba565b90506000611d8584610bc0878c614e18565b905060008211611dd2576040805162461bcd60e51b81526020600482015260136024820152721253959053125117d513d2d15397d253941555606a1b604482015290519081900360640190fd5b87821115611e1d576040805162461bcd60e51b81526020600482015260136024820152721253959053125117d513d2d15397d253941555606a1b604482015290519081900360640190fd5b89811015611e64576040805162461bcd60e51b815260206004820152600f60248201526e0494e56414c49445f4d494e545f4c5608c1b604482015290519081900360640190fd5b600754604080516323b872dd60e01b8152336004820152306024820152604481018c905290516101009092046001600160a01b0316916323b872dd916064808201926020929091908290030181600087803b158015611ec257600080fd5b505af1158015611ed6573d6000803e3d6000fd5b505050506040513d6020811015611eec57600080fd5b5050600854604080516323b872dd60e01b81523360048201523060248201526044810185905290516001600160a01b03909216916323b872dd916064808201926020929091908290030181600087803b158015611f4857600080fd5b505af1158015611f5c573d6000803e3d6000fd5b505050506040513d6020811015611f7257600080fd5b50611f7f9050338261522f565b7f28e12afd967cc11b786f1b1547f5e0da96ccc91ebb09bdd406248111a634e7e533828b85600760019054906101000a90046001600160a01b03166001600160a01b03166370a08231306040518263ffffffff1660e01b815260040180826001600160a01b0316815260200191505060206040518083038186803b15801561200657600080fd5b505afa15801561201a573d6000803e3d6000fd5b505050506040513d602081101561203057600080fd5b5051600854604080516370a0823160e01b815230600482015290516001600160a01b03909216916370a0823191602480820192602092909190829003018186803b15801561207d57600080fd5b505afa158015612091573d6000803e3d6000fd5b505050506040513d60208110156120a757600080fd5b5051604080516001600160a01b0390971687526020870195909552858501939093526060850191909152608084015260a0830152519081900360c00190a194506120f19350505050565b949350505050565b60008080612105614ae6565b600d549193509150600090612123906103e890610bc0908890614e18565b905060006121318683614eba565b90506000611078828686613ff5565b600080600061214d6113ae565b90506000808261216157508490508061219b565b60008061216c614ae6565b909250905061218682611d6d83610bc0611d66828e6151d5565b925061219682610bc08786614e18565b935050505b909350915050915091565b6001600160a01b031660009081526001602052604090205490565b60008060006121ce6113ae565b9050808411156121dc578093505b6000806121e7614ae6565b909250905060006121fc84610bc08986614e18565b9050600061220e85610bc08a86614e18565b91965090945050505050915091565b612225614efc565b6000546001600160a01b03908116911614612275576040805162461bcd60e51b81526020600482018190526024820152600080516020615718833981519152604482015290519081900360640190fd5b600080546040516001600160a01b03909116907f8be0079c531659141344cd1fd0a4f28419497f9722a3daafe3b4186f6b6457e0908390a3600080546001600160a01b0319169055565b33321461238757600a5460408051636c9b2a3f60e11b815233600482015290516001600160a01b039092169163d936547e91602480820192602092909190829003018186803b15801561231157600080fd5b505afa158015612325573d6000803e3d6000fd5b505050506040513d602081101561233b57600080fd5b50511515600114612387576040805162461bcd60e51b81526020600482015260116024820152701253959053125117d5d2125511531254d5607a1b604482015290519081900360640190fd5b428110156123cf576040805162461bcd60e51b815260206004820152601060248201526f494e56414c49445f444541444c494e4560801b604482015290519081900360640190fd5b6000831161241e576040805162461bcd60e51b81526020600482015260176024820152761253959053125117d3505617d513d2d15397d253941555604a1b604482015290519081900360640190fd5b60008211612469576040805162461bcd60e51b81526020600482015260136024820152721253959053125117d09054d157d3d555141555606a1b604482015290519081900360640190fd5b600754604080516370a0823160e01b815230600482015290516101009092046001600160a01b0316916370a0823191602480820192602092909190829003018186803b1580156124b857600080fd5b505afa1580156124cc573d6000803e3d6000fd5b505050506040513d60208110156124e257600080fd5b505182106125215760405162461bcd60e51b815260040180806020018281038252602881526020018061560d6028913960400191505060405180910390fd5b60008061252c614ae6565b909250905081841061256f5760405162461bcd60e51b81526004018080602001828103825260248152602001806157c76024913960400191505060405180910390fd5b600061257c8584846131c2565b9050600061259b6103e8610bc0600d5485614e1890919063ffffffff16565b90506125a782826151d5565b9150868211156125f3576040805162461bcd60e51b815260206004820152601260248201527143414e5f4e4f545f4d414b455f545241444560701b604482015290519081900360640190fd5b6000821161263e576040805162461bcd60e51b81526020600482015260136024820152721253959053125117d513d2d15397d253941555606a1b604482015290519081900360640190fd5b600854604080516370a0823160e01b815233600482015290516001600160a01b03909216916370a0823191602480820192602092909190829003018186803b15801561268957600080fd5b505afa15801561269d573d6000803e3d6000fd5b505050506040513d60208110156126b357600080fd5b5051821115612709576040805162461bcd60e51b815260206004820152601f60248201527f544f4b454e5f494e5055545f4849474845525f555345525f42414c414e434500604482015290519081900360640190fd5b600854604080516323b872dd60e01b81523360048201523060248201526044810185905290516001600160a01b03909216916323b872dd916064808201926020929091908290030181600087803b15801561276357600080fd5b505af1158015612777573d6000803e3d6000fd5b505050506040513d602081101561278d57600080fd5b50506007546040805163a9059cbb60e01b81523360048201526024810189905290516101009092046001600160a01b03169163a9059cbb916044808201926020929091908290030181600087803b1580156127e757600080fd5b505af11580156127fb573d6000803e3d6000fd5b505050506040513d602081101561281157600080fd5b50506008546009546040805163a9059cbb60e01b81526001600160a01b039283166004820152602481018590529051919092169163a9059cbb9160448083019260209291908290030181600087803b15801561286c57600080fd5b505af1158015612880573d6000803e3d6000fd5b505050506040513d602081101561289657600080fd5b50506009546008546040805163339dff2360e21b81526001600160a01b0392831660048201529051919092169163ce77fc8c91602480830192600092919082900301818387803b1580156128e957600080fd5b505af11580156128fd573d6000803e3d6000fd5b505060408051338152602081018b9052808201869052606081018a90526080810188905260a0810187905290517ff116a588cdba1b14c04ffd8bca7fee39286e7c8d9da59d77c036430e4b415dbc93509081900360c0019150a150505050505050565b600080333214612a2b57600a5460408051636c9b2a3f60e11b815233600482015290516001600160a01b039092169163d936547e91602480820192602092909190829003018186803b1580156129b557600080fd5b505afa1580156129c9573d6000803e3d6000fd5b505050506040513d60208110156129df57600080fd5b50511515600114612a2b576040805162461bcd60e51b81526020600482015260116024820152701253959053125117d5d2125511531254d5607a1b604482015290519081900360640190fd5b42831015612a73576040805162461bcd60e51b815260206004820152601060248201526f494e56414c49445f444541444c494e4560801b604482015290519081900360640190fd5b60008611612abc576040805162461bcd60e51b81526020600482015260116024820152700494e56414c49445f414d4f554e545f4c5607c1b604482015290519081900360640190fd5b60008511612b0b576040805162461bcd60e51b81526020600482015260176024820152761253959053125117d3525397d09054d157d3d555141555604a1b604482015290519081900360640190fd5b60008411612b5b576040805162461bcd60e51b81526020600482015260186024820152771253959053125117d3525397d513d2d15397d3d55514155560421b604482015290519081900360640190fd5b6000612b656113ae565b90506000612b72336121a6565b905080881115612b80578097505b81881115612bd5576040805162461bcd60e51b815260206004820152601e60248201527f494e56414c49445f414d4f554e545f4c505f544f54414c5f535550504c590000604482015290519081900360640190fd5b600080612be0614ae6565b90925090506000612bf585610bc08d86614e18565b90506000612c0786610bc08e86614e18565b90508a821015612c54576040805162461bcd60e51b81526020600482015260136024820152721253959053125117d09054d157d3d555141555606a1b604482015290519081900360640190fd5b89811015612ca0576040805162461bcd60e51b81526020600482015260146024820152731253959053125117d513d2d15397d3d55514155560621b604482015290519081900360640190fd5b83821115612cf5576040805162461bcd60e51b815260206004820152601f60248201527f424153455f4f55545055545f4849474845525f424153455f42414c414e434500604482015290519081900360640190fd5b82811115612d345760405162461bcd60e51b815260040180806020018281038252602181526020018061580d6021913960400191505060405180910390fd5b600854604080516370a0823160e01b815230600482015290516001600160a01b03909216916370a0823191602480820192602092909190829003018186803b158015612d7f57600080fd5b505afa158015612d93573d6000803e3d6000fd5b505050506040513d6020811015612da957600080fd5b5051811180612e315750600754604080516370a0823160e01b815230600482015290516101009092046001600160a01b0316916370a0823191602480820192602092909190829003018186803b158015612e0257600080fd5b505afa158015612e16573d6000803e3d6000fd5b505050506040513d6020811015612e2c57600080fd5b505182115b15612e9f57600c60009054906101000a90046001600160a01b03166001600160a01b031663640344dd6040518163ffffffff1660e01b8152600401600060405180830381600087803b158015612e8657600080fd5b505af1158015612e9a573d6000803e3d6000fd5b505050505b612ea9338d615315565b6007546040805163a9059cbb60e01b81523360048201526024810185905290516101009092046001600160a01b03169163a9059cbb916044808201926020929091908290030181600087803b158015612f0157600080fd5b505af1158015612f15573d6000803e3d6000fd5b505050506040513d6020811015612f2b57600080fd5b50506008546040805163a9059cbb60e01b81523360048201526024810184905290516001600160a01b039092169163a9059cbb916044808201926020929091908290030181600087803b158015612f8157600080fd5b505af1158015612f95573d6000803e3d6000fd5b505050506040513d6020811015612fab57600080fd5b8101908080519060200190929190505050507f555901717744791e9e27303c0df147d5a5eea5b7098591b2c5f2138ed6a605de338d8484600760019054906101000a90046001600160a01b03166001600160a01b03166370a08231306040518263ffffffff1660e01b815260040180826001600160a01b0316815260200191505060206040518083038186803b15801561304457600080fd5b505afa158015613058573d6000803e3d6000fd5b505050506040513d602081101561306e57600080fd5b5051600854604080516370a0823160e01b815230600482015290516001600160a01b03909216916370a0823191602480820192602092909190829003018186803b1580156130bb57600080fd5b505afa1580156130cf573d6000803e3d6000fd5b505050506040513d60208110156130e557600080fd5b5051604080516001600160a01b0390971687526020870195909552858501939093526060850191909152608084015260a0830152519081900360c00190a1909b909a5098505050505050505050565b600a546001600160a01b031681565b600061314d613152565b905090565b6000546001600160a01b031690565b60058054604080516020601f60026000196101006001881615020190951694909404938401819004810282018101909252828152606093909290918301828280156110095780601f10610fde57610100808354040283529160200191611009565b600080831180156131d35750600082115b613214576040805162461bcd60e51b815260206004820152600d60248201526c494e56414c49445f56414c554560981b604482015290519081900360640190fd5b60006132208385614e18565b9050600061322e8587614eba565b9050600061107885611d6d8585614e78565b600c546001600160a01b031681565b600061102761325c614efc565b8461142c856040518060600160405280602581526020016157816025913960026000613286614efc565b6001600160a01b03908116825260208083019390935260409182016000908120918d1681529252902054919061513e565b6132bf614efc565b6000546001600160a01b0390811691161461330f576040805162461bcd60e51b81526020600482018190526024820152600080516020615718833981519152604482015290519081900360640190fd5b600c546001600160a01b0316613363576040805162461bcd60e51b8152602060048201526014602482015273494e56414c49445f4641524d5f4144445245535360601b604482015290519081900360640190fd5b60075461010090046001600160a01b03166133bc576040805162461bcd60e51b8152602060048201526014602482015273494e56414c49445f424153455f4144445245535360601b604482015290519081900360640190fd5b6008546001600160a01b0316613411576040805162461bcd60e51b8152602060048201526015602482015274494e56414c49445f544f4b454e5f4144445245535360581b604482015290519081900360640190fd5b600c60009054906101000a90046001600160a01b03166001600160a01b031663640344dd6040518163ffffffff1660e01b8152600401600060405180830381600087803b15801561346157600080fd5b505af1158015613475573d6000803e3d6000fd5b5050600754604080516370a0823160e01b81523060048201529051600094506101009092046001600160a01b031692506370a08231916024808301926020929190829003018186803b1580156134ca57600080fd5b505afa1580156134de573d6000803e3d6000fd5b505050506040513d60208110156134f457600080fd5b5051600854604080516370a0823160e01b815230600482015290519293506000926001600160a01b03909216916370a0823191602480820192602092909190829003018186803b15801561354757600080fd5b505afa15801561355b573d6000803e3d6000fd5b505050506040513d602081101561357157600080fd5b5051600c54604080516359bf5d3960e01b8152815193945060009384936001600160a01b0316926359bf5d399260048082019391829003018186803b1580156135b957600080fd5b505afa1580156135cd573d6000803e3d6000fd5b505050506040513d60408110156135e357600080fd5b50805160209091015190925090508184111561369857600061360a6002610bc08786614eba565b600754600c546040805163a9059cbb60e01b81526001600160a01b039283166004820152602481018590529051939450610100909204169163a9059cbb916044808201926020929091908290030181600087803b15801561366a57600080fd5b505af115801561367e573d6000803e3d6000fd5b505050506040513d602081101561369457600080fd5b5050505b8184101561371b5760006136b16002610bc08588614eba565b600c546040805163ede198bb60e01b81526004810184905290519293506001600160a01b039091169163ede198bb9160248082019260009290919082900301818387803b15801561370157600080fd5b505af1158015613715573d6000803e3d6000fd5b50505050505b808311156137bd5760006137346002610bc08685614eba565b600854600c546040805163a9059cbb60e01b81526001600160a01b03928316600482015260248101859052905193945091169163a9059cbb916044808201926020929091908290030181600087803b15801561378f57600080fd5b505af11580156137a3573d6000803e3d6000fd5b505050506040513d60208110156137b957600080fd5b5050505b808310156138405760006137d66002610bc08587614eba565b600c54604080516309c34eff60e31b81526004810184905290519293506001600160a01b0390911691634e1a77f89160248082019260009290919082900301818387803b15801561382657600080fd5b505af115801561383a573d6000803e3d6000fd5b50505050505b50505050565b6000611027613853614efc565b8484614fec565b6000808311801561386b5750600082115b6138ac576040805162461bcd60e51b815260206004820152600d60248201526c494e56414c49445f56414c554560981b604482015290519081900360640190fd5b60006138b88385614e18565b905060006138c68487614eba565b9050600061107886611d6d8585614e78565b60008060006138e56113ae565b9050600080826138f957508490508061219b565b600080613904614ae6565b909250905061392581611d6d84610bc061391e828e6151d5565b8690614e18565b925061219682610bc0878b614e18565b3332146139fd57600a5460408051636c9b2a3f60e11b815233600482015290516001600160a01b039092169163d936547e91602480820192602092909190829003018186803b15801561398757600080fd5b505afa15801561399b573d6000803e3d6000fd5b505050506040513d60208110156139b157600080fd5b505115156001146139fd576040805162461bcd60e51b81526020600482015260116024820152701253959053125117d5d2125511531254d5607a1b604482015290519081900360640190fd5b42811015613a45576040805162461bcd60e51b815260206004820152601060248201526f494e56414c49445f444541444c494e4560801b604482015290519081900360640190fd5b60008311613a93576040805162461bcd60e51b81526020600482015260166024820152751253959053125117d3505617d09054d157d25394155560521b604482015290519081900360640190fd5b60008211613adf576040805162461bcd60e51b81526020600482015260146024820152731253959053125117d513d2d15397d3d55514155560621b604482015290519081900360640190fd5b600854604080516370a0823160e01b815230600482015290516001600160a01b03909216916370a0823191602480820192602092909190829003018186803b158015613b2a57600080fd5b505afa158015613b3e573d6000803e3d6000fd5b505050506040513d6020811015613b5457600080fd5b50518210613b935760405162461bcd60e51b81526004018080602001828103825260298152602001806156356029913960400191505060405180910390fd5b600080613b9e614ae6565b9092509050808410613be15760405162461bcd60e51b81526004018080602001828103825260268152602001806156866026913960400191505060405180910390fd5b6000613bee85848461385a565b90506000613c0d6103e8610bc0600d5485614e1890919063ffffffff16565b9050613c1982826151d5565b915086821115613c65576040805162461bcd60e51b815260206004820152601260248201527143414e5f4e4f545f4d414b455f545241444560701b604482015290519081900360640190fd5b60008211613caf576040805162461bcd60e51b81526020600482015260126024820152711253959053125117d09054d157d25394155560721b604482015290519081900360640190fd5b600754604080516370a0823160e01b815233600482015290516101009092046001600160a01b0316916370a0823191602480820192602092909190829003018186803b158015613cfe57600080fd5b505afa158015613d12573d6000803e3d6000fd5b505050506040513d6020811015613d2857600080fd5b5051821115613d7e576040805162461bcd60e51b815260206004820152601e60248201527f424153455f494e5055545f4849474845525f555345525f42414c414e43450000604482015290519081900360640190fd5b600754604080516323b872dd60e01b81523360048201523060248201526044810185905290516101009092046001600160a01b0316916323b872dd916064808201926020929091908290030181600087803b158015613ddc57600080fd5b505af1158015613df0573d6000803e3d6000fd5b505050506040513d6020811015613e0657600080fd5b50506008546040805163a9059cbb60e01b81523360048201526024810189905290516001600160a01b039092169163a9059cbb916044808201926020929091908290030181600087803b158015613e5c57600080fd5b505af1158015613e70573d6000803e3d6000fd5b505050506040513d6020811015613e8657600080fd5b50506007546009546040805163a9059cbb60e01b81526001600160a01b0392831660048201526024810185905290516101009093049091169163a9059cbb916044808201926020929091908290030181600087803b158015613ee757600080fd5b505af1158015613efb573d6000803e3d6000fd5b505050506040513d6020811015613f1157600080fd5b50506009546007546040805163339dff2360e21b81526101009092046001600160a01b039081166004840152905192169163ce77fc8c9160248082019260009290919082900301818387803b158015613f6957600080fd5b505af1158015613f7d573d6000803e3d6000fd5b505060408051338152602081018b9052808201869052606081018a90526080810188905260a0810187905290517f6e9d5a0202c67970b52b10deb68f1641a9408d90db857bc984d008c1be70383a93509081900360c0019150a150505050505050565b600d5481565b600b546001600160a01b031681565b600080831180156140065750600082115b614047576040805162461bcd60e51b815260206004820152600d60248201526c494e56414c49445f56414c554560981b604482015290519081900360640190fd5b60006140538385614e18565b9050600061406184876151d5565b905060006110786140728484614e78565b8790614eba565b6001600160a01b03918216600090815260026020908152604080832093909416825291909152205490565b33321461416c57600a5460408051636c9b2a3f60e11b815233600482015290516001600160a01b039092169163d936547e91602480820192602092909190829003018186803b1580156140f657600080fd5b505afa15801561410a573d6000803e3d6000fd5b505050506040513d602081101561412057600080fd5b5051151560011461416c576040805162461bcd60e51b81526020600482015260116024820152701253959053125117d5d2125511531254d5607a1b604482015290519081900360640190fd5b428110156141b4576040805162461bcd60e51b815260206004820152601060248201526f494e56414c49445f444541444c494e4560801b604482015290519081900360640190fd5b600083116141fe576040805162461bcd60e51b81526020600482015260126024820152711253959053125117d09054d157d25394155560721b604482015290519081900360640190fd5b6000821161424e576040805162461bcd60e51b81526020600482015260186024820152771253959053125117d3525397d513d2d15397d3d55514155560421b604482015290519081900360640190fd5b600754604080516370a0823160e01b815233600482015290516101009092046001600160a01b0316916370a0823191602480820192602092909190829003018186803b15801561429d57600080fd5b505afa1580156142b1573d6000803e3d6000fd5b505050506040513d60208110156142c757600080fd5b505183111561431d576040805162461bcd60e51b815260206004820152601e60248201527f424153455f494e5055545f4849474845525f555345525f42414c414e43450000604482015290519081900360640190fd5b600080614328614ae6565b909250905080841061436b5760405162461bcd60e51b81526004018080602001828103825260238152602001806156ac6023913960400191505060405180910390fd5b60006143886103e8610bc0600d5489614e1890919063ffffffff16565b905060006143968783614eba565b905060006143a582868661143b565b9050868110156143f1576040805162461bcd60e51b815260206004820152601260248201527143414e5f4e4f545f4d414b455f545241444560701b604482015290519081900360640190fd5b83811061442f5760405162461bcd60e51b81526004018080602001828103825260268152602001806156866026913960400191505060405180910390fd5b600854604080516370a0823160e01b815230600482015290516001600160a01b03909216916370a0823191602480820192602092909190829003018186803b15801561447a57600080fd5b505afa15801561448e573d6000803e3d6000fd5b505050506040513d60208110156144a457600080fd5b505181106144e35760405162461bcd60e51b81526004018080602001828103825260298152602001806156356029913960400191505060405180910390fd5b600754604080516323b872dd60e01b8152336004820152306024820152604481018b905290516101009092046001600160a01b0316916323b872dd916064808201926020929091908290030181600087803b15801561454157600080fd5b505af1158015614555573d6000803e3d6000fd5b505050506040513d602081101561456b57600080fd5b50506008546040805163a9059cbb60e01b81523360048201526024810184905290516001600160a01b039092169163a9059cbb916044808201926020929091908290030181600087803b1580156145c157600080fd5b505af11580156145d5573d6000803e3d6000fd5b505050506040513d60208110156145eb57600080fd5b50506007546009546040805163a9059cbb60e01b81526001600160a01b0392831660048201526024810187905290516101009093049091169163a9059cbb916044808201926020929091908290030181600087803b15801561464c57600080fd5b505af1158015614660573d6000803e3d6000fd5b505050506040513d602081101561467657600080fd5b50506009546007546040805163339dff2360e21b81526101009092046001600160a01b039081166004840152905192169163ce77fc8c9160248082019260009290919082900301818387803b1580156146ce57600080fd5b505af11580156146e2573d6000803e3d6000fd5b505060408051338152602081018b90528082018c9052606081018590526080810189905260a0810188905290517fd294be030e23d0862312f418541ec01d571908715169f1cb1109bba3212b8c2d93509081900360c0019150a15050505050505050565b61474e614efc565b6000546001600160a01b0390811691161461479e576040805162461bcd60e51b81526020600482018190526024820152600080516020615718833981519152604482015290519081900360640190fd5b600b546040805163109cc30b60e21b81523060048201526024810182905260156044820152741cd95d119959535858da1a5b9950dbdb9d1c9858dd605a1b606482015290516001600160a01b03909216916342730c2c91608480820192602092909190829003018186803b15801561481557600080fd5b505afa158015614829573d6000803e3d6000fd5b505050506040513d602081101561483f57600080fd5b5051614887576040805162461bcd60e51b815260206004820152601260248201527124a72b20a624a22fa822a926a4a9a9a4a7a760711b604482015290519081900360640190fd5b600b5460408051636bfb078d60e01b81523060048201526060602482015260156064820152741cd95d119959535858da1a5b9950dbdb9d1c9858dd605a1b608482015260a06044820152601260a482015271199959535858da1a5b9950dbdb9d1c9858dd60721b60c482015290516000926001600160a01b031691636bfb078d9160e4808301926020929190829003018186803b15801561492757600080fd5b505afa15801561493b573d6000803e3d6000fd5b505050506040513d602081101561495157600080fd5b505190506001600160a01b0381166149a2576040805162461bcd60e51b815260206004820152600f60248201526e494e56414c49445f4144445245535360881b604482015290519081900360640190fd5b600980546001600160a01b0319166001600160a01b0383811691909117909155600b5460408051636e977f0b60e01b8152600160448201526060600482015260156064820152741cd95d119959535858da1a5b9950dbdb9d1c9858dd605a1b608482015260a06024820152601260a482015271199959535858da1a5b9950dbdb9d1c9858dd60721b60c482015290519190921691636e977f0b9160e480830192600092919082900301818387803b158015614a5c57600080fd5b505af1158015614a70573d6000803e3d6000fd5b5050600b54604080516345503fcb60e11b81526020600482015260156024820152741cd95d119959535858da1a5b9950dbdb9d1c9858dd605a1b604482015290516001600160a01b039092169350638aa07f96925060648082019260009290919082900301818387803b15801561138a57600080fd5b6000806000600760019054906101000a90046001600160a01b03166001600160a01b03166370a08231306040518263ffffffff1660e01b815260040180826001600160a01b0316815260200191505060206040518083038186803b158015614b4d57600080fd5b505afa158015614b61573d6000803e3d6000fd5b505050506040513d6020811015614b7757600080fd5b5051600854604080516370a0823160e01b815230600482015290519293506000926001600160a01b03909216916370a0823191602480820192602092909190829003018186803b158015614bca57600080fd5b505afa158015614bde573d6000803e3d6000fd5b505050506040513d6020811015614bf457600080fd5b5051600c54604080516359bf5d3960e01b8152815193945060009384936001600160a01b0316926359bf5d399260048082019391829003018186803b158015614c3c57600080fd5b505afa158015614c50573d6000803e3d6000fd5b505050506040513d6040811015614c6657600080fd5b5080516020909101519092509050614c7e84836151d5565b614c8884836151d5565b95509550505050509091565b60008080614ca0614ae6565b90925090506000614cb18284614e18565b935050505090565b614cc1614efc565b6000546001600160a01b03908116911614614d11576040805162461bcd60e51b81526020600482018190526024820152600080516020615718833981519152604482015290519081900360640190fd5b614d1a81615405565b50565b6008546001600160a01b031681565b614d34614efc565b6000546001600160a01b03908116911614614d84576040805162461bcd60e51b81526020600482018190526024820152600080516020615718833981519152604482015290519081900360640190fd5b60075460ff1615614dcb576040805162461bcd60e51b815260206004820152600c60248201526b1253959053125117d253925560a21b604482015290519081900360640190fd5b8351614dde90600690602087019061550a565b508251614df290600590602086019061550a565b506004805460ff90931660ff199384161790556003556007805490911660011790555050565b600082614e275750600061102b565b82820282848281614e3457fe5b0414614e715760405162461bcd60e51b81526004018080602001828103825260218152602001806156f76021913960400191505060405180910390fd5b9392505050565b6000614e7183836040518060400160405280601a81526020017f536166654d6174683a206469766973696f6e206279207a65726f0000000000008152506154a5565b6000614e7183836040518060400160405280601e81526020017f536166654d6174683a207375627472616374696f6e206f766572666c6f77000081525061513e565b3390565b6001600160a01b038316614f455760405162461bcd60e51b81526004018080602001828103825260248152602001806155c36024913960400191505060405180910390fd5b6001600160a01b038216614f8a5760405162461bcd60e51b815260040180806020018281038252602281526020018061582e6022913960400191505060405180910390fd5b6001600160a01b03808416600081815260026020908152604080832094871680845294825291829020859055815185815291517f8c5be1e5ebec7d5bd14f71427d1e84f3dd0314c0f7b2291e5b200ac8c7c3b9259281900390910190a3505050565b6001600160a01b0383166150315760405162461bcd60e51b815260040180806020018281038252602581526020018061559e6025913960400191505060405180910390fd5b6001600160a01b0382166150765760405162461bcd60e51b815260040180806020018281038252602381526020018061575e6023913960400191505060405180910390fd5b6150b381604051806060016040528060268152602001615738602691396001600160a01b038616600090815260016020526040902054919061513e565b6001600160a01b0380851660009081526001602052604080822093909355908416815220546150e290826151d5565b6001600160a01b0380841660008181526001602090815260409182902094909455805185815290519193928716927fddf252ad1be2c89b69c2b068fc378daa952ba7f163c4a11628f55a4df523b3ef92918290030190a3505050565b600081848411156151cd5760405162461bcd60e51b81526004018080602001828103825283818151815260200191508051906020019080838360005b8381101561519257818101518382015260200161517a565b50505050905090810190601f1680156151bf5780820380516001836020036101000a031916815260200191505b509250505060405180910390fd5b505050900390565b600082820183811015614e71576040805162461bcd60e51b815260206004820152601b60248201527f536166654d6174683a206164646974696f6e206f766572666c6f770000000000604482015290519081900360640190fd5b6001600160a01b03821661528a576040805162461bcd60e51b815260206004820152601f60248201527f42455032303a206d696e7420746f20746865207a65726f206164647265737300604482015290519081900360640190fd5b60035461529790826151d5565b6003556001600160a01b0382166000908152600160205260409020546152bd90826151d5565b6001600160a01b03831660008181526001602090815260408083209490945583518581529351929391927fddf252ad1be2c89b69c2b068fc378daa952ba7f163c4a11628f55a4df523b3ef9281900390910190a35050565b6001600160a01b03821661535a5760405162461bcd60e51b81526004018080602001828103825260218152602001806157a66021913960400191505060405180910390fd5b615397816040518060600160405280602281526020016157eb602291396001600160a01b038516600090815260016020526040902054919061513e565b6001600160a01b0383166000908152600160205260409020556003546153bd9082614eba565b6003556040805182815290516000916001600160a01b038516917fddf252ad1be2c89b69c2b068fc378daa952ba7f163c4a11628f55a4df523b3ef9181900360200190a35050565b6001600160a01b03811661544a5760405162461bcd60e51b81526004018080602001828103825260268152602001806155e76026913960400191505060405180910390fd5b600080546040516001600160a01b03808516939216917f8be0079c531659141344cd1fd0a4f28419497f9722a3daafe3b4186f6b6457e091a3600080546001600160a01b0319166001600160a01b0392909216919091179055565b600081836154f45760405162461bcd60e51b815260206004820181815283516024840152835190928392604490910191908501908083836000831561519257818101518382015260200161517a565b50600083858161550057fe5b0495945050505050565b828054600181600116156101000203166002900490600052602060002090601f016020900481019282601f1061554b57805160ff1916838001178555615578565b82800160010185558215615578579182015b8281111561557857825182559160200191906001019061555d565b50615584929150615588565b5090565b5b80821115615584576000815560010161558956fe42455032303a207472616e736665722066726f6d20746865207a65726f206164647265737342455032303a20617070726f76652066726f6d20746865207a65726f20616464726573734f776e61626c653a206e6577206f776e657220697320746865207a65726f2061646472657373424153455f4f55545055545f4849474845525f43555252454e545f54524144455f42414c414e4345544f4b454e5f4f55545055545f4849474845525f43555252454e545f54524144455f42414c414e434542455032303a207472616e7366657220616d6f756e74206578636565647320616c6c6f77616e6365544f4b454e5f4f55545055545f4849474845525f504f4f4c5f544f4b454e5f42414c414e43454d494e5f544f4b454e5f4849474845525f504f4f4c5f544f4b454e5f42414c414e43454d494e5f424153455f4f55545055545f4849474845525f504f4f4c5f424153455f42414c414e4345536166654d6174683a206d756c7469706c69636174696f6e206f766572666c6f774f776e61626c653a2063616c6c6572206973206e6f7420746865206f776e657242455032303a207472616e7366657220616d6f756e7420657863656564732062616c616e636542455032303a207472616e7366657220746f20746865207a65726f206164647265737342455032303a2064656372656173656420616c6c6f77616e63652062656c6f77207a65726f42455032303a206275726e2066726f6d20746865207a65726f2061646472657373424153455f4f55545055545f4849474845525f504f4f4c5f424153455f42414c414e434542455032303a206275726e20616d6f756e7420657863656564732062616c616e6365544f4b454e5f4f55545055545f4849474845525f544f4b454e5f42414c414e434542455032303a20617070726f766520746f20746865207a65726f2061646472657373a2646970667358221220413c4a0e0541e8d0c2bf5ca7fc4f9b228463983305630e672681b3b75eac5e8264736f6c634300060c0033",
			"opcodes": "PUSH1 0x80 PUSH1 0x40 MSTORE PUSH1 0x7 DUP1 SLOAD PUSH1 0xFF NOT AND SWAP1 SSTORE PUSH1 0x2 PUSH1 0xD SSTORE CALLVALUE DUP1 ISZERO PUSH3 0x20 JUMPI PUSH1 0x0 DUP1 REVERT JUMPDEST POP PUSH1 0x40 MLOAD PUSH3 0x5D09 CODESIZE SUB DUP1 PUSH3 0x5D09 DUP4 CODECOPY DUP2 DUP2 ADD PUSH1 0x40 MSTORE PUSH2 0x120 DUP2 LT ISZERO PUSH3 0x47 JUMPI PUSH1 0x0 DUP1 REVERT JUMPDEST DUP2 MLOAD PUSH1 0x20 DUP4 ADD MLOAD PUSH1 0x40 DUP1 DUP6 ADD MLOAD PUSH1 0x60 DUP7 ADD MLOAD PUSH1 0x80 DUP8 ADD MLOAD PUSH1 0xA0 DUP9 ADD MLOAD PUSH1 0xC0 DUP10 ADD DUP1 MLOAD SWAP6 MLOAD SWAP8 SWAP10 SWAP7 SWAP9 SWAP5 SWAP8 SWAP4 SWAP7 SWAP3 SWAP6 SWAP2 SWAP5 DUP4 ADD SWAP3 SWAP2 DUP5 PUSH5 0x100000000 DUP3 GT ISZERO PUSH3 0x8F JUMPI PUSH1 0x0 DUP1 REVERT JUMPDEST SWAP1 DUP4 ADD SWAP1 PUSH1 0x20 DUP3 ADD DUP6 DUP2 GT ISZERO PUSH3 0xA5 JUMPI PUSH1 0x0 DUP1 REVERT JUMPDEST DUP3 MLOAD PUSH5 0x100000000 DUP2 GT DUP3 DUP3 ADD DUP9 LT OR ISZERO PUSH3 0xC0 JUMPI PUSH1 0x0 DUP1 REVERT JUMPDEST DUP3 MSTORE POP DUP2 MLOAD PUSH1 0x20 SWAP2 DUP3 ADD SWAP3 SWAP1 SWAP2 ADD SWAP1 DUP1 DUP4 DUP4 PUSH1 0x0 JUMPDEST DUP4 DUP2 LT ISZERO PUSH3 0xEF JUMPI DUP2 DUP2 ADD MLOAD DUP4 DUP3 ADD MSTORE PUSH1 0x20 ADD PUSH3 0xD5 JUMP JUMPDEST POP POP POP POP SWAP1 POP SWAP1 DUP2 ADD SWAP1 PUSH1 0x1F AND DUP1 ISZERO PUSH3 0x11D JUMPI DUP1 DUP3 SUB DUP1 MLOAD PUSH1 0x1 DUP4 PUSH1 0x20 SUB PUSH2 0x100 EXP SUB NOT AND DUP2 MSTORE PUSH1 0x20 ADD SWAP2 POP JUMPDEST POP PUSH1 0x40 MSTORE PUSH1 0x20 ADD DUP1 MLOAD PUSH1 0x40 MLOAD SWAP4 SWAP3 SWAP2 SWAP1 DUP5 PUSH5 0x100000000 DUP3 GT ISZERO PUSH3 0x141 JUMPI PUSH1 0x0 DUP1 REVERT JUMPDEST SWAP1 DUP4 ADD SWAP1 PUSH1 0x20 DUP3 ADD DUP6 DUP2 GT ISZERO PUSH3 0x157 JUMPI PUSH1 0x0 DUP1 REVERT JUMPDEST DUP3 MLOAD PUSH5 0x100000000 DUP2 GT DUP3 DUP3 ADD DUP9 LT OR ISZERO PUSH3 0x172 JUMPI PUSH1 0x0 DUP1 REVERT JUMPDEST DUP3 MSTORE POP DUP2 MLOAD PUSH1 0x20 SWAP2 DUP3 ADD SWAP3 SWAP1 SWAP2 ADD SWAP1 DUP1 DUP4 DUP4 PUSH1 0x0 JUMPDEST DUP4 DUP2 LT ISZERO PUSH3 0x1A1 JUMPI DUP2 DUP2 ADD MLOAD DUP4 DUP3 ADD MSTORE PUSH1 0x20 ADD PUSH3 0x187 JUMP JUMPDEST POP POP POP POP SWAP1 POP SWAP1 DUP2 ADD SWAP1 PUSH1 0x1F AND DUP1 ISZERO PUSH3 0x1CF JUMPI DUP1 DUP3 SUB DUP1 MLOAD PUSH1 0x1 DUP4 PUSH1 0x20 SUB PUSH2 0x100 EXP SUB NOT AND DUP2 MSTORE PUSH1 0x20 ADD SWAP2 POP JUMPDEST POP PUSH1 0x40 MSTORE PUSH1 0x20 ADD MLOAD SWAP2 POP PUSH1 0x0 SWAP1 POP PUSH3 0x1E7 PUSH3 0x2CE JUMP JUMPDEST PUSH1 0x0 DUP1 SLOAD PUSH1 0x1 PUSH1 0x1 PUSH1 0xA0 SHL SUB NOT AND PUSH1 0x1 PUSH1 0x1 PUSH1 0xA0 SHL SUB DUP4 AND SWAP1 DUP2 OR DUP3 SSTORE PUSH1 0x40 MLOAD SWAP3 SWAP4 POP SWAP2 PUSH32 0x8BE0079C531659141344CD1FD0A4F28419497F9722A3DAAFE3B4186F6B6457E0 SWAP1 DUP3 SWAP1 LOG3 POP PUSH1 0x7 DUP1 SLOAD PUSH2 0x100 PUSH1 0x1 PUSH1 0xA8 SHL SUB NOT AND PUSH2 0x100 PUSH1 0x1 PUSH1 0x1 PUSH1 0xA0 SHL SUB DUP13 DUP2 AND SWAP2 SWAP1 SWAP2 MUL SWAP2 SWAP1 SWAP2 OR SWAP1 SWAP2 SSTORE PUSH1 0x8 DUP1 SLOAD PUSH1 0x1 PUSH1 0x1 PUSH1 0xA0 SHL SUB NOT SWAP1 DUP2 AND DUP12 DUP5 AND OR SWAP1 SWAP2 SSTORE PUSH1 0xB DUP1 SLOAD DUP3 AND DUP11 DUP5 AND OR SWAP1 SSTORE PUSH1 0xA DUP1 SLOAD DUP3 AND DUP8 DUP5 AND OR SWAP1 SSTORE PUSH1 0x9 DUP1 SLOAD DUP3 AND DUP10 DUP5 AND OR SWAP1 SSTORE PUSH1 0xC DUP1 SLOAD SWAP1 SWAP2 AND SWAP2 DUP8 AND SWAP2 SWAP1 SWAP2 OR SWAP1 SSTORE PUSH3 0x2BF DUP4 DUP4 DUP4 PUSH1 0x0 PUSH3 0x2D2 PUSH1 0x20 SWAP1 DUP2 SHL PUSH3 0x4D2C OR SWAP1 SHR JUMP JUMPDEST POP POP POP POP POP POP POP POP POP PUSH3 0x474 JUMP JUMPDEST CALLER SWAP1 JUMP JUMPDEST PUSH3 0x2DC PUSH3 0x2CE JUMP JUMPDEST PUSH1 0x0 SLOAD PUSH1 0x1 PUSH1 0x1 PUSH1 0xA0 SHL SUB SWAP1 DUP2 AND SWAP2 AND EQ PUSH3 0x33F JUMPI PUSH1 0x40 DUP1 MLOAD PUSH3 0x461BCD PUSH1 0xE5 SHL DUP2 MSTORE PUSH1 0x20 PUSH1 0x4 DUP3 ADD DUP2 SWAP1 MSTORE PUSH1 0x24 DUP3 ADD MSTORE PUSH32 0x4F776E61626C653A2063616C6C6572206973206E6F7420746865206F776E6572 PUSH1 0x44 DUP3 ADD MSTORE SWAP1 MLOAD SWAP1 DUP2 SWAP1 SUB PUSH1 0x64 ADD SWAP1 REVERT JUMPDEST PUSH1 0x7 SLOAD PUSH1 0xFF AND ISZERO PUSH3 0x387 JUMPI PUSH1 0x40 DUP1 MLOAD PUSH3 0x461BCD PUSH1 0xE5 SHL DUP2 MSTORE PUSH1 0x20 PUSH1 0x4 DUP3 ADD MSTORE PUSH1 0xC PUSH1 0x24 DUP3 ADD MSTORE PUSH12 0x1253959053125117D2539255 PUSH1 0xA2 SHL PUSH1 0x44 DUP3 ADD MSTORE SWAP1 MLOAD SWAP1 DUP2 SWAP1 SUB PUSH1 0x64 ADD SWAP1 REVERT JUMPDEST DUP4 MLOAD PUSH3 0x39C SWAP1 PUSH1 0x6 SWAP1 PUSH1 0x20 DUP8 ADD SWAP1 PUSH3 0x3D8 JUMP JUMPDEST POP DUP3 MLOAD PUSH3 0x3B2 SWAP1 PUSH1 0x5 SWAP1 PUSH1 0x20 DUP7 ADD SWAP1 PUSH3 0x3D8 JUMP JUMPDEST POP PUSH1 0x4 DUP1 SLOAD PUSH1 0xFF SWAP1 SWAP4 AND PUSH1 0xFF NOT SWAP4 DUP5 AND OR SWAP1 SSTORE PUSH1 0x3 SSTORE PUSH1 0x7 DUP1 SLOAD SWAP1 SWAP2 AND PUSH1 0x1 OR SWAP1 SSTORE POP POP JUMP JUMPDEST DUP3 DUP1 SLOAD PUSH1 0x1 DUP2 PUSH1 0x1 AND ISZERO PUSH2 0x100 MUL SUB AND PUSH1 0x2 SWAP1 DIV SWAP1 PUSH1 0x0 MSTORE PUSH1 0x20 PUSH1 0x0 KECCAK256 SWAP1 PUSH1 0x1F ADD PUSH1 0x20 SWAP1 DIV DUP2 ADD SWAP3 DUP3 PUSH1 0x1F LT PUSH3 0x41B JUMPI DUP1 MLOAD PUSH1 0xFF NOT AND DUP4 DUP1 ADD OR DUP6 SSTORE PUSH3 0x44B JUMP JUMPDEST DUP3 DUP1 ADD PUSH1 0x1 ADD DUP6 SSTORE DUP3 ISZERO PUSH3 0x44B JUMPI SWAP2 DUP3 ADD JUMPDEST DUP3 DUP2 GT ISZERO PUSH3 0x44B JUMPI DUP3 MLOAD DUP3 SSTORE SWAP2 PUSH1 0x20 ADD SWAP2 SWAP1 PUSH1 0x1 ADD SWAP1 PUSH3 0x42E JUMP JUMPDEST POP PUSH3 0x459 SWAP3 SWAP2 POP PUSH3 0x45D JUMP JUMPDEST POP SWAP1 JUMP JUMPDEST JUMPDEST DUP1 DUP3 GT ISZERO PUSH3 0x459 JUMPI PUSH1 0x0 DUP2 SSTORE PUSH1 0x1 ADD PUSH3 0x45E JUMP JUMPDEST PUSH2 0x5885 DUP1 PUSH3 0x484 PUSH1 0x0 CODECOPY PUSH1 0x0 RETURN INVALID PUSH1 0x80 PUSH1 0x40 MSTORE CALLVALUE DUP1 ISZERO PUSH2 0x10 JUMPI PUSH1 0x0 DUP1 REVERT JUMPDEST POP PUSH1 0x4 CALLDATASIZE LT PUSH2 0x27F JUMPI PUSH1 0x0 CALLDATALOAD PUSH1 0xE0 SHR DUP1 PUSH4 0x84900B04 GT PUSH2 0x15C JUMPI DUP1 PUSH4 0xD0E9DE6C GT PUSH2 0xCE JUMPI DUP1 PUSH4 0xEAD915E3 GT PUSH2 0x87 JUMPI DUP1 PUSH4 0xEAD915E3 EQ PUSH2 0x765 JUMPI DUP1 PUSH4 0xEC022918 EQ PUSH2 0x76D JUMPI DUP1 PUSH4 0xEE39E7A0 EQ PUSH2 0x775 JUMPI DUP1 PUSH4 0xF2FDE38B EQ PUSH2 0x77D JUMPI DUP1 PUSH4 0xFC0C546A EQ PUSH2 0x7A3 JUMPI DUP1 PUSH4 0xFFEA733E EQ PUSH2 0x7AB JUMPI PUSH2 0x27F JUMP JUMPDEST DUP1 PUSH4 0xD0E9DE6C EQ PUSH2 0x6AC JUMPI DUP1 PUSH4 0xD1322962 EQ PUSH2 0x6D5 JUMPI DUP1 PUSH4 0xDA6CA9C9 EQ PUSH2 0x6DD JUMPI DUP1 PUSH4 0xDBCFBF2F EQ PUSH2 0x6E5 JUMPI DUP1 PUSH4 0xDD62ED3E EQ PUSH2 0x70E JUMPI DUP1 PUSH4 0xE50A38D7 EQ PUSH2 0x73C JUMPI PUSH2 0x27F JUMP JUMPDEST DUP1 PUSH4 0x9EB0E965 GT PUSH2 0x120 JUMPI DUP1 PUSH4 0x9EB0E965 EQ PUSH2 0x5FE JUMPI DUP1 PUSH4 0xA457C2D7 EQ PUSH2 0x606 JUMPI DUP1 PUSH4 0xA58D3D31 EQ PUSH2 0x632 JUMPI DUP1 PUSH4 0xA9059CBB EQ PUSH2 0x63A JUMPI DUP1 PUSH4 0xB7C3BA45 EQ PUSH2 0x666 JUMPI DUP1 PUSH4 0xC6E842FC EQ PUSH2 0x68F JUMPI PUSH2 0x27F JUMP JUMPDEST DUP1 PUSH4 0x84900B04 EQ PUSH2 0x5B5 JUMPI DUP1 PUSH4 0x893D20E8 EQ PUSH2 0x5BD JUMPI DUP1 PUSH4 0x8DA5CB5B EQ PUSH2 0x5C5 JUMPI DUP1 PUSH4 0x95D89B41 EQ PUSH2 0x5CD JUMPI DUP1 PUSH4 0x97BB21C6 EQ PUSH2 0x5D5 JUMPI PUSH2 0x27F JUMP JUMPDEST DUP1 PUSH4 0x42A6AE57 GT PUSH2 0x1F5 JUMPI DUP1 PUSH4 0x6662D177 GT PUSH2 0x1B9 JUMPI DUP1 PUSH4 0x6662D177 EQ PUSH2 0x4DC JUMPI DUP1 PUSH4 0x70A08231 EQ PUSH2 0x512 JUMPI DUP1 PUSH4 0x711F6142 EQ PUSH2 0x538 JUMPI DUP1 PUSH4 0x715018A6 EQ PUSH2 0x555 JUMPI DUP1 PUSH4 0x73DD25A3 EQ PUSH2 0x55D JUMPI DUP1 PUSH4 0x76125DEB EQ PUSH2 0x586 JUMPI PUSH2 0x27F JUMP JUMPDEST DUP1 PUSH4 0x42A6AE57 EQ PUSH2 0x45C JUMPI DUP1 PUSH4 0x42EBA2CE EQ PUSH2 0x464 JUMPI DUP1 PUSH4 0x5001F3B5 EQ PUSH2 0x488 JUMPI DUP1 PUSH4 0x60B1765C EQ PUSH2 0x490 JUMPI DUP1 PUSH4 0x635F95FF EQ PUSH2 0x4BF JUMPI PUSH2 0x27F JUMP JUMPDEST DUP1 PUSH4 0x158EF93E GT PUSH2 0x247 JUMPI DUP1 PUSH4 0x158EF93E EQ PUSH2 0x3A3 JUMPI DUP1 PUSH4 0x18160DDD EQ PUSH2 0x3AB JUMPI DUP1 PUSH4 0x23B872DD EQ PUSH2 0x3B3 JUMPI DUP1 PUSH4 0x2916BC10 EQ PUSH2 0x3E9 JUMPI DUP1 PUSH4 0x313CE567 EQ PUSH2 0x412 JUMPI DUP1 PUSH4 0x39509351 EQ PUSH2 0x430 JUMPI PUSH2 0x27F JUMP JUMPDEST DUP1 PUSH4 0x3BF04C1 EQ PUSH2 0x284 JUMPI DUP1 PUSH4 0x6FDDE03 EQ PUSH2 0x2AF JUMPI DUP1 PUSH4 0x95EA7B3 EQ PUSH2 0x32C JUMPI DUP1 PUSH4 0x11FBDED3 EQ PUSH2 0x36C JUMPI DUP1 PUSH4 0x1279732C EQ PUSH2 0x39B JUMPI JUMPDEST PUSH1 0x0 DUP1 REVERT JUMPDEST PUSH2 0x2AD PUSH1 0x4 DUP1 CALLDATASIZE SUB PUSH1 0x60 DUP2 LT ISZERO PUSH2 0x29A JUMPI PUSH1 0x0 DUP1 REVERT JUMPDEST POP DUP1 CALLDATALOAD SWAP1 PUSH1 0x20 DUP2 ADD CALLDATALOAD SWAP1 PUSH1 0x40 ADD CALLDATALOAD PUSH2 0x8E0 JUMP JUMPDEST STOP JUMPDEST PUSH2 0x2B7 PUSH2 0xF7D JUMP JUMPDEST PUSH1 0x40 DUP1 MLOAD PUSH1 0x20 DUP1 DUP3 MSTORE DUP4 MLOAD DUP2 DUP4 ADD MSTORE DUP4 MLOAD SWAP2 SWAP3 DUP4 SWAP3 SWAP1 DUP4 ADD SWAP2 DUP6 ADD SWAP1 DUP1 DUP4 DUP4 PUSH1 0x0 JUMPDEST DUP4 DUP2 LT ISZERO PUSH2 0x2F1 JUMPI DUP2 DUP2 ADD MLOAD DUP4 DUP3 ADD MSTORE PUSH1 0x20 ADD PUSH2 0x2D9 JUMP JUMPDEST POP POP POP POP SWAP1 POP SWAP1 DUP2 ADD SWAP1 PUSH1 0x1F AND DUP1 ISZERO PUSH2 0x31E JUMPI DUP1 DUP3 SUB DUP1 MLOAD PUSH1 0x1 DUP4 PUSH1 0x20 SUB PUSH2 0x100 EXP SUB NOT AND DUP2 MSTORE PUSH1 0x20 ADD SWAP2 POP JUMPDEST POP SWAP3 POP POP POP PUSH1 0x40 MLOAD DUP1 SWAP2 SUB SWAP1 RETURN JUMPDEST PUSH2 0x358 PUSH1 0x4 DUP1 CALLDATASIZE SUB PUSH1 0x40 DUP2 LT ISZERO PUSH2 0x342 JUMPI PUSH1 0x0 DUP1 REVERT JUMPDEST POP PUSH1 0x1 PUSH1 0x1 PUSH1 0xA0 SHL SUB DUP2 CALLDATALOAD AND SWAP1 PUSH1 0x20 ADD CALLDATALOAD PUSH2 0x1013 JUMP JUMPDEST PUSH1 0x40 DUP1 MLOAD SWAP2 ISZERO ISZERO DUP3 MSTORE MLOAD SWAP1 DUP2 SWAP1 SUB PUSH1 0x20 ADD SWAP1 RETURN JUMPDEST PUSH2 0x389 PUSH1 0x4 DUP1 CALLDATASIZE SUB PUSH1 0x20 DUP2 LT ISZERO PUSH2 0x382 JUMPI PUSH1 0x0 DUP1 REVERT JUMPDEST POP CALLDATALOAD PUSH2 0x1031 JUMP JUMPDEST PUSH1 0x40 DUP1 MLOAD SWAP2 DUP3 MSTORE MLOAD SWAP1 DUP2 SWAP1 SUB PUSH1 0x20 ADD SWAP1 RETURN JUMPDEST PUSH2 0x2AD PUSH2 0x1083 JUMP JUMPDEST PUSH2 0x358 PUSH2 0x13A5 JUMP JUMPDEST PUSH2 0x389 PUSH2 0x13AE JUMP JUMPDEST PUSH2 0x358 PUSH1 0x4 DUP1 CALLDATASIZE SUB PUSH1 0x60 DUP2 LT ISZERO PUSH2 0x3C9 JUMPI PUSH1 0x0 DUP1 REVERT JUMPDEST POP PUSH1 0x1 PUSH1 0x1 PUSH1 0xA0 SHL SUB DUP2 CALLDATALOAD DUP2 AND SWAP2 PUSH1 0x20 DUP2 ADD CALLDATALOAD SWAP1 SWAP2 AND SWAP1 PUSH1 0x40 ADD CALLDATALOAD PUSH2 0x13B4 JUMP JUMPDEST PUSH2 0x389 PUSH1 0x4 DUP1 CALLDATASIZE SUB PUSH1 0x60 DUP2 LT ISZERO PUSH2 0x3FF JUMPI PUSH1 0x0 DUP1 REVERT JUMPDEST POP DUP1 CALLDATALOAD SWAP1 PUSH1 0x20 DUP2 ADD CALLDATALOAD SWAP1 PUSH1 0x40 ADD CALLDATALOAD PUSH2 0x143B JUMP JUMPDEST PUSH2 0x41A PUSH2 0x14BF JUMP JUMPDEST PUSH1 0x40 DUP1 MLOAD PUSH1 0xFF SWAP1 SWAP3 AND DUP3 MSTORE MLOAD SWAP1 DUP2 SWAP1 SUB PUSH1 0x20 ADD SWAP1 RETURN JUMPDEST PUSH2 0x358 PUSH1 0x4 DUP1 CALLDATASIZE SUB PUSH1 0x40 DUP2 LT ISZERO PUSH2 0x446 JUMPI PUSH1 0x0 DUP1 REVERT JUMPDEST POP PUSH1 0x1 PUSH1 0x1 PUSH1 0xA0 SHL SUB DUP2 CALLDATALOAD AND SWAP1 PUSH1 0x20 ADD CALLDATALOAD PUSH2 0x14C8 JUMP JUMPDEST PUSH2 0x2AD PUSH2 0x1516 JUMP JUMPDEST PUSH2 0x46C PUSH2 0x188F JUMP JUMPDEST PUSH1 0x40 DUP1 MLOAD PUSH1 0x1 PUSH1 0x1 PUSH1 0xA0 SHL SUB SWAP1 SWAP3 AND DUP3 MSTORE MLOAD SWAP1 DUP2 SWAP1 SUB PUSH1 0x20 ADD SWAP1 RETURN JUMPDEST PUSH2 0x46C PUSH2 0x189E JUMP JUMPDEST PUSH2 0x389 PUSH1 0x4 DUP1 CALLDATASIZE SUB PUSH1 0x80 DUP2 LT ISZERO PUSH2 0x4A6 JUMPI PUSH1 0x0 DUP1 REVERT JUMPDEST POP DUP1 CALLDATALOAD SWAP1 PUSH1 0x20 DUP2 ADD CALLDATALOAD SWAP1 PUSH1 0x40 DUP2 ADD CALLDATALOAD SWAP1 PUSH1 0x60 ADD CALLDATALOAD PUSH2 0x18B2 JUMP JUMPDEST PUSH2 0x389 PUSH1 0x4 DUP1 CALLDATASIZE SUB PUSH1 0x20 DUP2 LT ISZERO PUSH2 0x4D5 JUMPI PUSH1 0x0 DUP1 REVERT JUMPDEST POP CALLDATALOAD PUSH2 0x20F9 JUMP JUMPDEST PUSH2 0x4F9 PUSH1 0x4 DUP1 CALLDATASIZE SUB PUSH1 0x20 DUP2 LT ISZERO PUSH2 0x4F2 JUMPI PUSH1 0x0 DUP1 REVERT JUMPDEST POP CALLDATALOAD PUSH2 0x2140 JUMP JUMPDEST PUSH1 0x40 DUP1 MLOAD SWAP3 DUP4 MSTORE PUSH1 0x20 DUP4 ADD SWAP2 SWAP1 SWAP2 MSTORE DUP1 MLOAD SWAP2 DUP3 SWAP1 SUB ADD SWAP1 RETURN JUMPDEST PUSH2 0x389 PUSH1 0x4 DUP1 CALLDATASIZE SUB PUSH1 0x20 DUP2 LT ISZERO PUSH2 0x528 JUMPI PUSH1 0x0 DUP1 REVERT JUMPDEST POP CALLDATALOAD PUSH1 0x1 PUSH1 0x1 PUSH1 0xA0 SHL SUB AND PUSH2 0x21A6 JUMP JUMPDEST PUSH2 0x4F9 PUSH1 0x4 DUP1 CALLDATASIZE SUB PUSH1 0x20 DUP2 LT ISZERO PUSH2 0x54E JUMPI PUSH1 0x0 DUP1 REVERT JUMPDEST POP CALLDATALOAD PUSH2 0x21C1 JUMP JUMPDEST PUSH2 0x2AD PUSH2 0x221D JUMP JUMPDEST PUSH2 0x2AD PUSH1 0x4 DUP1 CALLDATASIZE SUB PUSH1 0x60 DUP2 LT ISZERO PUSH2 0x573 JUMPI PUSH1 0x0 DUP1 REVERT JUMPDEST POP DUP1 CALLDATALOAD SWAP1 PUSH1 0x20 DUP2 ADD CALLDATALOAD SWAP1 PUSH1 0x40 ADD CALLDATALOAD PUSH2 0x22BF JUMP JUMPDEST PUSH2 0x4F9 PUSH1 0x4 DUP1 CALLDATASIZE SUB PUSH1 0x80 DUP2 LT ISZERO PUSH2 0x59C JUMPI PUSH1 0x0 DUP1 REVERT JUMPDEST POP DUP1 CALLDATALOAD SWAP1 PUSH1 0x20 DUP2 ADD CALLDATALOAD SWAP1 PUSH1 0x40 DUP2 ADD CALLDATALOAD SWAP1 PUSH1 0x60 ADD CALLDATALOAD PUSH2 0x2960 JUMP JUMPDEST PUSH2 0x46C PUSH2 0x3134 JUMP JUMPDEST PUSH2 0x46C PUSH2 0x3143 JUMP JUMPDEST PUSH2 0x46C PUSH2 0x3152 JUMP JUMPDEST PUSH2 0x2B7 PUSH2 0x3161 JUMP JUMPDEST PUSH2 0x389 PUSH1 0x4 DUP1 CALLDATASIZE SUB PUSH1 0x60 DUP2 LT ISZERO PUSH2 0x5EB JUMPI PUSH1 0x0 DUP1 REVERT JUMPDEST POP DUP1 CALLDATALOAD SWAP1 PUSH1 0x20 DUP2 ADD CALLDATALOAD SWAP1 PUSH1 0x40 ADD CALLDATALOAD PUSH2 0x31C2 JUMP JUMPDEST PUSH2 0x46C PUSH2 0x3240 JUMP JUMPDEST PUSH2 0x358 PUSH1 0x4 DUP1 CALLDATASIZE SUB PUSH1 0x40 DUP2 LT ISZERO PUSH2 0x61C JUMPI PUSH1 0x0 DUP1 REVERT JUMPDEST POP PUSH1 0x1 PUSH1 0x1 PUSH1 0xA0 SHL SUB DUP2 CALLDATALOAD AND SWAP1 PUSH1 0x20 ADD CALLDATALOAD PUSH2 0x324F JUMP JUMPDEST PUSH2 0x2AD PUSH2 0x32B7 JUMP JUMPDEST PUSH2 0x358 PUSH1 0x4 DUP1 CALLDATASIZE SUB PUSH1 0x40 DUP2 LT ISZERO PUSH2 0x650 JUMPI PUSH1 0x0 DUP1 REVERT JUMPDEST POP PUSH1 0x1 PUSH1 0x1 PUSH1 0xA0 SHL SUB DUP2 CALLDATALOAD AND SWAP1 PUSH1 0x20 ADD CALLDATALOAD PUSH2 0x3846 JUMP JUMPDEST PUSH2 0x389 PUSH1 0x4 DUP1 CALLDATASIZE SUB PUSH1 0x60 DUP2 LT ISZERO PUSH2 0x67C JUMPI PUSH1 0x0 DUP1 REVERT JUMPDEST POP DUP1 CALLDATALOAD SWAP1 PUSH1 0x20 DUP2 ADD CALLDATALOAD SWAP1 PUSH1 0x40 ADD CALLDATALOAD PUSH2 0x385A JUMP JUMPDEST PUSH2 0x4F9 PUSH1 0x4 DUP1 CALLDATASIZE SUB PUSH1 0x20 DUP2 LT ISZERO PUSH2 0x6A5 JUMPI PUSH1 0x0 DUP1 REVERT JUMPDEST POP CALLDATALOAD PUSH2 0x38D8 JUMP JUMPDEST PUSH2 0x2AD PUSH1 0x4 DUP1 CALLDATASIZE SUB PUSH1 0x60 DUP2 LT ISZERO PUSH2 0x6C2 JUMPI PUSH1 0x0 DUP1 REVERT JUMPDEST POP DUP1 CALLDATALOAD SWAP1 PUSH1 0x20 DUP2 ADD CALLDATALOAD SWAP1 PUSH1 0x40 ADD CALLDATALOAD PUSH2 0x3935 JUMP JUMPDEST PUSH2 0x389 PUSH2 0x3FE0 JUMP JUMPDEST PUSH2 0x46C PUSH2 0x3FE6 JUMP JUMPDEST PUSH2 0x389 PUSH1 0x4 DUP1 CALLDATASIZE SUB PUSH1 0x60 DUP2 LT ISZERO PUSH2 0x6FB JUMPI PUSH1 0x0 DUP1 REVERT JUMPDEST POP DUP1 CALLDATALOAD SWAP1 PUSH1 0x20 DUP2 ADD CALLDATALOAD SWAP1 PUSH1 0x40 ADD CALLDATALOAD PUSH2 0x3FF5 JUMP JUMPDEST PUSH2 0x389 PUSH1 0x4 DUP1 CALLDATASIZE SUB PUSH1 0x40 DUP2 LT ISZERO PUSH2 0x724 JUMPI PUSH1 0x0 DUP1 REVERT JUMPDEST POP PUSH1 0x1 PUSH1 0x1 PUSH1 0xA0 SHL SUB DUP2 CALLDATALOAD DUP2 AND SWAP2 PUSH1 0x20 ADD CALLDATALOAD AND PUSH2 0x4079 JUMP JUMPDEST PUSH2 0x2AD PUSH1 0x4 DUP1 CALLDATASIZE SUB PUSH1 0x60 DUP2 LT ISZERO PUSH2 0x752 JUMPI PUSH1 0x0 DUP1 REVERT JUMPDEST POP DUP1 CALLDATALOAD SWAP1 PUSH1 0x20 DUP2 ADD CALLDATALOAD SWAP1 PUSH1 0x40 ADD CALLDATALOAD PUSH2 0x40A4 JUMP JUMPDEST PUSH2 0x2AD PUSH2 0x4746 JUMP JUMPDEST PUSH2 0x4F9 PUSH2 0x4AE6 JUMP JUMPDEST PUSH2 0x389 PUSH2 0x4C94 JUMP JUMPDEST PUSH2 0x2AD PUSH1 0x4 DUP1 CALLDATASIZE SUB PUSH1 0x20 DUP2 LT ISZERO PUSH2 0x793 JUMPI PUSH1 0x0 DUP1 REVERT JUMPDEST POP CALLDATALOAD PUSH1 0x1 PUSH1 0x1 PUSH1 0xA0 SHL SUB AND PUSH2 0x4CB9 JUMP JUMPDEST PUSH2 0x46C PUSH2 0x4D1D JUMP JUMPDEST PUSH2 0x2AD PUSH1 0x4 DUP1 CALLDATASIZE SUB PUSH1 0x80 DUP2 LT ISZERO PUSH2 0x7C1 JUMPI PUSH1 0x0 DUP1 REVERT JUMPDEST DUP2 ADD SWAP1 PUSH1 0x20 DUP2 ADD DUP2 CALLDATALOAD PUSH5 0x100000000 DUP2 GT ISZERO PUSH2 0x7DC JUMPI PUSH1 0x0 DUP1 REVERT JUMPDEST DUP3 ADD DUP4 PUSH1 0x20 DUP3 ADD GT ISZERO PUSH2 0x7EE JUMPI PUSH1 0x0 DUP1 REVERT JUMPDEST DUP1 CALLDATALOAD SWAP1 PUSH1 0x20 ADD SWAP2 DUP5 PUSH1 0x1 DUP4 MUL DUP5 ADD GT PUSH5 0x100000000 DUP4 GT OR ISZERO PUSH2 0x810 JUMPI PUSH1 0x0 DUP1 REVERT JUMPDEST SWAP2 SWAP1 DUP1 DUP1 PUSH1 0x1F ADD PUSH1 0x20 DUP1 SWAP2 DIV MUL PUSH1 0x20 ADD PUSH1 0x40 MLOAD SWAP1 DUP2 ADD PUSH1 0x40 MSTORE DUP1 SWAP4 SWAP3 SWAP2 SWAP1 DUP2 DUP2 MSTORE PUSH1 0x20 ADD DUP4 DUP4 DUP1 DUP3 DUP5 CALLDATACOPY PUSH1 0x0 SWAP3 ADD SWAP2 SWAP1 SWAP2 MSTORE POP SWAP3 SWAP6 SWAP5 SWAP4 PUSH1 0x20 DUP2 ADD SWAP4 POP CALLDATALOAD SWAP2 POP POP PUSH5 0x100000000 DUP2 GT ISZERO PUSH2 0x863 JUMPI PUSH1 0x0 DUP1 REVERT JUMPDEST DUP3 ADD DUP4 PUSH1 0x20 DUP3 ADD GT ISZERO PUSH2 0x875 JUMPI PUSH1 0x0 DUP1 REVERT JUMPDEST DUP1 CALLDATALOAD SWAP1 PUSH1 0x20 ADD SWAP2 DUP5 PUSH1 0x1 DUP4 MUL DUP5 ADD GT PUSH5 0x100000000 DUP4 GT OR ISZERO PUSH2 0x897 JUMPI PUSH1 0x0 DUP1 REVERT JUMPDEST SWAP2 SWAP1 DUP1 DUP1 PUSH1 0x1F ADD PUSH1 0x20 DUP1 SWAP2 DIV MUL PUSH1 0x20 ADD PUSH1 0x40 MLOAD SWAP1 DUP2 ADD PUSH1 0x40 MSTORE DUP1 SWAP4 SWAP3 SWAP2 SWAP1 DUP2 DUP2 MSTORE PUSH1 0x20 ADD DUP4 DUP4 DUP1 DUP3 DUP5 CALLDATACOPY PUSH1 0x0 SWAP3 ADD SWAP2 SWAP1 SWAP2 MSTORE POP SWAP3 SWAP6 POP POP PUSH1 0xFF DUP4 CALLDATALOAD AND SWAP4 POP POP POP PUSH1 0x20 ADD CALLDATALOAD PUSH2 0x4D2C JUMP JUMPDEST CALLER ORIGIN EQ PUSH2 0x9A8 JUMPI PUSH1 0xA SLOAD PUSH1 0x40 DUP1 MLOAD PUSH4 0x6C9B2A3F PUSH1 0xE1 SHL DUP2 MSTORE CALLER PUSH1 0x4 DUP3 ADD MSTORE SWAP1 MLOAD PUSH1 0x1 PUSH1 0x1 PUSH1 0xA0 SHL SUB SWAP1 SWAP3 AND SWAP2 PUSH4 0xD936547E SWAP2 PUSH1 0x24 DUP1 DUP3 ADD SWAP3 PUSH1 0x20 SWAP3 SWAP1 SWAP2 SWAP1 DUP3 SWAP1 SUB ADD DUP2 DUP7 DUP1 EXTCODESIZE ISZERO DUP1 ISZERO PUSH2 0x932 JUMPI PUSH1 0x0 DUP1 REVERT JUMPDEST POP GAS STATICCALL ISZERO DUP1 ISZERO PUSH2 0x946 JUMPI RETURNDATASIZE PUSH1 0x0 DUP1 RETURNDATACOPY RETURNDATASIZE PUSH1 0x0 REVERT JUMPDEST POP POP POP POP PUSH1 0x40 MLOAD RETURNDATASIZE PUSH1 0x20 DUP2 LT ISZERO PUSH2 0x95C JUMPI PUSH1 0x0 DUP1 REVERT JUMPDEST POP MLOAD ISZERO ISZERO PUSH1 0x1 EQ PUSH2 0x9A8 JUMPI PUSH1 0x40 DUP1 MLOAD PUSH3 0x461BCD PUSH1 0xE5 SHL DUP2 MSTORE PUSH1 0x20 PUSH1 0x4 DUP3 ADD MSTORE PUSH1 0x11 PUSH1 0x24 DUP3 ADD MSTORE PUSH17 0x1253959053125117D5D2125511531254D5 PUSH1 0x7A SHL PUSH1 0x44 DUP3 ADD MSTORE SWAP1 MLOAD SWAP1 DUP2 SWAP1 SUB PUSH1 0x64 ADD SWAP1 REVERT JUMPDEST TIMESTAMP DUP2 LT ISZERO PUSH2 0x9F0 JUMPI PUSH1 0x40 DUP1 MLOAD PUSH3 0x461BCD PUSH1 0xE5 SHL DUP2 MSTORE PUSH1 0x20 PUSH1 0x4 DUP3 ADD MSTORE PUSH1 0x10 PUSH1 0x24 DUP3 ADD MSTORE PUSH16 0x494E56414C49445F444541444C494E45 PUSH1 0x80 SHL PUSH1 0x44 DUP3 ADD MSTORE SWAP1 MLOAD SWAP1 DUP2 SWAP1 SUB PUSH1 0x64 ADD SWAP1 REVERT JUMPDEST PUSH1 0x0 DUP3 GT PUSH2 0xA3F JUMPI PUSH1 0x40 DUP1 MLOAD PUSH3 0x461BCD PUSH1 0xE5 SHL DUP2 MSTORE PUSH1 0x20 PUSH1 0x4 DUP3 ADD MSTORE PUSH1 0x17 PUSH1 0x24 DUP3 ADD MSTORE PUSH23 0x1253959053125117D3525397D09054D157D3D555141555 PUSH1 0x4A SHL PUSH1 0x44 DUP3 ADD MSTORE SWAP1 MLOAD SWAP1 DUP2 SWAP1 SUB PUSH1 0x64 ADD SWAP1 REVERT JUMPDEST PUSH1 0x0 DUP4 GT PUSH2 0xA8A JUMPI PUSH1 0x40 DUP1 MLOAD PUSH3 0x461BCD PUSH1 0xE5 SHL DUP2 MSTORE PUSH1 0x20 PUSH1 0x4 DUP3 ADD MSTORE PUSH1 0x13 PUSH1 0x24 DUP3 ADD MSTORE PUSH19 0x1253959053125117D513D2D15397D253941555 PUSH1 0x6A SHL PUSH1 0x44 DUP3 ADD MSTORE SWAP1 MLOAD SWAP1 DUP2 SWAP1 SUB PUSH1 0x64 ADD SWAP1 REVERT JUMPDEST PUSH1 0x8 SLOAD PUSH1 0x40 DUP1 MLOAD PUSH4 0x70A08231 PUSH1 0xE0 SHL DUP2 MSTORE CALLER PUSH1 0x4 DUP3 ADD MSTORE SWAP1 MLOAD PUSH1 0x1 PUSH1 0x1 PUSH1 0xA0 SHL SUB SWAP1 SWAP3 AND SWAP2 PUSH4 0x70A08231 SWAP2 PUSH1 0x24 DUP1 DUP3 ADD SWAP3 PUSH1 0x20 SWAP3 SWAP1 SWAP2 SWAP1 DUP3 SWAP1 SUB ADD DUP2 DUP7 DUP1 EXTCODESIZE ISZERO DUP1 ISZERO PUSH2 0xAD5 JUMPI PUSH1 0x0 DUP1 REVERT JUMPDEST POP GAS STATICCALL ISZERO DUP1 ISZERO PUSH2 0xAE9 JUMPI RETURNDATASIZE PUSH1 0x0 DUP1 RETURNDATACOPY RETURNDATASIZE PUSH1 0x0 REVERT JUMPDEST POP POP POP POP PUSH1 0x40 MLOAD RETURNDATASIZE PUSH1 0x20 DUP2 LT ISZERO PUSH2 0xAFF JUMPI PUSH1 0x0 DUP1 REVERT JUMPDEST POP MLOAD DUP4 GT ISZERO PUSH2 0xB55 JUMPI PUSH1 0x40 DUP1 MLOAD PUSH3 0x461BCD PUSH1 0xE5 SHL DUP2 MSTORE PUSH1 0x20 PUSH1 0x4 DUP3 ADD MSTORE PUSH1 0x1F PUSH1 0x24 DUP3 ADD MSTORE PUSH32 0x544F4B454E5F494E5055545F4849474845525F555345525F42414C414E434500 PUSH1 0x44 DUP3 ADD MSTORE SWAP1 MLOAD SWAP1 DUP2 SWAP1 SUB PUSH1 0x64 ADD SWAP1 REVERT JUMPDEST PUSH1 0x0 DUP1 PUSH2 0xB60 PUSH2 0x4AE6 JUMP JUMPDEST SWAP1 SWAP3 POP SWAP1 POP DUP2 DUP5 LT PUSH2 0xBA3 JUMPI PUSH1 0x40 MLOAD PUSH3 0x461BCD PUSH1 0xE5 SHL DUP2 MSTORE PUSH1 0x4 ADD DUP1 DUP1 PUSH1 0x20 ADD DUP3 DUP2 SUB DUP3 MSTORE PUSH1 0x28 DUP2 MSTORE PUSH1 0x20 ADD DUP1 PUSH2 0x56CF PUSH1 0x28 SWAP2 CODECOPY PUSH1 0x40 ADD SWAP2 POP POP PUSH1 0x40 MLOAD DUP1 SWAP2 SUB SWAP1 REVERT JUMPDEST PUSH1 0x0 PUSH2 0xBC6 PUSH2 0x3E8 PUSH2 0xBC0 PUSH1 0xD SLOAD DUP10 PUSH2 0x4E18 SWAP1 SWAP2 SWAP1 PUSH4 0xFFFFFFFF AND JUMP JUMPDEST SWAP1 PUSH2 0x4E78 JUMP JUMPDEST SWAP1 POP PUSH1 0x0 PUSH2 0xBD4 DUP8 DUP4 PUSH2 0x4EBA JUMP JUMPDEST SWAP1 POP PUSH1 0x0 PUSH2 0xBE3 DUP3 DUP7 DUP7 PUSH2 0x3FF5 JUMP JUMPDEST SWAP1 POP DUP7 DUP2 LT ISZERO PUSH2 0xC2F JUMPI PUSH1 0x40 DUP1 MLOAD PUSH3 0x461BCD PUSH1 0xE5 SHL DUP2 MSTORE PUSH1 0x20 PUSH1 0x4 DUP3 ADD MSTORE PUSH1 0x12 PUSH1 0x24 DUP3 ADD MSTORE PUSH18 0x43414E5F4E4F545F4D414B455F5452414445 PUSH1 0x70 SHL PUSH1 0x44 DUP3 ADD MSTORE SWAP1 MLOAD SWAP1 DUP2 SWAP1 SUB PUSH1 0x64 ADD SWAP1 REVERT JUMPDEST DUP5 DUP2 LT PUSH2 0xC6D JUMPI PUSH1 0x40 MLOAD PUSH3 0x461BCD PUSH1 0xE5 SHL DUP2 MSTORE PUSH1 0x4 ADD DUP1 DUP1 PUSH1 0x20 ADD DUP3 DUP2 SUB DUP3 MSTORE PUSH1 0x24 DUP2 MSTORE PUSH1 0x20 ADD DUP1 PUSH2 0x57C7 PUSH1 0x24 SWAP2 CODECOPY PUSH1 0x40 ADD SWAP2 POP POP PUSH1 0x40 MLOAD DUP1 SWAP2 SUB SWAP1 REVERT JUMPDEST PUSH1 0x7 SLOAD PUSH1 0x40 DUP1 MLOAD PUSH4 0x70A08231 PUSH1 0xE0 SHL DUP2 MSTORE ADDRESS PUSH1 0x4 DUP3 ADD MSTORE SWAP1 MLOAD PUSH2 0x100 SWAP1 SWAP3 DIV PUSH1 0x1 PUSH1 0x1 PUSH1 0xA0 SHL SUB AND SWAP2 PUSH4 0x70A08231 SWAP2 PUSH1 0x24 DUP1 DUP3 ADD SWAP3 PUSH1 0x20 SWAP3 SWAP1 SWAP2 SWAP1 DUP3 SWAP1 SUB ADD DUP2 DUP7 DUP1 EXTCODESIZE ISZERO DUP1 ISZERO PUSH2 0xCBC JUMPI PUSH1 0x0 DUP1 REVERT JUMPDEST POP GAS STATICCALL ISZERO DUP1 ISZERO PUSH2 0xCD0 JUMPI RETURNDATASIZE PUSH1 0x0 DUP1 RETURNDATACOPY RETURNDATASIZE PUSH1 0x0 REVERT JUMPDEST POP POP POP POP PUSH1 0x40 MLOAD RETURNDATASIZE PUSH1 0x20 DUP2 LT ISZERO PUSH2 0xCE6 JUMPI PUSH1 0x0 DUP1 REVERT JUMPDEST POP MLOAD DUP2 LT PUSH2 0xD25 JUMPI PUSH1 0x40 MLOAD PUSH3 0x461BCD PUSH1 0xE5 SHL DUP2 MSTORE PUSH1 0x4 ADD DUP1 DUP1 PUSH1 0x20 ADD DUP3 DUP2 SUB DUP3 MSTORE PUSH1 0x28 DUP2 MSTORE PUSH1 0x20 ADD DUP1 PUSH2 0x560D PUSH1 0x28 SWAP2 CODECOPY PUSH1 0x40 ADD SWAP2 POP POP PUSH1 0x40 MLOAD DUP1 SWAP2 SUB SWAP1 REVERT JUMPDEST PUSH1 0x8 SLOAD PUSH1 0x40 DUP1 MLOAD PUSH4 0x23B872DD PUSH1 0xE0 SHL DUP2 MSTORE CALLER PUSH1 0x4 DUP3 ADD MSTORE ADDRESS PUSH1 0x24 DUP3 ADD MSTORE PUSH1 0x44 DUP2 ADD DUP12 SWAP1 MSTORE SWAP1 MLOAD PUSH1 0x1 PUSH1 0x1 PUSH1 0xA0 SHL SUB SWAP1 SWAP3 AND SWAP2 PUSH4 0x23B872DD SWAP2 PUSH1 0x64 DUP1 DUP3 ADD SWAP3 PUSH1 0x20 SWAP3 SWAP1 SWAP2 SWAP1 DUP3 SWAP1 SUB ADD DUP2 PUSH1 0x0 DUP8 DUP1 EXTCODESIZE ISZERO DUP1 ISZERO PUSH2 0xD7F JUMPI PUSH1 0x0 DUP1 REVERT JUMPDEST POP GAS CALL ISZERO DUP1 ISZERO PUSH2 0xD93 JUMPI RETURNDATASIZE PUSH1 0x0 DUP1 RETURNDATACOPY RETURNDATASIZE PUSH1 0x0 REVERT JUMPDEST POP POP POP POP PUSH1 0x40 MLOAD RETURNDATASIZE PUSH1 0x20 DUP2 LT ISZERO PUSH2 0xDA9 JUMPI PUSH1 0x0 DUP1 REVERT JUMPDEST POP POP PUSH1 0x7 SLOAD PUSH1 0x40 DUP1 MLOAD PUSH4 0xA9059CBB PUSH1 0xE0 SHL DUP2 MSTORE CALLER PUSH1 0x4 DUP3 ADD MSTORE PUSH1 0x24 DUP2 ADD DUP5 SWAP1 MSTORE SWAP1 MLOAD PUSH2 0x100 SWAP1 SWAP3 DIV PUSH1 0x1 PUSH1 0x1 PUSH1 0xA0 SHL SUB AND SWAP2 PUSH4 0xA9059CBB SWAP2 PUSH1 0x44 DUP1 DUP3 ADD SWAP3 PUSH1 0x20 SWAP3 SWAP1 SWAP2 SWAP1 DUP3 SWAP1 SUB ADD DUP2 PUSH1 0x0 DUP8 DUP1 EXTCODESIZE ISZERO DUP1 ISZERO PUSH2 0xE03 JUMPI PUSH1 0x0 DUP1 REVERT JUMPDEST POP GAS CALL ISZERO DUP1 ISZERO PUSH2 0xE17 JUMPI RETURNDATASIZE PUSH1 0x0 DUP1 RETURNDATACOPY RETURNDATASIZE PUSH1 0x0 REVERT JUMPDEST POP POP POP POP PUSH1 0x40 MLOAD RETURNDATASIZE PUSH1 0x20 DUP2 LT ISZERO PUSH2 0xE2D JUMPI PUSH1 0x0 DUP1 REVERT JUMPDEST POP POP PUSH1 0x8 SLOAD PUSH1 0x9 SLOAD PUSH1 0x40 DUP1 MLOAD PUSH4 0xA9059CBB PUSH1 0xE0 SHL DUP2 MSTORE PUSH1 0x1 PUSH1 0x1 PUSH1 0xA0 SHL SUB SWAP3 DUP4 AND PUSH1 0x4 DUP3 ADD MSTORE PUSH1 0x24 DUP2 ADD DUP8 SWAP1 MSTORE SWAP1 MLOAD SWAP2 SWAP1 SWAP3 AND SWAP2 PUSH4 0xA9059CBB SWAP2 PUSH1 0x44 DUP1 DUP4 ADD SWAP3 PUSH1 0x20 SWAP3 SWAP2 SWAP1 DUP3 SWAP1 SUB ADD DUP2 PUSH1 0x0 DUP8 DUP1 EXTCODESIZE ISZERO DUP1 ISZERO PUSH2 0xE88 JUMPI PUSH1 0x0 DUP1 REVERT JUMPDEST POP GAS CALL ISZERO DUP1 ISZERO PUSH2 0xE9C JUMPI RETURNDATASIZE PUSH1 0x0 DUP1 RETURNDATACOPY RETURNDATASIZE PUSH1 0x0 REVERT JUMPDEST POP POP POP POP PUSH1 0x40 MLOAD RETURNDATASIZE PUSH1 0x20 DUP2 LT ISZERO PUSH2 0xEB2 JUMPI PUSH1 0x0 DUP1 REVERT JUMPDEST POP POP PUSH1 0x9 SLOAD PUSH1 0x8 SLOAD PUSH1 0x40 DUP1 MLOAD PUSH4 0x339DFF23 PUSH1 0xE2 SHL DUP2 MSTORE PUSH1 0x1 PUSH1 0x1 PUSH1 0xA0 SHL SUB SWAP3 DUP4 AND PUSH1 0x4 DUP3 ADD MSTORE SWAP1 MLOAD SWAP2 SWAP1 SWAP3 AND SWAP2 PUSH4 0xCE77FC8C SWAP2 PUSH1 0x24 DUP1 DUP4 ADD SWAP3 PUSH1 0x0 SWAP3 SWAP2 SWAP1 DUP3 SWAP1 SUB ADD DUP2 DUP4 DUP8 DUP1 EXTCODESIZE ISZERO DUP1 ISZERO PUSH2 0xF05 JUMPI PUSH1 0x0 DUP1 REVERT JUMPDEST POP GAS CALL ISZERO DUP1 ISZERO PUSH2 0xF19 JUMPI RETURNDATASIZE PUSH1 0x0 DUP1 RETURNDATACOPY RETURNDATASIZE PUSH1 0x0 REVERT JUMPDEST POP POP PUSH1 0x40 DUP1 MLOAD CALLER DUP2 MSTORE PUSH1 0x20 DUP2 ADD DUP12 SWAP1 MSTORE DUP1 DUP3 ADD DUP13 SWAP1 MSTORE PUSH1 0x60 DUP2 ADD DUP6 SWAP1 MSTORE PUSH1 0x80 DUP2 ADD DUP10 SWAP1 MSTORE PUSH1 0xA0 DUP2 ADD DUP9 SWAP1 MSTORE SWAP1 MLOAD PUSH32 0xB1B8C525A87E01FD3CDA717635C4B24D56DEBA9F9D95C4F650C022BCD0BF8F50 SWAP4 POP SWAP1 DUP2 SWAP1 SUB PUSH1 0xC0 ADD SWAP2 POP LOG1 POP POP POP POP POP POP POP POP JUMP JUMPDEST PUSH1 0x6 DUP1 SLOAD PUSH1 0x40 DUP1 MLOAD PUSH1 0x20 PUSH1 0x1F PUSH1 0x2 PUSH1 0x0 NOT PUSH2 0x100 PUSH1 0x1 DUP9 AND ISZERO MUL ADD SWAP1 SWAP6 AND SWAP5 SWAP1 SWAP5 DIV SWAP4 DUP5 ADD DUP2 SWAP1 DIV DUP2 MUL DUP3 ADD DUP2 ADD SWAP1 SWAP3 MSTORE DUP3 DUP2 MSTORE PUSH1 0x60 SWAP4 SWAP1 SWAP3 SWAP1 SWAP2 DUP4 ADD DUP3 DUP3 DUP1 ISZERO PUSH2 0x1009 JUMPI DUP1 PUSH1 0x1F LT PUSH2 0xFDE JUMPI PUSH2 0x100 DUP1 DUP4 SLOAD DIV MUL DUP4 MSTORE SWAP2 PUSH1 0x20 ADD SWAP2 PUSH2 0x1009 JUMP JUMPDEST DUP3 ADD SWAP2 SWAP1 PUSH1 0x0 MSTORE PUSH1 0x20 PUSH1 0x0 KECCAK256 SWAP1 JUMPDEST DUP2 SLOAD DUP2 MSTORE SWAP1 PUSH1 0x1 ADD SWAP1 PUSH1 0x20 ADD DUP1 DUP4 GT PUSH2 0xFEC JUMPI DUP3 SWAP1 SUB PUSH1 0x1F AND DUP3 ADD SWAP2 JUMPDEST POP POP POP POP POP SWAP1 POP SWAP1 JUMP JUMPDEST PUSH1 0x0 PUSH2 0x1027 PUSH2 0x1020 PUSH2 0x4EFC JUMP JUMPDEST DUP5 DUP5 PUSH2 0x4F00 JUMP JUMPDEST POP PUSH1 0x1 JUMPDEST SWAP3 SWAP2 POP POP JUMP JUMPDEST PUSH1 0x0 DUP1 DUP1 PUSH2 0x103D PUSH2 0x4AE6 JUMP JUMPDEST PUSH1 0xD SLOAD SWAP2 SWAP4 POP SWAP2 POP PUSH1 0x0 SWAP1 PUSH2 0x105B SWAP1 PUSH2 0x3E8 SWAP1 PUSH2 0xBC0 SWAP1 DUP9 SWAP1 PUSH2 0x4E18 JUMP JUMPDEST SWAP1 POP PUSH1 0x0 PUSH2 0x1069 DUP7 DUP4 PUSH2 0x4EBA JUMP JUMPDEST SWAP1 POP PUSH1 0x0 PUSH2 0x1078 DUP3 DUP7 DUP7 PUSH2 0x143B JUMP JUMPDEST SWAP8 SWAP7 POP POP POP POP POP POP POP JUMP JUMPDEST PUSH2 0x108B PUSH2 0x4EFC JUMP JUMPDEST PUSH1 0x0 SLOAD PUSH1 0x1 PUSH1 0x1 PUSH1 0xA0 SHL SUB SWAP1 DUP2 AND SWAP2 AND EQ PUSH2 0x10DB JUMPI PUSH1 0x40 DUP1 MLOAD PUSH3 0x461BCD PUSH1 0xE5 SHL DUP2 MSTORE PUSH1 0x20 PUSH1 0x4 DUP3 ADD DUP2 SWAP1 MSTORE PUSH1 0x24 DUP3 ADD MSTORE PUSH1 0x0 DUP1 MLOAD PUSH1 0x20 PUSH2 0x5718 DUP4 CODECOPY DUP2 MLOAD SWAP2 MSTORE PUSH1 0x44 DUP3 ADD MSTORE SWAP1 MLOAD SWAP1 DUP2 SWAP1 SUB PUSH1 0x64 ADD SWAP1 REVERT JUMPDEST PUSH1 0xB DUP1 SLOAD PUSH1 0x40 DUP1 MLOAD PUSH4 0x109CC30B PUSH1 0xE2 SHL DUP2 MSTORE ADDRESS PUSH1 0x4 DUP3 ADD MSTORE PUSH1 0x24 DUP2 ADD DUP3 SWAP1 MSTORE PUSH1 0x44 DUP2 ADD SWAP4 SWAP1 SWAP4 MSTORE PUSH11 0x7365745472616465466565 PUSH1 0xA8 SHL PUSH1 0x64 DUP5 ADD MSTORE MLOAD PUSH1 0x1 PUSH1 0x1 PUSH1 0xA0 SHL SUB SWAP1 SWAP2 AND SWAP2 PUSH4 0x42730C2C SWAP2 PUSH1 0x84 DUP1 DUP4 ADD SWAP3 PUSH1 0x20 SWAP3 SWAP2 SWAP1 DUP3 SWAP1 SUB ADD DUP2 DUP7 DUP1 EXTCODESIZE ISZERO DUP1 ISZERO PUSH2 0x1148 JUMPI PUSH1 0x0 DUP1 REVERT JUMPDEST POP GAS STATICCALL ISZERO DUP1 ISZERO PUSH2 0x115C JUMPI RETURNDATASIZE PUSH1 0x0 DUP1 RETURNDATACOPY RETURNDATASIZE PUSH1 0x0 REVERT JUMPDEST POP POP POP POP PUSH1 0x40 MLOAD RETURNDATASIZE PUSH1 0x20 DUP2 LT ISZERO PUSH2 0x1172 JUMPI PUSH1 0x0 DUP1 REVERT JUMPDEST POP MLOAD PUSH2 0x11BA JUMPI PUSH1 0x40 DUP1 MLOAD PUSH3 0x461BCD PUSH1 0xE5 SHL DUP2 MSTORE PUSH1 0x20 PUSH1 0x4 DUP3 ADD MSTORE PUSH1 0x12 PUSH1 0x24 DUP3 ADD MSTORE PUSH18 0x24A72B20A624A22FA822A926A4A9A9A4A7A7 PUSH1 0x71 SHL PUSH1 0x44 DUP3 ADD MSTORE SWAP1 MLOAD SWAP1 DUP2 SWAP1 SUB PUSH1 0x64 ADD SWAP1 REVERT JUMPDEST PUSH1 0xB DUP1 SLOAD PUSH1 0x40 DUP1 MLOAD PUSH4 0x6076DEA5 PUSH1 0xE1 SHL DUP2 MSTORE ADDRESS PUSH1 0x4 DUP3 ADD MSTORE PUSH1 0x60 PUSH1 0x24 DUP3 ADD MSTORE PUSH1 0x64 DUP2 ADD SWAP4 SWAP1 SWAP4 MSTORE PUSH11 0x7365745472616465466565 PUSH1 0xA8 SHL PUSH1 0x84 DUP5 ADD MSTORE PUSH1 0xA0 PUSH1 0x44 DUP5 ADD MSTORE PUSH1 0x8 PUSH1 0xA4 DUP5 ADD MSTORE PUSH8 0x7472616465466565 PUSH1 0xC0 SHL PUSH1 0xC4 DUP5 ADD MSTORE MLOAD PUSH1 0x0 SWAP3 PUSH1 0x1 PUSH1 0x1 PUSH1 0xA0 SHL SUB SWAP1 SWAP3 AND SWAP2 PUSH4 0xC0EDBD4A SWAP2 PUSH1 0xE4 DUP1 DUP4 ADD SWAP3 PUSH1 0x20 SWAP3 SWAP2 SWAP1 DUP3 SWAP1 SUB ADD DUP2 DUP7 DUP1 EXTCODESIZE ISZERO DUP1 ISZERO PUSH2 0x1249 JUMPI PUSH1 0x0 DUP1 REVERT JUMPDEST POP GAS STATICCALL ISZERO DUP1 ISZERO PUSH2 0x125D JUMPI RETURNDATASIZE PUSH1 0x0 DUP1 RETURNDATACOPY RETURNDATASIZE PUSH1 0x0 REVERT JUMPDEST POP POP POP POP PUSH1 0x40 MLOAD RETURNDATASIZE PUSH1 0x20 DUP2 LT ISZERO PUSH2 0x1273 JUMPI PUSH1 0x0 DUP1 REVERT JUMPDEST POP MLOAD PUSH1 0xD DUP2 SWAP1 SSTORE PUSH1 0xB DUP1 SLOAD PUSH1 0x40 DUP1 MLOAD PUSH4 0x6E977F0B PUSH1 0xE0 SHL DUP2 MSTORE PUSH1 0x2 PUSH1 0x44 DUP3 ADD MSTORE PUSH1 0x60 PUSH1 0x4 DUP3 ADD MSTORE PUSH1 0x64 DUP2 ADD SWAP4 SWAP1 SWAP4 MSTORE PUSH11 0x7365745472616465466565 PUSH1 0xA8 SHL PUSH1 0x84 DUP5 ADD MSTORE PUSH1 0xA0 PUSH1 0x24 DUP5 ADD MSTORE PUSH1 0x8 PUSH1 0xA4 DUP5 ADD MSTORE PUSH8 0x7472616465466565 PUSH1 0xC0 SHL PUSH1 0xC4 DUP5 ADD MSTORE MLOAD SWAP3 SWAP4 POP PUSH1 0x1 PUSH1 0x1 PUSH1 0xA0 SHL SUB AND SWAP2 PUSH4 0x6E977F0B SWAP2 PUSH1 0xE4 DUP1 DUP3 ADD SWAP3 PUSH1 0x0 SWAP3 SWAP1 SWAP2 SWAP1 DUP3 SWAP1 SUB ADD DUP2 DUP4 DUP8 DUP1 EXTCODESIZE ISZERO DUP1 ISZERO PUSH2 0x130A JUMPI PUSH1 0x0 DUP1 REVERT JUMPDEST POP GAS CALL ISZERO DUP1 ISZERO PUSH2 0x131E JUMPI RETURNDATASIZE PUSH1 0x0 DUP1 RETURNDATACOPY RETURNDATASIZE PUSH1 0x0 REVERT JUMPDEST POP POP PUSH1 0xB DUP1 SLOAD PUSH1 0x40 DUP1 MLOAD PUSH4 0x45503FCB PUSH1 0xE1 SHL DUP2 MSTORE PUSH1 0x20 PUSH1 0x4 DUP3 ADD MSTORE PUSH1 0x24 DUP2 ADD SWAP4 SWAP1 SWAP4 MSTORE PUSH11 0x7365745472616465466565 PUSH1 0xA8 SHL PUSH1 0x44 DUP5 ADD MSTORE MLOAD PUSH1 0x1 PUSH1 0x1 PUSH1 0xA0 SHL SUB SWAP1 SWAP2 AND SWAP4 POP PUSH4 0x8AA07F96 SWAP3 POP PUSH1 0x64 DUP1 DUP4 ADD SWAP3 PUSH1 0x0 SWAP3 SWAP2 SWAP1 DUP3 SWAP1 SUB ADD DUP2 DUP4 DUP8 DUP1 EXTCODESIZE ISZERO DUP1 ISZERO PUSH2 0x138A JUMPI PUSH1 0x0 DUP1 REVERT JUMPDEST POP GAS CALL ISZERO DUP1 ISZERO PUSH2 0x139E JUMPI RETURNDATASIZE PUSH1 0x0 DUP1 RETURNDATACOPY RETURNDATASIZE PUSH1 0x0 REVERT JUMPDEST POP POP POP POP POP JUMP JUMPDEST PUSH1 0x7 SLOAD PUSH1 0xFF AND DUP2 JUMP JUMPDEST PUSH1 0x3 SLOAD SWAP1 JUMP JUMPDEST PUSH1 0x0 PUSH2 0x13C1 DUP5 DUP5 DUP5 PUSH2 0x4FEC JUMP JUMPDEST PUSH2 0x1431 DUP5 PUSH2 0x13CD PUSH2 0x4EFC JUMP JUMPDEST PUSH2 0x142C DUP6 PUSH1 0x40 MLOAD DUP1 PUSH1 0x60 ADD PUSH1 0x40 MSTORE DUP1 PUSH1 0x28 DUP2 MSTORE PUSH1 0x20 ADD PUSH2 0x565E PUSH1 0x28 SWAP2 CODECOPY PUSH1 0x1 PUSH1 0x1 PUSH1 0xA0 SHL SUB DUP11 AND PUSH1 0x0 SWAP1 DUP2 MSTORE PUSH1 0x2 PUSH1 0x20 MSTORE PUSH1 0x40 DUP2 KECCAK256 SWAP1 PUSH2 0x140B PUSH2 0x4EFC JUMP JUMPDEST PUSH1 0x1 PUSH1 0x1 PUSH1 0xA0 SHL SUB AND DUP2 MSTORE PUSH1 0x20 DUP2 ADD SWAP2 SWAP1 SWAP2 MSTORE PUSH1 0x40 ADD PUSH1 0x0 KECCAK256 SLOAD SWAP2 SWAP1 PUSH2 0x513E JUMP JUMPDEST PUSH2 0x4F00 JUMP JUMPDEST POP PUSH1 0x1 SWAP4 SWAP3 POP POP POP JUMP JUMPDEST PUSH1 0x0 DUP1 DUP4 GT DUP1 ISZERO PUSH2 0x144C JUMPI POP PUSH1 0x0 DUP3 GT JUMPDEST PUSH2 0x148D JUMPI PUSH1 0x40 DUP1 MLOAD PUSH3 0x461BCD PUSH1 0xE5 SHL DUP2 MSTORE PUSH1 0x20 PUSH1 0x4 DUP3 ADD MSTORE PUSH1 0xD PUSH1 0x24 DUP3 ADD MSTORE PUSH13 0x494E56414C49445F56414C5545 PUSH1 0x98 SHL PUSH1 0x44 DUP3 ADD MSTORE SWAP1 MLOAD SWAP1 DUP2 SWAP1 SUB PUSH1 0x64 ADD SWAP1 REVERT JUMPDEST PUSH1 0x0 PUSH2 0x1499 DUP4 DUP6 PUSH2 0x4E18 JUMP JUMPDEST SWAP1 POP PUSH1 0x0 PUSH2 0x14A7 DUP6 DUP8 PUSH2 0x51D5 JUMP JUMPDEST SWAP1 POP PUSH1 0x0 PUSH2 0x1078 PUSH2 0x14B8 DUP5 DUP5 PUSH2 0x4E78 JUMP JUMPDEST DUP7 SWAP1 PUSH2 0x4EBA JUMP JUMPDEST PUSH1 0x4 SLOAD PUSH1 0xFF AND SWAP1 JUMP JUMPDEST PUSH1 0x0 PUSH2 0x1027 PUSH2 0x14D5 PUSH2 0x4EFC JUMP JUMPDEST DUP5 PUSH2 0x142C DUP6 PUSH1 0x2 PUSH1 0x0 PUSH2 0x14E6 PUSH2 0x4EFC JUMP JUMPDEST PUSH1 0x1 PUSH1 0x1 PUSH1 0xA0 SHL SUB SWAP1 DUP2 AND DUP3 MSTORE PUSH1 0x20 DUP1 DUP4 ADD SWAP4 SWAP1 SWAP4 MSTORE PUSH1 0x40 SWAP2 DUP3 ADD PUSH1 0x0 SWAP1 DUP2 KECCAK256 SWAP2 DUP13 AND DUP2 MSTORE SWAP3 MSTORE SWAP1 KECCAK256 SLOAD SWAP1 PUSH2 0x51D5 JUMP JUMPDEST PUSH2 0x151E PUSH2 0x4EFC JUMP JUMPDEST PUSH1 0x0 SLOAD PUSH1 0x1 PUSH1 0x1 PUSH1 0xA0 SHL SUB SWAP1 DUP2 AND SWAP2 AND EQ PUSH2 0x156E JUMPI PUSH1 0x40 DUP1 MLOAD PUSH3 0x461BCD PUSH1 0xE5 SHL DUP2 MSTORE PUSH1 0x20 PUSH1 0x4 DUP3 ADD DUP2 SWAP1 MSTORE PUSH1 0x24 DUP3 ADD MSTORE PUSH1 0x0 DUP1 MLOAD PUSH1 0x20 PUSH2 0x5718 DUP4 CODECOPY DUP2 MLOAD SWAP2 MSTORE PUSH1 0x44 DUP3 ADD MSTORE SWAP1 MLOAD SWAP1 DUP2 SWAP1 SUB PUSH1 0x64 ADD SWAP1 REVERT JUMPDEST PUSH1 0xB SLOAD PUSH1 0x40 DUP1 MLOAD PUSH4 0x109CC30B PUSH1 0xE2 SHL DUP2 MSTORE ADDRESS PUSH1 0x4 DUP3 ADD MSTORE PUSH1 0x24 DUP2 ADD DUP3 SWAP1 MSTORE PUSH1 0xF PUSH1 0x44 DUP3 ADD MSTORE PUSH15 0x1CD95D11985C9B50DBDB9D1C9858DD PUSH1 0x8A SHL PUSH1 0x64 DUP3 ADD MSTORE SWAP1 MLOAD PUSH1 0x1 PUSH1 0x1 PUSH1 0xA0 SHL SUB SWAP1 SWAP3 AND SWAP2 PUSH4 0x42730C2C SWAP2 PUSH1 0x84 DUP1 DUP3 ADD SWAP3 PUSH1 0x20 SWAP3 SWAP1 SWAP2 SWAP1 DUP3 SWAP1 SUB ADD DUP2 DUP7 DUP1 EXTCODESIZE ISZERO DUP1 ISZERO PUSH2 0x15DF JUMPI PUSH1 0x0 DUP1 REVERT JUMPDEST POP GAS STATICCALL ISZERO DUP1 ISZERO PUSH2 0x15F3 JUMPI RETURNDATASIZE PUSH1 0x0 DUP1 RETURNDATACOPY RETURNDATASIZE PUSH1 0x0 REVERT JUMPDEST POP POP POP POP PUSH1 0x40 MLOAD RETURNDATASIZE PUSH1 0x20 DUP2 LT ISZERO PUSH2 0x1609 JUMPI PUSH1 0x0 DUP1 REVERT JUMPDEST POP MLOAD PUSH2 0x1651 JUMPI PUSH1 0x40 DUP1 MLOAD PUSH3 0x461BCD PUSH1 0xE5 SHL DUP2 MSTORE PUSH1 0x20 PUSH1 0x4 DUP3 ADD MSTORE PUSH1 0x12 PUSH1 0x24 DUP3 ADD MSTORE PUSH18 0x24A72B20A624A22FA822A926A4A9A9A4A7A7 PUSH1 0x71 SHL PUSH1 0x44 DUP3 ADD MSTORE SWAP1 MLOAD SWAP1 DUP2 SWAP1 SUB PUSH1 0x64 ADD SWAP1 REVERT JUMPDEST PUSH1 0xB SLOAD PUSH1 0x40 DUP1 MLOAD PUSH4 0x6BFB078D PUSH1 0xE0 SHL DUP2 MSTORE ADDRESS PUSH1 0x4 DUP3 ADD MSTORE PUSH1 0x60 PUSH1 0x24 DUP3 ADD MSTORE PUSH1 0xF PUSH1 0x64 DUP3 ADD MSTORE PUSH15 0x1CD95D11985C9B50DBDB9D1C9858DD PUSH1 0x8A SHL PUSH1 0x84 DUP3 ADD MSTORE PUSH1 0xA0 PUSH1 0x44 DUP3 ADD MSTORE PUSH1 0xC PUSH1 0xA4 DUP3 ADD MSTORE PUSH12 0x19985C9B50DBDB9D1C9858DD PUSH1 0xA2 SHL PUSH1 0xC4 DUP3 ADD MSTORE SWAP1 MLOAD PUSH1 0x0 SWAP3 PUSH1 0x1 PUSH1 0x1 PUSH1 0xA0 SHL SUB AND SWAP2 PUSH4 0x6BFB078D SWAP2 PUSH1 0xE4 DUP1 DUP4 ADD SWAP3 PUSH1 0x20 SWAP3 SWAP2 SWAP1 DUP3 SWAP1 SUB ADD DUP2 DUP7 DUP1 EXTCODESIZE ISZERO DUP1 ISZERO PUSH2 0x16E5 JUMPI PUSH1 0x0 DUP1 REVERT JUMPDEST POP GAS STATICCALL ISZERO DUP1 ISZERO PUSH2 0x16F9 JUMPI RETURNDATASIZE PUSH1 0x0 DUP1 RETURNDATACOPY RETURNDATASIZE PUSH1 0x0 REVERT JUMPDEST POP POP POP POP PUSH1 0x40 MLOAD RETURNDATASIZE PUSH1 0x20 DUP2 LT ISZERO PUSH2 0x170F JUMPI PUSH1 0x0 DUP1 REVERT JUMPDEST POP MLOAD SWAP1 POP PUSH1 0x1 PUSH1 0x1 PUSH1 0xA0 SHL SUB DUP2 AND PUSH2 0x1760 JUMPI PUSH1 0x40 DUP1 MLOAD PUSH3 0x461BCD PUSH1 0xE5 SHL DUP2 MSTORE PUSH1 0x20 PUSH1 0x4 DUP3 ADD MSTORE PUSH1 0xF PUSH1 0x24 DUP3 ADD MSTORE PUSH15 0x494E56414C49445F41444452455353 PUSH1 0x88 SHL PUSH1 0x44 DUP3 ADD MSTORE SWAP1 MLOAD SWAP1 DUP2 SWAP1 SUB PUSH1 0x64 ADD SWAP1 REVERT JUMPDEST PUSH1 0xC DUP1 SLOAD PUSH1 0x1 PUSH1 0x1 PUSH1 0xA0 SHL SUB NOT AND PUSH1 0x1 PUSH1 0x1 PUSH1 0xA0 SHL SUB DUP4 DUP2 AND SWAP2 SWAP1 SWAP2 OR DUP3 SSTORE PUSH1 0xB SLOAD PUSH1 0x40 DUP1 MLOAD PUSH4 0x6E977F0B PUSH1 0xE0 SHL DUP2 MSTORE PUSH1 0x1 PUSH1 0x44 DUP3 ADD MSTORE PUSH1 0x60 PUSH1 0x4 DUP3 ADD MSTORE PUSH1 0xF PUSH1 0x64 DUP3 ADD MSTORE PUSH15 0x1CD95D11985C9B50DBDB9D1C9858DD PUSH1 0x8A SHL PUSH1 0x84 DUP3 ADD MSTORE PUSH1 0xA0 PUSH1 0x24 DUP3 ADD MSTORE PUSH1 0xA4 DUP2 ADD SWAP5 SWAP1 SWAP5 MSTORE PUSH12 0x19985C9B50DBDB9D1C9858DD PUSH1 0xA2 SHL PUSH1 0xC4 DUP6 ADD MSTORE MLOAD SWAP2 AND SWAP2 PUSH4 0x6E977F0B SWAP2 PUSH1 0xE4 DUP1 DUP4 ADD SWAP3 PUSH1 0x0 SWAP3 SWAP2 SWAP1 DUP3 SWAP1 SUB ADD DUP2 DUP4 DUP8 DUP1 EXTCODESIZE ISZERO DUP1 ISZERO PUSH2 0x180B JUMPI PUSH1 0x0 DUP1 REVERT JUMPDEST POP GAS CALL ISZERO DUP1 ISZERO PUSH2 0x181F JUMPI RETURNDATASIZE PUSH1 0x0 DUP1 RETURNDATACOPY RETURNDATASIZE PUSH1 0x0 REVERT JUMPDEST POP POP PUSH1 0xB SLOAD PUSH1 0x40 DUP1 MLOAD PUSH4 0x45503FCB PUSH1 0xE1 SHL DUP2 MSTORE PUSH1 0x20 PUSH1 0x4 DUP3 ADD MSTORE PUSH1 0xF PUSH1 0x24 DUP3 ADD MSTORE PUSH15 0x1CD95D11985C9B50DBDB9D1C9858DD PUSH1 0x8A SHL PUSH1 0x44 DUP3 ADD MSTORE SWAP1 MLOAD PUSH1 0x1 PUSH1 0x1 PUSH1 0xA0 SHL SUB SWAP1 SWAP3 AND SWAP4 POP PUSH4 0x8AA07F96 SWAP3 POP PUSH1 0x64 DUP1 DUP3 ADD SWAP3 PUSH1 0x0 SWAP3 SWAP1 SWAP2 SWAP1 DUP3 SWAP1 SUB ADD DUP2 DUP4 DUP8 DUP1 EXTCODESIZE ISZERO DUP1 ISZERO PUSH2 0x138A JUMPI PUSH1 0x0 DUP1 REVERT JUMPDEST PUSH1 0x9 SLOAD PUSH1 0x1 PUSH1 0x1 PUSH1 0xA0 SHL SUB AND DUP2 JUMP JUMPDEST PUSH1 0x7 SLOAD PUSH2 0x100 SWAP1 DIV PUSH1 0x1 PUSH1 0x1 PUSH1 0xA0 SHL SUB AND DUP2 JUMP JUMPDEST PUSH1 0x0 CALLER ORIGIN EQ PUSH2 0x197C JUMPI PUSH1 0xA SLOAD PUSH1 0x40 DUP1 MLOAD PUSH4 0x6C9B2A3F PUSH1 0xE1 SHL DUP2 MSTORE CALLER PUSH1 0x4 DUP3 ADD MSTORE SWAP1 MLOAD PUSH1 0x1 PUSH1 0x1 PUSH1 0xA0 SHL SUB SWAP1 SWAP3 AND SWAP2 PUSH4 0xD936547E SWAP2 PUSH1 0x24 DUP1 DUP3 ADD SWAP3 PUSH1 0x20 SWAP3 SWAP1 SWAP2 SWAP1 DUP3 SWAP1 SUB ADD DUP2 DUP7 DUP1 EXTCODESIZE ISZERO DUP1 ISZERO PUSH2 0x1906 JUMPI PUSH1 0x0 DUP1 REVERT JUMPDEST POP GAS STATICCALL ISZERO DUP1 ISZERO PUSH2 0x191A JUMPI RETURNDATASIZE PUSH1 0x0 DUP1 RETURNDATACOPY RETURNDATASIZE PUSH1 0x0 REVERT JUMPDEST POP POP POP POP PUSH1 0x40 MLOAD RETURNDATASIZE PUSH1 0x20 DUP2 LT ISZERO PUSH2 0x1930 JUMPI PUSH1 0x0 DUP1 REVERT JUMPDEST POP MLOAD ISZERO ISZERO PUSH1 0x1 EQ PUSH2 0x197C JUMPI PUSH1 0x40 DUP1 MLOAD PUSH3 0x461BCD PUSH1 0xE5 SHL DUP2 MSTORE PUSH1 0x20 PUSH1 0x4 DUP3 ADD MSTORE PUSH1 0x11 PUSH1 0x24 DUP3 ADD MSTORE PUSH17 0x1253959053125117D5D2125511531254D5 PUSH1 0x7A SHL PUSH1 0x44 DUP3 ADD MSTORE SWAP1 MLOAD SWAP1 DUP2 SWAP1 SUB PUSH1 0x64 ADD SWAP1 REVERT JUMPDEST TIMESTAMP DUP3 LT ISZERO PUSH2 0x19C4 JUMPI PUSH1 0x40 DUP1 MLOAD PUSH3 0x461BCD PUSH1 0xE5 SHL DUP2 MSTORE PUSH1 0x20 PUSH1 0x4 DUP3 ADD MSTORE PUSH1 0x10 PUSH1 0x24 DUP3 ADD MSTORE PUSH16 0x494E56414C49445F444541444C494E45 PUSH1 0x80 SHL PUSH1 0x44 DUP3 ADD MSTORE SWAP1 MLOAD SWAP1 DUP2 SWAP1 SUB PUSH1 0x64 ADD SWAP1 REVERT JUMPDEST PUSH1 0x0 DUP6 GT PUSH2 0x1A0A JUMPI PUSH1 0x40 DUP1 MLOAD PUSH3 0x461BCD PUSH1 0xE5 SHL DUP2 MSTORE PUSH1 0x20 PUSH1 0x4 DUP3 ADD MSTORE PUSH1 0xE PUSH1 0x24 DUP3 ADD MSTORE PUSH14 0x494E56414C49445F4D494E5F4C5 PUSH1 0x94 SHL PUSH1 0x44 DUP3 ADD MSTORE SWAP1 MLOAD SWAP1 DUP2 SWAP1 SUB PUSH1 0x64 ADD SWAP1 REVERT JUMPDEST PUSH1 0x0 DUP5 GT PUSH2 0x1A54 JUMPI PUSH1 0x40 DUP1 MLOAD PUSH3 0x461BCD PUSH1 0xE5 SHL DUP2 MSTORE PUSH1 0x20 PUSH1 0x4 DUP3 ADD MSTORE PUSH1 0x12 PUSH1 0x24 DUP3 ADD MSTORE PUSH18 0x1253959053125117D09054D157D253941555 PUSH1 0x72 SHL PUSH1 0x44 DUP3 ADD MSTORE SWAP1 MLOAD SWAP1 DUP2 SWAP1 SUB PUSH1 0x64 ADD SWAP1 REVERT JUMPDEST PUSH1 0x0 DUP4 GT PUSH2 0x1AA3 JUMPI PUSH1 0x40 DUP1 MLOAD PUSH3 0x461BCD PUSH1 0xE5 SHL DUP2 MSTORE PUSH1 0x20 PUSH1 0x4 DUP3 ADD MSTORE PUSH1 0x17 PUSH1 0x24 DUP3 ADD MSTORE PUSH23 0x1253959053125117D3505617D513D2D15397D253941555 PUSH1 0x4A SHL PUSH1 0x44 DUP3 ADD MSTORE SWAP1 MLOAD SWAP1 DUP2 SWAP1 SUB PUSH1 0x64 ADD SWAP1 REVERT JUMPDEST PUSH1 0x0 PUSH2 0x1AAD PUSH2 0x13AE JUMP JUMPDEST SWAP1 POP DUP1 PUSH2 0x1D3F JUMPI PUSH1 0x7 SLOAD PUSH1 0x40 DUP1 MLOAD PUSH4 0x23B872DD PUSH1 0xE0 SHL DUP2 MSTORE CALLER PUSH1 0x4 DUP3 ADD MSTORE ADDRESS PUSH1 0x24 DUP3 ADD MSTORE PUSH1 0x44 DUP2 ADD DUP9 SWAP1 MSTORE SWAP1 MLOAD PUSH2 0x100 SWAP1 SWAP3 DIV PUSH1 0x1 PUSH1 0x1 PUSH1 0xA0 SHL SUB AND SWAP2 PUSH4 0x23B872DD SWAP2 PUSH1 0x64 DUP1 DUP3 ADD SWAP3 PUSH1 0x20 SWAP3 SWAP1 SWAP2 SWAP1 DUP3 SWAP1 SUB ADD DUP2 PUSH1 0x0 DUP8 DUP1 EXTCODESIZE ISZERO DUP1 ISZERO PUSH2 0x1B12 JUMPI PUSH1 0x0 DUP1 REVERT JUMPDEST POP GAS CALL ISZERO DUP1 ISZERO PUSH2 0x1B26 JUMPI RETURNDATASIZE PUSH1 0x0 DUP1 RETURNDATACOPY RETURNDATASIZE PUSH1 0x0 REVERT JUMPDEST POP POP POP POP PUSH1 0x40 MLOAD RETURNDATASIZE PUSH1 0x20 DUP2 LT ISZERO PUSH2 0x1B3C JUMPI PUSH1 0x0 DUP1 REVERT JUMPDEST POP POP PUSH1 0x8 SLOAD PUSH1 0x40 DUP1 MLOAD PUSH4 0x23B872DD PUSH1 0xE0 SHL DUP2 MSTORE CALLER PUSH1 0x4 DUP3 ADD MSTORE ADDRESS PUSH1 0x24 DUP3 ADD MSTORE PUSH1 0x44 DUP2 ADD DUP8 SWAP1 MSTORE SWAP1 MLOAD PUSH1 0x1 PUSH1 0x1 PUSH1 0xA0 SHL SUB SWAP1 SWAP3 AND SWAP2 PUSH4 0x23B872DD SWAP2 PUSH1 0x64 DUP1 DUP3 ADD SWAP3 PUSH1 0x20 SWAP3 SWAP1 SWAP2 SWAP1 DUP3 SWAP1 SUB ADD DUP2 PUSH1 0x0 DUP8 DUP1 EXTCODESIZE ISZERO DUP1 ISZERO PUSH2 0x1B98 JUMPI PUSH1 0x0 DUP1 REVERT JUMPDEST POP GAS CALL ISZERO DUP1 ISZERO PUSH2 0x1BAC JUMPI RETURNDATASIZE PUSH1 0x0 DUP1 RETURNDATACOPY RETURNDATASIZE PUSH1 0x0 REVERT JUMPDEST POP POP POP POP PUSH1 0x40 MLOAD RETURNDATASIZE PUSH1 0x20 DUP2 LT ISZERO PUSH2 0x1BC2 JUMPI PUSH1 0x0 DUP1 REVERT JUMPDEST POP DUP6 SWAP1 POP PUSH2 0x1BD0 CALLER DUP3 PUSH2 0x522F JUMP JUMPDEST PUSH32 0x28E12AFD967CC11B786F1B1547F5E0DA96CCC91EBB09BDD406248111A634E7E5 CALLER DUP3 DUP9 DUP9 PUSH1 0x7 PUSH1 0x1 SWAP1 SLOAD SWAP1 PUSH2 0x100 EXP SWAP1 DIV PUSH1 0x1 PUSH1 0x1 PUSH1 0xA0 SHL SUB AND PUSH1 0x1 PUSH1 0x1 PUSH1 0xA0 SHL SUB AND PUSH4 0x70A08231 ADDRESS PUSH1 0x40 MLOAD DUP3 PUSH4 0xFFFFFFFF AND PUSH1 0xE0 SHL DUP2 MSTORE PUSH1 0x4 ADD DUP1 DUP3 PUSH1 0x1 PUSH1 0x1 PUSH1 0xA0 SHL SUB AND DUP2 MSTORE PUSH1 0x20 ADD SWAP2 POP POP PUSH1 0x20 PUSH1 0x40 MLOAD DUP1 DUP4 SUB DUP2 DUP7 DUP1 EXTCODESIZE ISZERO DUP1 ISZERO PUSH2 0x1C57 JUMPI PUSH1 0x0 DUP1 REVERT JUMPDEST POP GAS STATICCALL ISZERO DUP1 ISZERO PUSH2 0x1C6B JUMPI RETURNDATASIZE PUSH1 0x0 DUP1 RETURNDATACOPY RETURNDATASIZE PUSH1 0x0 REVERT JUMPDEST POP POP POP POP PUSH1 0x40 MLOAD RETURNDATASIZE PUSH1 0x20 DUP2 LT ISZERO PUSH2 0x1C81 JUMPI PUSH1 0x0 DUP1 REVERT JUMPDEST POP MLOAD PUSH1 0x8 SLOAD PUSH1 0x40 DUP1 MLOAD PUSH4 0x70A08231 PUSH1 0xE0 SHL DUP2 MSTORE ADDRESS PUSH1 0x4 DUP3 ADD MSTORE SWAP1 MLOAD PUSH1 0x1 PUSH1 0x1 PUSH1 0xA0 SHL SUB SWAP1 SWAP3 AND SWAP2 PUSH4 0x70A08231 SWAP2 PUSH1 0x24 DUP1 DUP3 ADD SWAP3 PUSH1 0x20 SWAP3 SWAP1 SWAP2 SWAP1 DUP3 SWAP1 SUB ADD DUP2 DUP7 DUP1 EXTCODESIZE ISZERO DUP1 ISZERO PUSH2 0x1CCE JUMPI PUSH1 0x0 DUP1 REVERT JUMPDEST POP GAS STATICCALL ISZERO DUP1 ISZERO PUSH2 0x1CE2 JUMPI RETURNDATASIZE PUSH1 0x0 DUP1 RETURNDATACOPY RETURNDATASIZE PUSH1 0x0 REVERT JUMPDEST POP POP POP POP PUSH1 0x40 MLOAD RETURNDATASIZE PUSH1 0x20 DUP2 LT ISZERO PUSH2 0x1CF8 JUMPI PUSH1 0x0 DUP1 REVERT JUMPDEST POP MLOAD PUSH1 0x40 DUP1 MLOAD PUSH1 0x1 PUSH1 0x1 PUSH1 0xA0 SHL SUB SWAP1 SWAP8 AND DUP8 MSTORE PUSH1 0x20 DUP8 ADD SWAP6 SWAP1 SWAP6 MSTORE DUP6 DUP6 ADD SWAP4 SWAP1 SWAP4 MSTORE PUSH1 0x60 DUP6 ADD SWAP2 SWAP1 SWAP2 MSTORE PUSH1 0x80 DUP5 ADD MSTORE PUSH1 0xA0 DUP4 ADD MSTORE MLOAD SWAP1 DUP2 SWAP1 SUB PUSH1 0xC0 ADD SWAP1 LOG1 SWAP2 POP PUSH2 0x20F1 SWAP1 POP JUMP JUMPDEST PUSH1 0x0 DUP1 PUSH2 0x1D4A PUSH2 0x4AE6 JUMP JUMPDEST SWAP1 SWAP3 POP SWAP1 POP PUSH1 0x0 PUSH2 0x1D73 DUP3 PUSH2 0x1D6D DUP6 PUSH2 0xBC0 PUSH2 0x1D66 DUP3 DUP15 PUSH2 0x51D5 JUMP JUMPDEST DUP8 SWAP1 PUSH2 0x4E18 JUMP JUMPDEST SWAP1 PUSH2 0x4EBA JUMP JUMPDEST SWAP1 POP PUSH1 0x0 PUSH2 0x1D85 DUP5 PUSH2 0xBC0 DUP8 DUP13 PUSH2 0x4E18 JUMP JUMPDEST SWAP1 POP PUSH1 0x0 DUP3 GT PUSH2 0x1DD2 JUMPI PUSH1 0x40 DUP1 MLOAD PUSH3 0x461BCD PUSH1 0xE5 SHL DUP2 MSTORE PUSH1 0x20 PUSH1 0x4 DUP3 ADD MSTORE PUSH1 0x13 PUSH1 0x24 DUP3 ADD MSTORE PUSH19 0x1253959053125117D513D2D15397D253941555 PUSH1 0x6A SHL PUSH1 0x44 DUP3 ADD MSTORE SWAP1 MLOAD SWAP1 DUP2 SWAP1 SUB PUSH1 0x64 ADD SWAP1 REVERT JUMPDEST DUP8 DUP3 GT ISZERO PUSH2 0x1E1D JUMPI PUSH1 0x40 DUP1 MLOAD PUSH3 0x461BCD PUSH1 0xE5 SHL DUP2 MSTORE PUSH1 0x20 PUSH1 0x4 DUP3 ADD MSTORE PUSH1 0x13 PUSH1 0x24 DUP3 ADD MSTORE PUSH19 0x1253959053125117D513D2D15397D253941555 PUSH1 0x6A SHL PUSH1 0x44 DUP3 ADD MSTORE SWAP1 MLOAD SWAP1 DUP2 SWAP1 SUB PUSH1 0x64 ADD SWAP1 REVERT JUMPDEST DUP10 DUP2 LT ISZERO PUSH2 0x1E64 JUMPI PUSH1 0x40 DUP1 MLOAD PUSH3 0x461BCD PUSH1 0xE5 SHL DUP2 MSTORE PUSH1 0x20 PUSH1 0x4 DUP3 ADD MSTORE PUSH1 0xF PUSH1 0x24 DUP3 ADD MSTORE PUSH15 0x494E56414C49445F4D494E545F4C5 PUSH1 0x8C SHL PUSH1 0x44 DUP3 ADD MSTORE SWAP1 MLOAD SWAP1 DUP2 SWAP1 SUB PUSH1 0x64 ADD SWAP1 REVERT JUMPDEST PUSH1 0x7 SLOAD PUSH1 0x40 DUP1 MLOAD PUSH4 0x23B872DD PUSH1 0xE0 SHL DUP2 MSTORE CALLER PUSH1 0x4 DUP3 ADD MSTORE ADDRESS PUSH1 0x24 DUP3 ADD MSTORE PUSH1 0x44 DUP2 ADD DUP13 SWAP1 MSTORE SWAP1 MLOAD PUSH2 0x100 SWAP1 SWAP3 DIV PUSH1 0x1 PUSH1 0x1 PUSH1 0xA0 SHL SUB AND SWAP2 PUSH4 0x23B872DD SWAP2 PUSH1 0x64 DUP1 DUP3 ADD SWAP3 PUSH1 0x20 SWAP3 SWAP1 SWAP2 SWAP1 DUP3 SWAP1 SUB ADD DUP2 PUSH1 0x0 DUP8 DUP1 EXTCODESIZE ISZERO DUP1 ISZERO PUSH2 0x1EC2 JUMPI PUSH1 0x0 DUP1 REVERT JUMPDEST POP GAS CALL ISZERO DUP1 ISZERO PUSH2 0x1ED6 JUMPI RETURNDATASIZE PUSH1 0x0 DUP1 RETURNDATACOPY RETURNDATASIZE PUSH1 0x0 REVERT JUMPDEST POP POP POP POP PUSH1 0x40 MLOAD RETURNDATASIZE PUSH1 0x20 DUP2 LT ISZERO PUSH2 0x1EEC JUMPI PUSH1 0x0 DUP1 REVERT JUMPDEST POP POP PUSH1 0x8 SLOAD PUSH1 0x40 DUP1 MLOAD PUSH4 0x23B872DD PUSH1 0xE0 SHL DUP2 MSTORE CALLER PUSH1 0x4 DUP3 ADD MSTORE ADDRESS PUSH1 0x24 DUP3 ADD MSTORE PUSH1 0x44 DUP2 ADD DUP6 SWAP1 MSTORE SWAP1 MLOAD PUSH1 0x1 PUSH1 0x1 PUSH1 0xA0 SHL SUB SWAP1 SWAP3 AND SWAP2 PUSH4 0x23B872DD SWAP2 PUSH1 0x64 DUP1 DUP3 ADD SWAP3 PUSH1 0x20 SWAP3 SWAP1 SWAP2 SWAP1 DUP3 SWAP1 SUB ADD DUP2 PUSH1 0x0 DUP8 DUP1 EXTCODESIZE ISZERO DUP1 ISZERO PUSH2 0x1F48 JUMPI PUSH1 0x0 DUP1 REVERT JUMPDEST POP GAS CALL ISZERO DUP1 ISZERO PUSH2 0x1F5C JUMPI RETURNDATASIZE PUSH1 0x0 DUP1 RETURNDATACOPY RETURNDATASIZE PUSH1 0x0 REVERT JUMPDEST POP POP POP POP PUSH1 0x40 MLOAD RETURNDATASIZE PUSH1 0x20 DUP2 LT ISZERO PUSH2 0x1F72 JUMPI PUSH1 0x0 DUP1 REVERT JUMPDEST POP PUSH2 0x1F7F SWAP1 POP CALLER DUP3 PUSH2 0x522F JUMP JUMPDEST PUSH32 0x28E12AFD967CC11B786F1B1547F5E0DA96CCC91EBB09BDD406248111A634E7E5 CALLER DUP3 DUP12 DUP6 PUSH1 0x7 PUSH1 0x1 SWAP1 SLOAD SWAP1 PUSH2 0x100 EXP SWAP1 DIV PUSH1 0x1 PUSH1 0x1 PUSH1 0xA0 SHL SUB AND PUSH1 0x1 PUSH1 0x1 PUSH1 0xA0 SHL SUB AND PUSH4 0x70A08231 ADDRESS PUSH1 0x40 MLOAD DUP3 PUSH4 0xFFFFFFFF AND PUSH1 0xE0 SHL DUP2 MSTORE PUSH1 0x4 ADD DUP1 DUP3 PUSH1 0x1 PUSH1 0x1 PUSH1 0xA0 SHL SUB AND DUP2 MSTORE PUSH1 0x20 ADD SWAP2 POP POP PUSH1 0x20 PUSH1 0x40 MLOAD DUP1 DUP4 SUB DUP2 DUP7 DUP1 EXTCODESIZE ISZERO DUP1 ISZERO PUSH2 0x2006 JUMPI PUSH1 0x0 DUP1 REVERT JUMPDEST POP GAS STATICCALL ISZERO DUP1 ISZERO PUSH2 0x201A JUMPI RETURNDATASIZE PUSH1 0x0 DUP1 RETURNDATACOPY RETURNDATASIZE PUSH1 0x0 REVERT JUMPDEST POP POP POP POP PUSH1 0x40 MLOAD RETURNDATASIZE PUSH1 0x20 DUP2 LT ISZERO PUSH2 0x2030 JUMPI PUSH1 0x0 DUP1 REVERT JUMPDEST POP MLOAD PUSH1 0x8 SLOAD PUSH1 0x40 DUP1 MLOAD PUSH4 0x70A08231 PUSH1 0xE0 SHL DUP2 MSTORE ADDRESS PUSH1 0x4 DUP3 ADD MSTORE SWAP1 MLOAD PUSH1 0x1 PUSH1 0x1 PUSH1 0xA0 SHL SUB SWAP1 SWAP3 AND SWAP2 PUSH4 0x70A08231 SWAP2 PUSH1 0x24 DUP1 DUP3 ADD SWAP3 PUSH1 0x20 SWAP3 SWAP1 SWAP2 SWAP1 DUP3 SWAP1 SUB ADD DUP2 DUP7 DUP1 EXTCODESIZE ISZERO DUP1 ISZERO PUSH2 0x207D JUMPI PUSH1 0x0 DUP1 REVERT JUMPDEST POP GAS STATICCALL ISZERO DUP1 ISZERO PUSH2 0x2091 JUMPI RETURNDATASIZE PUSH1 0x0 DUP1 RETURNDATACOPY RETURNDATASIZE PUSH1 0x0 REVERT JUMPDEST POP POP POP POP PUSH1 0x40 MLOAD RETURNDATASIZE PUSH1 0x20 DUP2 LT ISZERO PUSH2 0x20A7 JUMPI PUSH1 0x0 DUP1 REVERT JUMPDEST POP MLOAD PUSH1 0x40 DUP1 MLOAD PUSH1 0x1 PUSH1 0x1 PUSH1 0xA0 SHL SUB SWAP1 SWAP8 AND DUP8 MSTORE PUSH1 0x20 DUP8 ADD SWAP6 SWAP1 SWAP6 MSTORE DUP6 DUP6 ADD SWAP4 SWAP1 SWAP4 MSTORE PUSH1 0x60 DUP6 ADD SWAP2 SWAP1 SWAP2 MSTORE PUSH1 0x80 DUP5 ADD MSTORE PUSH1 0xA0 DUP4 ADD MSTORE MLOAD SWAP1 DUP2 SWAP1 SUB PUSH1 0xC0 ADD SWAP1 LOG1 SWAP5 POP PUSH2 0x20F1 SWAP4 POP POP POP POP JUMP JUMPDEST SWAP5 SWAP4 POP POP POP POP JUMP JUMPDEST PUSH1 0x0 DUP1 DUP1 PUSH2 0x2105 PUSH2 0x4AE6 JUMP JUMPDEST PUSH1 0xD SLOAD SWAP2 SWAP4 POP SWAP2 POP PUSH1 0x0 SWAP1 PUSH2 0x2123 SWAP1 PUSH2 0x3E8 SWAP1 PUSH2 0xBC0 SWAP1 DUP9 SWAP1 PUSH2 0x4E18 JUMP JUMPDEST SWAP1 POP PUSH1 0x0 PUSH2 0x2131 DUP7 DUP4 PUSH2 0x4EBA JUMP JUMPDEST SWAP1 POP PUSH1 0x0 PUSH2 0x1078 DUP3 DUP7 DUP7 PUSH2 0x3FF5 JUMP JUMPDEST PUSH1 0x0 DUP1 PUSH1 0x0 PUSH2 0x214D PUSH2 0x13AE JUMP JUMPDEST SWAP1 POP PUSH1 0x0 DUP1 DUP3 PUSH2 0x2161 JUMPI POP DUP5 SWAP1 POP DUP1 PUSH2 0x219B JUMP JUMPDEST PUSH1 0x0 DUP1 PUSH2 0x216C PUSH2 0x4AE6 JUMP JUMPDEST SWAP1 SWAP3 POP SWAP1 POP PUSH2 0x2186 DUP3 PUSH2 0x1D6D DUP4 PUSH2 0xBC0 PUSH2 0x1D66 DUP3 DUP15 PUSH2 0x51D5 JUMP JUMPDEST SWAP3 POP PUSH2 0x2196 DUP3 PUSH2 0xBC0 DUP8 DUP7 PUSH2 0x4E18 JUMP JUMPDEST SWAP4 POP POP POP JUMPDEST SWAP1 SWAP4 POP SWAP2 POP POP SWAP2 POP SWAP2 JUMP JUMPDEST PUSH1 0x1 PUSH1 0x1 PUSH1 0xA0 SHL SUB AND PUSH1 0x0 SWAP1 DUP2 MSTORE PUSH1 0x1 PUSH1 0x20 MSTORE PUSH1 0x40 SWAP1 KECCAK256 SLOAD SWAP1 JUMP JUMPDEST PUSH1 0x0 DUP1 PUSH1 0x0 PUSH2 0x21CE PUSH2 0x13AE JUMP JUMPDEST SWAP1 POP DUP1 DUP5 GT ISZERO PUSH2 0x21DC JUMPI DUP1 SWAP4 POP JUMPDEST PUSH1 0x0 DUP1 PUSH2 0x21E7 PUSH2 0x4AE6 JUMP JUMPDEST SWAP1 SWAP3 POP SWAP1 POP PUSH1 0x0 PUSH2 0x21FC DUP5 PUSH2 0xBC0 DUP10 DUP7 PUSH2 0x4E18 JUMP JUMPDEST SWAP1 POP PUSH1 0x0 PUSH2 0x220E DUP6 PUSH2 0xBC0 DUP11 DUP7 PUSH2 0x4E18 JUMP JUMPDEST SWAP2 SWAP7 POP SWAP1 SWAP5 POP POP POP POP POP SWAP2 POP SWAP2 JUMP JUMPDEST PUSH2 0x2225 PUSH2 0x4EFC JUMP JUMPDEST PUSH1 0x0 SLOAD PUSH1 0x1 PUSH1 0x1 PUSH1 0xA0 SHL SUB SWAP1 DUP2 AND SWAP2 AND EQ PUSH2 0x2275 JUMPI PUSH1 0x40 DUP1 MLOAD PUSH3 0x461BCD PUSH1 0xE5 SHL DUP2 MSTORE PUSH1 0x20 PUSH1 0x4 DUP3 ADD DUP2 SWAP1 MSTORE PUSH1 0x24 DUP3 ADD MSTORE PUSH1 0x0 DUP1 MLOAD PUSH1 0x20 PUSH2 0x5718 DUP4 CODECOPY DUP2 MLOAD SWAP2 MSTORE PUSH1 0x44 DUP3 ADD MSTORE SWAP1 MLOAD SWAP1 DUP2 SWAP1 SUB PUSH1 0x64 ADD SWAP1 REVERT JUMPDEST PUSH1 0x0 DUP1 SLOAD PUSH1 0x40 MLOAD PUSH1 0x1 PUSH1 0x1 PUSH1 0xA0 SHL SUB SWAP1 SWAP2 AND SWAP1 PUSH32 0x8BE0079C531659141344CD1FD0A4F28419497F9722A3DAAFE3B4186F6B6457E0 SWAP1 DUP4 SWAP1 LOG3 PUSH1 0x0 DUP1 SLOAD PUSH1 0x1 PUSH1 0x1 PUSH1 0xA0 SHL SUB NOT AND SWAP1 SSTORE JUMP JUMPDEST CALLER ORIGIN EQ PUSH2 0x2387 JUMPI PUSH1 0xA SLOAD PUSH1 0x40 DUP1 MLOAD PUSH4 0x6C9B2A3F PUSH1 0xE1 SHL DUP2 MSTORE CALLER PUSH1 0x4 DUP3 ADD MSTORE SWAP1 MLOAD PUSH1 0x1 PUSH1 0x1 PUSH1 0xA0 SHL SUB SWAP1 SWAP3 AND SWAP2 PUSH4 0xD936547E SWAP2 PUSH1 0x24 DUP1 DUP3 ADD SWAP3 PUSH1 0x20 SWAP3 SWAP1 SWAP2 SWAP1 DUP3 SWAP1 SUB ADD DUP2 DUP7 DUP1 EXTCODESIZE ISZERO DUP1 ISZERO PUSH2 0x2311 JUMPI PUSH1 0x0 DUP1 REVERT JUMPDEST POP GAS STATICCALL ISZERO DUP1 ISZERO PUSH2 0x2325 JUMPI RETURNDATASIZE PUSH1 0x0 DUP1 RETURNDATACOPY RETURNDATASIZE PUSH1 0x0 REVERT JUMPDEST POP POP POP POP PUSH1 0x40 MLOAD RETURNDATASIZE PUSH1 0x20 DUP2 LT ISZERO PUSH2 0x233B JUMPI PUSH1 0x0 DUP1 REVERT JUMPDEST POP MLOAD ISZERO ISZERO PUSH1 0x1 EQ PUSH2 0x2387 JUMPI PUSH1 0x40 DUP1 MLOAD PUSH3 0x461BCD PUSH1 0xE5 SHL DUP2 MSTORE PUSH1 0x20 PUSH1 0x4 DUP3 ADD MSTORE PUSH1 0x11 PUSH1 0x24 DUP3 ADD MSTORE PUSH17 0x1253959053125117D5D2125511531254D5 PUSH1 0x7A SHL PUSH1 0x44 DUP3 ADD MSTORE SWAP1 MLOAD SWAP1 DUP2 SWAP1 SUB PUSH1 0x64 ADD SWAP1 REVERT JUMPDEST TIMESTAMP DUP2 LT ISZERO PUSH2 0x23CF JUMPI PUSH1 0x40 DUP1 MLOAD PUSH3 0x461BCD PUSH1 0xE5 SHL DUP2 MSTORE PUSH1 0x20 PUSH1 0x4 DUP3 ADD MSTORE PUSH1 0x10 PUSH1 0x24 DUP3 ADD MSTORE PUSH16 0x494E56414C49445F444541444C494E45 PUSH1 0x80 SHL PUSH1 0x44 DUP3 ADD MSTORE SWAP1 MLOAD SWAP1 DUP2 SWAP1 SUB PUSH1 0x64 ADD SWAP1 REVERT JUMPDEST PUSH1 0x0 DUP4 GT PUSH2 0x241E JUMPI PUSH1 0x40 DUP1 MLOAD PUSH3 0x461BCD PUSH1 0xE5 SHL DUP2 MSTORE PUSH1 0x20 PUSH1 0x4 DUP3 ADD MSTORE PUSH1 0x17 PUSH1 0x24 DUP3 ADD MSTORE PUSH23 0x1253959053125117D3505617D513D2D15397D253941555 PUSH1 0x4A SHL PUSH1 0x44 DUP3 ADD MSTORE SWAP1 MLOAD SWAP1 DUP2 SWAP1 SUB PUSH1 0x64 ADD SWAP1 REVERT JUMPDEST PUSH1 0x0 DUP3 GT PUSH2 0x2469 JUMPI PUSH1 0x40 DUP1 MLOAD PUSH3 0x461BCD PUSH1 0xE5 SHL DUP2 MSTORE PUSH1 0x20 PUSH1 0x4 DUP3 ADD MSTORE PUSH1 0x13 PUSH1 0x24 DUP3 ADD MSTORE PUSH19 0x1253959053125117D09054D157D3D555141555 PUSH1 0x6A SHL PUSH1 0x44 DUP3 ADD MSTORE SWAP1 MLOAD SWAP1 DUP2 SWAP1 SUB PUSH1 0x64 ADD SWAP1 REVERT JUMPDEST PUSH1 0x7 SLOAD PUSH1 0x40 DUP1 MLOAD PUSH4 0x70A08231 PUSH1 0xE0 SHL DUP2 MSTORE ADDRESS PUSH1 0x4 DUP3 ADD MSTORE SWAP1 MLOAD PUSH2 0x100 SWAP1 SWAP3 DIV PUSH1 0x1 PUSH1 0x1 PUSH1 0xA0 SHL SUB AND SWAP2 PUSH4 0x70A08231 SWAP2 PUSH1 0x24 DUP1 DUP3 ADD SWAP3 PUSH1 0x20 SWAP3 SWAP1 SWAP2 SWAP1 DUP3 SWAP1 SUB ADD DUP2 DUP7 DUP1 EXTCODESIZE ISZERO DUP1 ISZERO PUSH2 0x24B8 JUMPI PUSH1 0x0 DUP1 REVERT JUMPDEST POP GAS STATICCALL ISZERO DUP1 ISZERO PUSH2 0x24CC JUMPI RETURNDATASIZE PUSH1 0x0 DUP1 RETURNDATACOPY RETURNDATASIZE PUSH1 0x0 REVERT JUMPDEST POP POP POP POP PUSH1 0x40 MLOAD RETURNDATASIZE PUSH1 0x20 DUP2 LT ISZERO PUSH2 0x24E2 JUMPI PUSH1 0x0 DUP1 REVERT JUMPDEST POP MLOAD DUP3 LT PUSH2 0x2521 JUMPI PUSH1 0x40 MLOAD PUSH3 0x461BCD PUSH1 0xE5 SHL DUP2 MSTORE PUSH1 0x4 ADD DUP1 DUP1 PUSH1 0x20 ADD DUP3 DUP2 SUB DUP3 MSTORE PUSH1 0x28 DUP2 MSTORE PUSH1 0x20 ADD DUP1 PUSH2 0x560D PUSH1 0x28 SWAP2 CODECOPY PUSH1 0x40 ADD SWAP2 POP POP PUSH1 0x40 MLOAD DUP1 SWAP2 SUB SWAP1 REVERT JUMPDEST PUSH1 0x0 DUP1 PUSH2 0x252C PUSH2 0x4AE6 JUMP JUMPDEST SWAP1 SWAP3 POP SWAP1 POP DUP2 DUP5 LT PUSH2 0x256F JUMPI PUSH1 0x40 MLOAD PUSH3 0x461BCD PUSH1 0xE5 SHL DUP2 MSTORE PUSH1 0x4 ADD DUP1 DUP1 PUSH1 0x20 ADD DUP3 DUP2 SUB DUP3 MSTORE PUSH1 0x24 DUP2 MSTORE PUSH1 0x20 ADD DUP1 PUSH2 0x57C7 PUSH1 0x24 SWAP2 CODECOPY PUSH1 0x40 ADD SWAP2 POP POP PUSH1 0x40 MLOAD DUP1 SWAP2 SUB SWAP1 REVERT JUMPDEST PUSH1 0x0 PUSH2 0x257C DUP6 DUP5 DUP5 PUSH2 0x31C2 JUMP JUMPDEST SWAP1 POP PUSH1 0x0 PUSH2 0x259B PUSH2 0x3E8 PUSH2 0xBC0 PUSH1 0xD SLOAD DUP6 PUSH2 0x4E18 SWAP1 SWAP2 SWAP1 PUSH4 0xFFFFFFFF AND JUMP JUMPDEST SWAP1 POP PUSH2 0x25A7 DUP3 DUP3 PUSH2 0x51D5 JUMP JUMPDEST SWAP2 POP DUP7 DUP3 GT ISZERO PUSH2 0x25F3 JUMPI PUSH1 0x40 DUP1 MLOAD PUSH3 0x461BCD PUSH1 0xE5 SHL DUP2 MSTORE PUSH1 0x20 PUSH1 0x4 DUP3 ADD MSTORE PUSH1 0x12 PUSH1 0x24 DUP3 ADD MSTORE PUSH18 0x43414E5F4E4F545F4D414B455F5452414445 PUSH1 0x70 SHL PUSH1 0x44 DUP3 ADD MSTORE SWAP1 MLOAD SWAP1 DUP2 SWAP1 SUB PUSH1 0x64 ADD SWAP1 REVERT JUMPDEST PUSH1 0x0 DUP3 GT PUSH2 0x263E JUMPI PUSH1 0x40 DUP1 MLOAD PUSH3 0x461BCD PUSH1 0xE5 SHL DUP2 MSTORE PUSH1 0x20 PUSH1 0x4 DUP3 ADD MSTORE PUSH1 0x13 PUSH1 0x24 DUP3 ADD MSTORE PUSH19 0x1253959053125117D513D2D15397D253941555 PUSH1 0x6A SHL PUSH1 0x44 DUP3 ADD MSTORE SWAP1 MLOAD SWAP1 DUP2 SWAP1 SUB PUSH1 0x64 ADD SWAP1 REVERT JUMPDEST PUSH1 0x8 SLOAD PUSH1 0x40 DUP1 MLOAD PUSH4 0x70A08231 PUSH1 0xE0 SHL DUP2 MSTORE CALLER PUSH1 0x4 DUP3 ADD MSTORE SWAP1 MLOAD PUSH1 0x1 PUSH1 0x1 PUSH1 0xA0 SHL SUB SWAP1 SWAP3 AND SWAP2 PUSH4 0x70A08231 SWAP2 PUSH1 0x24 DUP1 DUP3 ADD SWAP3 PUSH1 0x20 SWAP3 SWAP1 SWAP2 SWAP1 DUP3 SWAP1 SUB ADD DUP2 DUP7 DUP1 EXTCODESIZE ISZERO DUP1 ISZERO PUSH2 0x2689 JUMPI PUSH1 0x0 DUP1 REVERT JUMPDEST POP GAS STATICCALL ISZERO DUP1 ISZERO PUSH2 0x269D JUMPI RETURNDATASIZE PUSH1 0x0 DUP1 RETURNDATACOPY RETURNDATASIZE PUSH1 0x0 REVERT JUMPDEST POP POP POP POP PUSH1 0x40 MLOAD RETURNDATASIZE PUSH1 0x20 DUP2 LT ISZERO PUSH2 0x26B3 JUMPI PUSH1 0x0 DUP1 REVERT JUMPDEST POP MLOAD DUP3 GT ISZERO PUSH2 0x2709 JUMPI PUSH1 0x40 DUP1 MLOAD PUSH3 0x461BCD PUSH1 0xE5 SHL DUP2 MSTORE PUSH1 0x20 PUSH1 0x4 DUP3 ADD MSTORE PUSH1 0x1F PUSH1 0x24 DUP3 ADD MSTORE PUSH32 0x544F4B454E5F494E5055545F4849474845525F555345525F42414C414E434500 PUSH1 0x44 DUP3 ADD MSTORE SWAP1 MLOAD SWAP1 DUP2 SWAP1 SUB PUSH1 0x64 ADD SWAP1 REVERT JUMPDEST PUSH1 0x8 SLOAD PUSH1 0x40 DUP1 MLOAD PUSH4 0x23B872DD PUSH1 0xE0 SHL DUP2 MSTORE CALLER PUSH1 0x4 DUP3 ADD MSTORE ADDRESS PUSH1 0x24 DUP3 ADD MSTORE PUSH1 0x44 DUP2 ADD DUP6 SWAP1 MSTORE SWAP1 MLOAD PUSH1 0x1 PUSH1 0x1 PUSH1 0xA0 SHL SUB SWAP1 SWAP3 AND SWAP2 PUSH4 0x23B872DD SWAP2 PUSH1 0x64 DUP1 DUP3 ADD SWAP3 PUSH1 0x20 SWAP3 SWAP1 SWAP2 SWAP1 DUP3 SWAP1 SUB ADD DUP2 PUSH1 0x0 DUP8 DUP1 EXTCODESIZE ISZERO DUP1 ISZERO PUSH2 0x2763 JUMPI PUSH1 0x0 DUP1 REVERT JUMPDEST POP GAS CALL ISZERO DUP1 ISZERO PUSH2 0x2777 JUMPI RETURNDATASIZE PUSH1 0x0 DUP1 RETURNDATACOPY RETURNDATASIZE PUSH1 0x0 REVERT JUMPDEST POP POP POP POP PUSH1 0x40 MLOAD RETURNDATASIZE PUSH1 0x20 DUP2 LT ISZERO PUSH2 0x278D JUMPI PUSH1 0x0 DUP1 REVERT JUMPDEST POP POP PUSH1 0x7 SLOAD PUSH1 0x40 DUP1 MLOAD PUSH4 0xA9059CBB PUSH1 0xE0 SHL DUP2 MSTORE CALLER PUSH1 0x4 DUP3 ADD MSTORE PUSH1 0x24 DUP2 ADD DUP10 SWAP1 MSTORE SWAP1 MLOAD PUSH2 0x100 SWAP1 SWAP3 DIV PUSH1 0x1 PUSH1 0x1 PUSH1 0xA0 SHL SUB AND SWAP2 PUSH4 0xA9059CBB SWAP2 PUSH1 0x44 DUP1 DUP3 ADD SWAP3 PUSH1 0x20 SWAP3 SWAP1 SWAP2 SWAP1 DUP3 SWAP1 SUB ADD DUP2 PUSH1 0x0 DUP8 DUP1 EXTCODESIZE ISZERO DUP1 ISZERO PUSH2 0x27E7 JUMPI PUSH1 0x0 DUP1 REVERT JUMPDEST POP GAS CALL ISZERO DUP1 ISZERO PUSH2 0x27FB JUMPI RETURNDATASIZE PUSH1 0x0 DUP1 RETURNDATACOPY RETURNDATASIZE PUSH1 0x0 REVERT JUMPDEST POP POP POP POP PUSH1 0x40 MLOAD RETURNDATASIZE PUSH1 0x20 DUP2 LT ISZERO PUSH2 0x2811 JUMPI PUSH1 0x0 DUP1 REVERT JUMPDEST POP POP PUSH1 0x8 SLOAD PUSH1 0x9 SLOAD PUSH1 0x40 DUP1 MLOAD PUSH4 0xA9059CBB PUSH1 0xE0 SHL DUP2 MSTORE PUSH1 0x1 PUSH1 0x1 PUSH1 0xA0 SHL SUB SWAP3 DUP4 AND PUSH1 0x4 DUP3 ADD MSTORE PUSH1 0x24 DUP2 ADD DUP6 SWAP1 MSTORE SWAP1 MLOAD SWAP2 SWAP1 SWAP3 AND SWAP2 PUSH4 0xA9059CBB SWAP2 PUSH1 0x44 DUP1 DUP4 ADD SWAP3 PUSH1 0x20 SWAP3 SWAP2 SWAP1 DUP3 SWAP1 SUB ADD DUP2 PUSH1 0x0 DUP8 DUP1 EXTCODESIZE ISZERO DUP1 ISZERO PUSH2 0x286C JUMPI PUSH1 0x0 DUP1 REVERT JUMPDEST POP GAS CALL ISZERO DUP1 ISZERO PUSH2 0x2880 JUMPI RETURNDATASIZE PUSH1 0x0 DUP1 RETURNDATACOPY RETURNDATASIZE PUSH1 0x0 REVERT JUMPDEST POP POP POP POP PUSH1 0x40 MLOAD RETURNDATASIZE PUSH1 0x20 DUP2 LT ISZERO PUSH2 0x2896 JUMPI PUSH1 0x0 DUP1 REVERT JUMPDEST POP POP PUSH1 0x9 SLOAD PUSH1 0x8 SLOAD PUSH1 0x40 DUP1 MLOAD PUSH4 0x339DFF23 PUSH1 0xE2 SHL DUP2 MSTORE PUSH1 0x1 PUSH1 0x1 PUSH1 0xA0 SHL SUB SWAP3 DUP4 AND PUSH1 0x4 DUP3 ADD MSTORE SWAP1 MLOAD SWAP2 SWAP1 SWAP3 AND SWAP2 PUSH4 0xCE77FC8C SWAP2 PUSH1 0x24 DUP1 DUP4 ADD SWAP3 PUSH1 0x0 SWAP3 SWAP2 SWAP1 DUP3 SWAP1 SUB ADD DUP2 DUP4 DUP8 DUP1 EXTCODESIZE ISZERO DUP1 ISZERO PUSH2 0x28E9 JUMPI PUSH1 0x0 DUP1 REVERT JUMPDEST POP GAS CALL ISZERO DUP1 ISZERO PUSH2 0x28FD JUMPI RETURNDATASIZE PUSH1 0x0 DUP1 RETURNDATACOPY RETURNDATASIZE PUSH1 0x0 REVERT JUMPDEST POP POP PUSH1 0x40 DUP1 MLOAD CALLER DUP2 MSTORE PUSH1 0x20 DUP2 ADD DUP12 SWAP1 MSTORE DUP1 DUP3 ADD DUP7 SWAP1 MSTORE PUSH1 0x60 DUP2 ADD DUP11 SWAP1 MSTORE PUSH1 0x80 DUP2 ADD DUP9 SWAP1 MSTORE PUSH1 0xA0 DUP2 ADD DUP8 SWAP1 MSTORE SWAP1 MLOAD PUSH32 0xF116A588CDBA1B14C04FFD8BCA7FEE39286E7C8D9DA59D77C036430E4B415DBC SWAP4 POP SWAP1 DUP2 SWAP1 SUB PUSH1 0xC0 ADD SWAP2 POP LOG1 POP POP POP POP POP POP POP JUMP JUMPDEST PUSH1 0x0 DUP1 CALLER ORIGIN EQ PUSH2 0x2A2B JUMPI PUSH1 0xA SLOAD PUSH1 0x40 DUP1 MLOAD PUSH4 0x6C9B2A3F PUSH1 0xE1 SHL DUP2 MSTORE CALLER PUSH1 0x4 DUP3 ADD MSTORE SWAP1 MLOAD PUSH1 0x1 PUSH1 0x1 PUSH1 0xA0 SHL SUB SWAP1 SWAP3 AND SWAP2 PUSH4 0xD936547E SWAP2 PUSH1 0x24 DUP1 DUP3 ADD SWAP3 PUSH1 0x20 SWAP3 SWAP1 SWAP2 SWAP1 DUP3 SWAP1 SUB ADD DUP2 DUP7 DUP1 EXTCODESIZE ISZERO DUP1 ISZERO PUSH2 0x29B5 JUMPI PUSH1 0x0 DUP1 REVERT JUMPDEST POP GAS STATICCALL ISZERO DUP1 ISZERO PUSH2 0x29C9 JUMPI RETURNDATASIZE PUSH1 0x0 DUP1 RETURNDATACOPY RETURNDATASIZE PUSH1 0x0 REVERT JUMPDEST POP POP POP POP PUSH1 0x40 MLOAD RETURNDATASIZE PUSH1 0x20 DUP2 LT ISZERO PUSH2 0x29DF JUMPI PUSH1 0x0 DUP1 REVERT JUMPDEST POP MLOAD ISZERO ISZERO PUSH1 0x1 EQ PUSH2 0x2A2B JUMPI PUSH1 0x40 DUP1 MLOAD PUSH3 0x461BCD PUSH1 0xE5 SHL DUP2 MSTORE PUSH1 0x20 PUSH1 0x4 DUP3 ADD MSTORE PUSH1 0x11 PUSH1 0x24 DUP3 ADD MSTORE PUSH17 0x1253959053125117D5D2125511531254D5 PUSH1 0x7A SHL PUSH1 0x44 DUP3 ADD MSTORE SWAP1 MLOAD SWAP1 DUP2 SWAP1 SUB PUSH1 0x64 ADD SWAP1 REVERT JUMPDEST TIMESTAMP DUP4 LT ISZERO PUSH2 0x2A73 JUMPI PUSH1 0x40 DUP1 MLOAD PUSH3 0x461BCD PUSH1 0xE5 SHL DUP2 MSTORE PUSH1 0x20 PUSH1 0x4 DUP3 ADD MSTORE PUSH1 0x10 PUSH1 0x24 DUP3 ADD MSTORE PUSH16 0x494E56414C49445F444541444C494E45 PUSH1 0x80 SHL PUSH1 0x44 DUP3 ADD MSTORE SWAP1 MLOAD SWAP1 DUP2 SWAP1 SUB PUSH1 0x64 ADD SWAP1 REVERT JUMPDEST PUSH1 0x0 DUP7 GT PUSH2 0x2ABC JUMPI PUSH1 0x40 DUP1 MLOAD PUSH3 0x461BCD PUSH1 0xE5 SHL DUP2 MSTORE PUSH1 0x20 PUSH1 0x4 DUP3 ADD MSTORE PUSH1 0x11 PUSH1 0x24 DUP3 ADD MSTORE PUSH17 0x494E56414C49445F414D4F554E545F4C5 PUSH1 0x7C SHL PUSH1 0x44 DUP3 ADD MSTORE SWAP1 MLOAD SWAP1 DUP2 SWAP1 SUB PUSH1 0x64 ADD SWAP1 REVERT JUMPDEST PUSH1 0x0 DUP6 GT PUSH2 0x2B0B JUMPI PUSH1 0x40 DUP1 MLOAD PUSH3 0x461BCD PUSH1 0xE5 SHL DUP2 MSTORE PUSH1 0x20 PUSH1 0x4 DUP3 ADD MSTORE PUSH1 0x17 PUSH1 0x24 DUP3 ADD MSTORE PUSH23 0x1253959053125117D3525397D09054D157D3D555141555 PUSH1 0x4A SHL PUSH1 0x44 DUP3 ADD MSTORE SWAP1 MLOAD SWAP1 DUP2 SWAP1 SUB PUSH1 0x64 ADD SWAP1 REVERT JUMPDEST PUSH1 0x0 DUP5 GT PUSH2 0x2B5B JUMPI PUSH1 0x40 DUP1 MLOAD PUSH3 0x461BCD PUSH1 0xE5 SHL DUP2 MSTORE PUSH1 0x20 PUSH1 0x4 DUP3 ADD MSTORE PUSH1 0x18 PUSH1 0x24 DUP3 ADD MSTORE PUSH24 0x1253959053125117D3525397D513D2D15397D3D555141555 PUSH1 0x42 SHL PUSH1 0x44 DUP3 ADD MSTORE SWAP1 MLOAD SWAP1 DUP2 SWAP1 SUB PUSH1 0x64 ADD SWAP1 REVERT JUMPDEST PUSH1 0x0 PUSH2 0x2B65 PUSH2 0x13AE JUMP JUMPDEST SWAP1 POP PUSH1 0x0 PUSH2 0x2B72 CALLER PUSH2 0x21A6 JUMP JUMPDEST SWAP1 POP DUP1 DUP9 GT ISZERO PUSH2 0x2B80 JUMPI DUP1 SWAP8 POP JUMPDEST DUP2 DUP9 GT ISZERO PUSH2 0x2BD5 JUMPI PUSH1 0x40 DUP1 MLOAD PUSH3 0x461BCD PUSH1 0xE5 SHL DUP2 MSTORE PUSH1 0x20 PUSH1 0x4 DUP3 ADD MSTORE PUSH1 0x1E PUSH1 0x24 DUP3 ADD MSTORE PUSH32 0x494E56414C49445F414D4F554E545F4C505F544F54414C5F535550504C590000 PUSH1 0x44 DUP3 ADD MSTORE SWAP1 MLOAD SWAP1 DUP2 SWAP1 SUB PUSH1 0x64 ADD SWAP1 REVERT JUMPDEST PUSH1 0x0 DUP1 PUSH2 0x2BE0 PUSH2 0x4AE6 JUMP JUMPDEST SWAP1 SWAP3 POP SWAP1 POP PUSH1 0x0 PUSH2 0x2BF5 DUP6 PUSH2 0xBC0 DUP14 DUP7 PUSH2 0x4E18 JUMP JUMPDEST SWAP1 POP PUSH1 0x0 PUSH2 0x2C07 DUP7 PUSH2 0xBC0 DUP15 DUP7 PUSH2 0x4E18 JUMP JUMPDEST SWAP1 POP DUP11 DUP3 LT ISZERO PUSH2 0x2C54 JUMPI PUSH1 0x40 DUP1 MLOAD PUSH3 0x461BCD PUSH1 0xE5 SHL DUP2 MSTORE PUSH1 0x20 PUSH1 0x4 DUP3 ADD MSTORE PUSH1 0x13 PUSH1 0x24 DUP3 ADD MSTORE PUSH19 0x1253959053125117D09054D157D3D555141555 PUSH1 0x6A SHL PUSH1 0x44 DUP3 ADD MSTORE SWAP1 MLOAD SWAP1 DUP2 SWAP1 SUB PUSH1 0x64 ADD SWAP1 REVERT JUMPDEST DUP10 DUP2 LT ISZERO PUSH2 0x2CA0 JUMPI PUSH1 0x40 DUP1 MLOAD PUSH3 0x461BCD PUSH1 0xE5 SHL DUP2 MSTORE PUSH1 0x20 PUSH1 0x4 DUP3 ADD MSTORE PUSH1 0x14 PUSH1 0x24 DUP3 ADD MSTORE PUSH20 0x1253959053125117D513D2D15397D3D555141555 PUSH1 0x62 SHL PUSH1 0x44 DUP3 ADD MSTORE SWAP1 MLOAD SWAP1 DUP2 SWAP1 SUB PUSH1 0x64 ADD SWAP1 REVERT JUMPDEST DUP4 DUP3 GT ISZERO PUSH2 0x2CF5 JUMPI PUSH1 0x40 DUP1 MLOAD PUSH3 0x461BCD PUSH1 0xE5 SHL DUP2 MSTORE PUSH1 0x20 PUSH1 0x4 DUP3 ADD MSTORE PUSH1 0x1F PUSH1 0x24 DUP3 ADD MSTORE PUSH32 0x424153455F4F55545055545F4849474845525F424153455F42414C414E434500 PUSH1 0x44 DUP3 ADD MSTORE SWAP1 MLOAD SWAP1 DUP2 SWAP1 SUB PUSH1 0x64 ADD SWAP1 REVERT JUMPDEST DUP3 DUP2 GT ISZERO PUSH2 0x2D34 JUMPI PUSH1 0x40 MLOAD PUSH3 0x461BCD PUSH1 0xE5 SHL DUP2 MSTORE PUSH1 0x4 ADD DUP1 DUP1 PUSH1 0x20 ADD DUP3 DUP2 SUB DUP3 MSTORE PUSH1 0x21 DUP2 MSTORE PUSH1 0x20 ADD DUP1 PUSH2 0x580D PUSH1 0x21 SWAP2 CODECOPY PUSH1 0x40 ADD SWAP2 POP POP PUSH1 0x40 MLOAD DUP1 SWAP2 SUB SWAP1 REVERT JUMPDEST PUSH1 0x8 SLOAD PUSH1 0x40 DUP1 MLOAD PUSH4 0x70A08231 PUSH1 0xE0 SHL DUP2 MSTORE ADDRESS PUSH1 0x4 DUP3 ADD MSTORE SWAP1 MLOAD PUSH1 0x1 PUSH1 0x1 PUSH1 0xA0 SHL SUB SWAP1 SWAP3 AND SWAP2 PUSH4 0x70A08231 SWAP2 PUSH1 0x24 DUP1 DUP3 ADD SWAP3 PUSH1 0x20 SWAP3 SWAP1 SWAP2 SWAP1 DUP3 SWAP1 SUB ADD DUP2 DUP7 DUP1 EXTCODESIZE ISZERO DUP1 ISZERO PUSH2 0x2D7F JUMPI PUSH1 0x0 DUP1 REVERT JUMPDEST POP GAS STATICCALL ISZERO DUP1 ISZERO PUSH2 0x2D93 JUMPI RETURNDATASIZE PUSH1 0x0 DUP1 RETURNDATACOPY RETURNDATASIZE PUSH1 0x0 REVERT JUMPDEST POP POP POP POP PUSH1 0x40 MLOAD RETURNDATASIZE PUSH1 0x20 DUP2 LT ISZERO PUSH2 0x2DA9 JUMPI PUSH1 0x0 DUP1 REVERT JUMPDEST POP MLOAD DUP2 GT DUP1 PUSH2 0x2E31 JUMPI POP PUSH1 0x7 SLOAD PUSH1 0x40 DUP1 MLOAD PUSH4 0x70A08231 PUSH1 0xE0 SHL DUP2 MSTORE ADDRESS PUSH1 0x4 DUP3 ADD MSTORE SWAP1 MLOAD PUSH2 0x100 SWAP1 SWAP3 DIV PUSH1 0x1 PUSH1 0x1 PUSH1 0xA0 SHL SUB AND SWAP2 PUSH4 0x70A08231 SWAP2 PUSH1 0x24 DUP1 DUP3 ADD SWAP3 PUSH1 0x20 SWAP3 SWAP1 SWAP2 SWAP1 DUP3 SWAP1 SUB ADD DUP2 DUP7 DUP1 EXTCODESIZE ISZERO DUP1 ISZERO PUSH2 0x2E02 JUMPI PUSH1 0x0 DUP1 REVERT JUMPDEST POP GAS STATICCALL ISZERO DUP1 ISZERO PUSH2 0x2E16 JUMPI RETURNDATASIZE PUSH1 0x0 DUP1 RETURNDATACOPY RETURNDATASIZE PUSH1 0x0 REVERT JUMPDEST POP POP POP POP PUSH1 0x40 MLOAD RETURNDATASIZE PUSH1 0x20 DUP2 LT ISZERO PUSH2 0x2E2C JUMPI PUSH1 0x0 DUP1 REVERT JUMPDEST POP MLOAD DUP3 GT JUMPDEST ISZERO PUSH2 0x2E9F JUMPI PUSH1 0xC PUSH1 0x0 SWAP1 SLOAD SWAP1 PUSH2 0x100 EXP SWAP1 DIV PUSH1 0x1 PUSH1 0x1 PUSH1 0xA0 SHL SUB AND PUSH1 0x1 PUSH1 0x1 PUSH1 0xA0 SHL SUB AND PUSH4 0x640344DD PUSH1 0x40 MLOAD DUP2 PUSH4 0xFFFFFFFF AND PUSH1 0xE0 SHL DUP2 MSTORE PUSH1 0x4 ADD PUSH1 0x0 PUSH1 0x40 MLOAD DUP1 DUP4 SUB DUP2 PUSH1 0x0 DUP8 DUP1 EXTCODESIZE ISZERO DUP1 ISZERO PUSH2 0x2E86 JUMPI PUSH1 0x0 DUP1 REVERT JUMPDEST POP GAS CALL ISZERO DUP1 ISZERO PUSH2 0x2E9A JUMPI RETURNDATASIZE PUSH1 0x0 DUP1 RETURNDATACOPY RETURNDATASIZE PUSH1 0x0 REVERT JUMPDEST POP POP POP POP JUMPDEST PUSH2 0x2EA9 CALLER DUP14 PUSH2 0x5315 JUMP JUMPDEST PUSH1 0x7 SLOAD PUSH1 0x40 DUP1 MLOAD PUSH4 0xA9059CBB PUSH1 0xE0 SHL DUP2 MSTORE CALLER PUSH1 0x4 DUP3 ADD MSTORE PUSH1 0x24 DUP2 ADD DUP6 SWAP1 MSTORE SWAP1 MLOAD PUSH2 0x100 SWAP1 SWAP3 DIV PUSH1 0x1 PUSH1 0x1 PUSH1 0xA0 SHL SUB AND SWAP2 PUSH4 0xA9059CBB SWAP2 PUSH1 0x44 DUP1 DUP3 ADD SWAP3 PUSH1 0x20 SWAP3 SWAP1 SWAP2 SWAP1 DUP3 SWAP1 SUB ADD DUP2 PUSH1 0x0 DUP8 DUP1 EXTCODESIZE ISZERO DUP1 ISZERO PUSH2 0x2F01 JUMPI PUSH1 0x0 DUP1 REVERT JUMPDEST POP GAS CALL ISZERO DUP1 ISZERO PUSH2 0x2F15 JUMPI RETURNDATASIZE PUSH1 0x0 DUP1 RETURNDATACOPY RETURNDATASIZE PUSH1 0x0 REVERT JUMPDEST POP POP POP POP PUSH1 0x40 MLOAD RETURNDATASIZE PUSH1 0x20 DUP2 LT ISZERO PUSH2 0x2F2B JUMPI PUSH1 0x0 DUP1 REVERT JUMPDEST POP POP PUSH1 0x8 SLOAD PUSH1 0x40 DUP1 MLOAD PUSH4 0xA9059CBB PUSH1 0xE0 SHL DUP2 MSTORE CALLER PUSH1 0x4 DUP3 ADD MSTORE PUSH1 0x24 DUP2 ADD DUP5 SWAP1 MSTORE SWAP1 MLOAD PUSH1 0x1 PUSH1 0x1 PUSH1 0xA0 SHL SUB SWAP1 SWAP3 AND SWAP2 PUSH4 0xA9059CBB SWAP2 PUSH1 0x44 DUP1 DUP3 ADD SWAP3 PUSH1 0x20 SWAP3 SWAP1 SWAP2 SWAP1 DUP3 SWAP1 SUB ADD DUP2 PUSH1 0x0 DUP8 DUP1 EXTCODESIZE ISZERO DUP1 ISZERO PUSH2 0x2F81 JUMPI PUSH1 0x0 DUP1 REVERT JUMPDEST POP GAS CALL ISZERO DUP1 ISZERO PUSH2 0x2F95 JUMPI RETURNDATASIZE PUSH1 0x0 DUP1 RETURNDATACOPY RETURNDATASIZE PUSH1 0x0 REVERT JUMPDEST POP POP POP POP PUSH1 0x40 MLOAD RETURNDATASIZE PUSH1 0x20 DUP2 LT ISZERO PUSH2 0x2FAB JUMPI PUSH1 0x0 DUP1 REVERT JUMPDEST DUP2 ADD SWAP1 DUP1 DUP1 MLOAD SWAP1 PUSH1 0x20 ADD SWAP1 SWAP3 SWAP2 SWAP1 POP POP POP POP PUSH32 0x555901717744791E9E27303C0DF147D5A5EEA5B7098591B2C5F2138ED6A605DE CALLER DUP14 DUP5 DUP5 PUSH1 0x7 PUSH1 0x1 SWAP1 SLOAD SWAP1 PUSH2 0x100 EXP SWAP1 DIV PUSH1 0x1 PUSH1 0x1 PUSH1 0xA0 SHL SUB AND PUSH1 0x1 PUSH1 0x1 PUSH1 0xA0 SHL SUB AND PUSH4 0x70A08231 ADDRESS PUSH1 0x40 MLOAD DUP3 PUSH4 0xFFFFFFFF AND PUSH1 0xE0 SHL DUP2 MSTORE PUSH1 0x4 ADD DUP1 DUP3 PUSH1 0x1 PUSH1 0x1 PUSH1 0xA0 SHL SUB AND DUP2 MSTORE PUSH1 0x20 ADD SWAP2 POP POP PUSH1 0x20 PUSH1 0x40 MLOAD DUP1 DUP4 SUB DUP2 DUP7 DUP1 EXTCODESIZE ISZERO DUP1 ISZERO PUSH2 0x3044 JUMPI PUSH1 0x0 DUP1 REVERT JUMPDEST POP GAS STATICCALL ISZERO DUP1 ISZERO PUSH2 0x3058 JUMPI RETURNDATASIZE PUSH1 0x0 DUP1 RETURNDATACOPY RETURNDATASIZE PUSH1 0x0 REVERT JUMPDEST POP POP POP POP PUSH1 0x40 MLOAD RETURNDATASIZE PUSH1 0x20 DUP2 LT ISZERO PUSH2 0x306E JUMPI PUSH1 0x0 DUP1 REVERT JUMPDEST POP MLOAD PUSH1 0x8 SLOAD PUSH1 0x40 DUP1 MLOAD PUSH4 0x70A08231 PUSH1 0xE0 SHL DUP2 MSTORE ADDRESS PUSH1 0x4 DUP3 ADD MSTORE SWAP1 MLOAD PUSH1 0x1 PUSH1 0x1 PUSH1 0xA0 SHL SUB SWAP1 SWAP3 AND SWAP2 PUSH4 0x70A08231 SWAP2 PUSH1 0x24 DUP1 DUP3 ADD SWAP3 PUSH1 0x20 SWAP3 SWAP1 SWAP2 SWAP1 DUP3 SWAP1 SUB ADD DUP2 DUP7 DUP1 EXTCODESIZE ISZERO DUP1 ISZERO PUSH2 0x30BB JUMPI PUSH1 0x0 DUP1 REVERT JUMPDEST POP GAS STATICCALL ISZERO DUP1 ISZERO PUSH2 0x30CF JUMPI RETURNDATASIZE PUSH1 0x0 DUP1 RETURNDATACOPY RETURNDATASIZE PUSH1 0x0 REVERT JUMPDEST POP POP POP POP PUSH1 0x40 MLOAD RETURNDATASIZE PUSH1 0x20 DUP2 LT ISZERO PUSH2 0x30E5 JUMPI PUSH1 0x0 DUP1 REVERT JUMPDEST POP MLOAD PUSH1 0x40 DUP1 MLOAD PUSH1 0x1 PUSH1 0x1 PUSH1 0xA0 SHL SUB SWAP1 SWAP8 AND DUP8 MSTORE PUSH1 0x20 DUP8 ADD SWAP6 SWAP1 SWAP6 MSTORE DUP6 DUP6 ADD SWAP4 SWAP1 SWAP4 MSTORE PUSH1 0x60 DUP6 ADD SWAP2 SWAP1 SWAP2 MSTORE PUSH1 0x80 DUP5 ADD MSTORE PUSH1 0xA0 DUP4 ADD MSTORE MLOAD SWAP1 DUP2 SWAP1 SUB PUSH1 0xC0 ADD SWAP1 LOG1 SWAP1 SWAP12 SWAP1 SWAP11 POP SWAP9 POP POP POP POP POP POP POP POP POP JUMP JUMPDEST PUSH1 0xA SLOAD PUSH1 0x1 PUSH1 0x1 PUSH1 0xA0 SHL SUB AND DUP2 JUMP JUMPDEST PUSH1 0x0 PUSH2 0x314D PUSH2 0x3152 JUMP JUMPDEST SWAP1 POP SWAP1 JUMP JUMPDEST PUSH1 0x0 SLOAD PUSH1 0x1 PUSH1 0x1 PUSH1 0xA0 SHL SUB AND SWAP1 JUMP JUMPDEST PUSH1 0x5 DUP1 SLOAD PUSH1 0x40 DUP1 MLOAD PUSH1 0x20 PUSH1 0x1F PUSH1 0x2 PUSH1 0x0 NOT PUSH2 0x100 PUSH1 0x1 DUP9 AND ISZERO MUL ADD SWAP1 SWAP6 AND SWAP5 SWAP1 SWAP5 DIV SWAP4 DUP5 ADD DUP2 SWAP1 DIV DUP2 MUL DUP3 ADD DUP2 ADD SWAP1 SWAP3 MSTORE DUP3 DUP2 MSTORE PUSH1 0x60 SWAP4 SWAP1 SWAP3 SWAP1 SWAP2 DUP4 ADD DUP3 DUP3 DUP1 ISZERO PUSH2 0x1009 JUMPI DUP1 PUSH1 0x1F LT PUSH2 0xFDE JUMPI PUSH2 0x100 DUP1 DUP4 SLOAD DIV MUL DUP4 MSTORE SWAP2 PUSH1 0x20 ADD SWAP2 PUSH2 0x1009 JUMP JUMPDEST PUSH1 0x0 DUP1 DUP4 GT DUP1 ISZERO PUSH2 0x31D3 JUMPI POP PUSH1 0x0 DUP3 GT JUMPDEST PUSH2 0x3214 JUMPI PUSH1 0x40 DUP1 MLOAD PUSH3 0x461BCD PUSH1 0xE5 SHL DUP2 MSTORE PUSH1 0x20 PUSH1 0x4 DUP3 ADD MSTORE PUSH1 0xD PUSH1 0x24 DUP3 ADD MSTORE PUSH13 0x494E56414C49445F56414C5545 PUSH1 0x98 SHL PUSH1 0x44 DUP3 ADD MSTORE SWAP1 MLOAD SWAP1 DUP2 SWAP1 SUB PUSH1 0x64 ADD SWAP1 REVERT JUMPDEST PUSH1 0x0 PUSH2 0x3220 DUP4 DUP6 PUSH2 0x4E18 JUMP JUMPDEST SWAP1 POP PUSH1 0x0 PUSH2 0x322E DUP6 DUP8 PUSH2 0x4EBA JUMP JUMPDEST SWAP1 POP PUSH1 0x0 PUSH2 0x1078 DUP6 PUSH2 0x1D6D DUP6 DUP6 PUSH2 0x4E78 JUMP JUMPDEST PUSH1 0xC SLOAD PUSH1 0x1 PUSH1 0x1 PUSH1 0xA0 SHL SUB AND DUP2 JUMP JUMPDEST PUSH1 0x0 PUSH2 0x1027 PUSH2 0x325C PUSH2 0x4EFC JUMP JUMPDEST DUP5 PUSH2 0x142C DUP6 PUSH1 0x40 MLOAD DUP1 PUSH1 0x60 ADD PUSH1 0x40 MSTORE DUP1 PUSH1 0x25 DUP2 MSTORE PUSH1 0x20 ADD PUSH2 0x5781 PUSH1 0x25 SWAP2 CODECOPY PUSH1 0x2 PUSH1 0x0 PUSH2 0x3286 PUSH2 0x4EFC JUMP JUMPDEST PUSH1 0x1 PUSH1 0x1 PUSH1 0xA0 SHL SUB SWAP1 DUP2 AND DUP3 MSTORE PUSH1 0x20 DUP1 DUP4 ADD SWAP4 SWAP1 SWAP4 MSTORE PUSH1 0x40 SWAP2 DUP3 ADD PUSH1 0x0 SWAP1 DUP2 KECCAK256 SWAP2 DUP14 AND DUP2 MSTORE SWAP3 MSTORE SWAP1 KECCAK256 SLOAD SWAP2 SWAP1 PUSH2 0x513E JUMP JUMPDEST PUSH2 0x32BF PUSH2 0x4EFC JUMP JUMPDEST PUSH1 0x0 SLOAD PUSH1 0x1 PUSH1 0x1 PUSH1 0xA0 SHL SUB SWAP1 DUP2 AND SWAP2 AND EQ PUSH2 0x330F JUMPI PUSH1 0x40 DUP1 MLOAD PUSH3 0x461BCD PUSH1 0xE5 SHL DUP2 MSTORE PUSH1 0x20 PUSH1 0x4 DUP3 ADD DUP2 SWAP1 MSTORE PUSH1 0x24 DUP3 ADD MSTORE PUSH1 0x0 DUP1 MLOAD PUSH1 0x20 PUSH2 0x5718 DUP4 CODECOPY DUP2 MLOAD SWAP2 MSTORE PUSH1 0x44 DUP3 ADD MSTORE SWAP1 MLOAD SWAP1 DUP2 SWAP1 SUB PUSH1 0x64 ADD SWAP1 REVERT JUMPDEST PUSH1 0xC SLOAD PUSH1 0x1 PUSH1 0x1 PUSH1 0xA0 SHL SUB AND PUSH2 0x3363 JUMPI PUSH1 0x40 DUP1 MLOAD PUSH3 0x461BCD PUSH1 0xE5 SHL DUP2 MSTORE PUSH1 0x20 PUSH1 0x4 DUP3 ADD MSTORE PUSH1 0x14 PUSH1 0x24 DUP3 ADD MSTORE PUSH20 0x494E56414C49445F4641524D5F41444452455353 PUSH1 0x60 SHL PUSH1 0x44 DUP3 ADD MSTORE SWAP1 MLOAD SWAP1 DUP2 SWAP1 SUB PUSH1 0x64 ADD SWAP1 REVERT JUMPDEST PUSH1 0x7 SLOAD PUSH2 0x100 SWAP1 DIV PUSH1 0x1 PUSH1 0x1 PUSH1 0xA0 SHL SUB AND PUSH2 0x33BC JUMPI PUSH1 0x40 DUP1 MLOAD PUSH3 0x461BCD PUSH1 0xE5 SHL DUP2 MSTORE PUSH1 0x20 PUSH1 0x4 DUP3 ADD MSTORE PUSH1 0x14 PUSH1 0x24 DUP3 ADD MSTORE PUSH20 0x494E56414C49445F424153455F41444452455353 PUSH1 0x60 SHL PUSH1 0x44 DUP3 ADD MSTORE SWAP1 MLOAD SWAP1 DUP2 SWAP1 SUB PUSH1 0x64 ADD SWAP1 REVERT JUMPDEST PUSH1 0x8 SLOAD PUSH1 0x1 PUSH1 0x1 PUSH1 0xA0 SHL SUB AND PUSH2 0x3411 JUMPI PUSH1 0x40 DUP1 MLOAD PUSH3 0x461BCD PUSH1 0xE5 SHL DUP2 MSTORE PUSH1 0x20 PUSH1 0x4 DUP3 ADD MSTORE PUSH1 0x15 PUSH1 0x24 DUP3 ADD MSTORE PUSH21 0x494E56414C49445F544F4B454E5F41444452455353 PUSH1 0x58 SHL PUSH1 0x44 DUP3 ADD MSTORE SWAP1 MLOAD SWAP1 DUP2 SWAP1 SUB PUSH1 0x64 ADD SWAP1 REVERT JUMPDEST PUSH1 0xC PUSH1 0x0 SWAP1 SLOAD SWAP1 PUSH2 0x100 EXP SWAP1 DIV PUSH1 0x1 PUSH1 0x1 PUSH1 0xA0 SHL SUB AND PUSH1 0x1 PUSH1 0x1 PUSH1 0xA0 SHL SUB AND PUSH4 0x640344DD PUSH1 0x40 MLOAD DUP2 PUSH4 0xFFFFFFFF AND PUSH1 0xE0 SHL DUP2 MSTORE PUSH1 0x4 ADD PUSH1 0x0 PUSH1 0x40 MLOAD DUP1 DUP4 SUB DUP2 PUSH1 0x0 DUP8 DUP1 EXTCODESIZE ISZERO DUP1 ISZERO PUSH2 0x3461 JUMPI PUSH1 0x0 DUP1 REVERT JUMPDEST POP GAS CALL ISZERO DUP1 ISZERO PUSH2 0x3475 JUMPI RETURNDATASIZE PUSH1 0x0 DUP1 RETURNDATACOPY RETURNDATASIZE PUSH1 0x0 REVERT JUMPDEST POP POP PUSH1 0x7 SLOAD PUSH1 0x40 DUP1 MLOAD PUSH4 0x70A08231 PUSH1 0xE0 SHL DUP2 MSTORE ADDRESS PUSH1 0x4 DUP3 ADD MSTORE SWAP1 MLOAD PUSH1 0x0 SWAP5 POP PUSH2 0x100 SWAP1 SWAP3 DIV PUSH1 0x1 PUSH1 0x1 PUSH1 0xA0 SHL SUB AND SWAP3 POP PUSH4 0x70A08231 SWAP2 PUSH1 0x24 DUP1 DUP4 ADD SWAP3 PUSH1 0x20 SWAP3 SWAP2 SWAP1 DUP3 SWAP1 SUB ADD DUP2 DUP7 DUP1 EXTCODESIZE ISZERO DUP1 ISZERO PUSH2 0x34CA JUMPI PUSH1 0x0 DUP1 REVERT JUMPDEST POP GAS STATICCALL ISZERO DUP1 ISZERO PUSH2 0x34DE JUMPI RETURNDATASIZE PUSH1 0x0 DUP1 RETURNDATACOPY RETURNDATASIZE PUSH1 0x0 REVERT JUMPDEST POP POP POP POP PUSH1 0x40 MLOAD RETURNDATASIZE PUSH1 0x20 DUP2 LT ISZERO PUSH2 0x34F4 JUMPI PUSH1 0x0 DUP1 REVERT JUMPDEST POP MLOAD PUSH1 0x8 SLOAD PUSH1 0x40 DUP1 MLOAD PUSH4 0x70A08231 PUSH1 0xE0 SHL DUP2 MSTORE ADDRESS PUSH1 0x4 DUP3 ADD MSTORE SWAP1 MLOAD SWAP3 SWAP4 POP PUSH1 0x0 SWAP3 PUSH1 0x1 PUSH1 0x1 PUSH1 0xA0 SHL SUB SWAP1 SWAP3 AND SWAP2 PUSH4 0x70A08231 SWAP2 PUSH1 0x24 DUP1 DUP3 ADD SWAP3 PUSH1 0x20 SWAP3 SWAP1 SWAP2 SWAP1 DUP3 SWAP1 SUB ADD DUP2 DUP7 DUP1 EXTCODESIZE ISZERO DUP1 ISZERO PUSH2 0x3547 JUMPI PUSH1 0x0 DUP1 REVERT JUMPDEST POP GAS STATICCALL ISZERO DUP1 ISZERO PUSH2 0x355B JUMPI RETURNDATASIZE PUSH1 0x0 DUP1 RETURNDATACOPY RETURNDATASIZE PUSH1 0x0 REVERT JUMPDEST POP POP POP POP PUSH1 0x40 MLOAD RETURNDATASIZE PUSH1 0x20 DUP2 LT ISZERO PUSH2 0x3571 JUMPI PUSH1 0x0 DUP1 REVERT JUMPDEST POP MLOAD PUSH1 0xC SLOAD PUSH1 0x40 DUP1 MLOAD PUSH4 0x59BF5D39 PUSH1 0xE0 SHL DUP2 MSTORE DUP2 MLOAD SWAP4 SWAP5 POP PUSH1 0x0 SWAP4 DUP5 SWAP4 PUSH1 0x1 PUSH1 0x1 PUSH1 0xA0 SHL SUB AND SWAP3 PUSH4 0x59BF5D39 SWAP3 PUSH1 0x4 DUP1 DUP3 ADD SWAP4 SWAP2 DUP3 SWAP1 SUB ADD DUP2 DUP7 DUP1 EXTCODESIZE ISZERO DUP1 ISZERO PUSH2 0x35B9 JUMPI PUSH1 0x0 DUP1 REVERT JUMPDEST POP GAS STATICCALL ISZERO DUP1 ISZERO PUSH2 0x35CD JUMPI RETURNDATASIZE PUSH1 0x0 DUP1 RETURNDATACOPY RETURNDATASIZE PUSH1 0x0 REVERT JUMPDEST POP POP POP POP PUSH1 0x40 MLOAD RETURNDATASIZE PUSH1 0x40 DUP2 LT ISZERO PUSH2 0x35E3 JUMPI PUSH1 0x0 DUP1 REVERT JUMPDEST POP DUP1 MLOAD PUSH1 0x20 SWAP1 SWAP2 ADD MLOAD SWAP1 SWAP3 POP SWAP1 POP DUP2 DUP5 GT ISZERO PUSH2 0x3698 JUMPI PUSH1 0x0 PUSH2 0x360A PUSH1 0x2 PUSH2 0xBC0 DUP8 DUP7 PUSH2 0x4EBA JUMP JUMPDEST PUSH1 0x7 SLOAD PUSH1 0xC SLOAD PUSH1 0x40 DUP1 MLOAD PUSH4 0xA9059CBB PUSH1 0xE0 SHL DUP2 MSTORE PUSH1 0x1 PUSH1 0x1 PUSH1 0xA0 SHL SUB SWAP3 DUP4 AND PUSH1 0x4 DUP3 ADD MSTORE PUSH1 0x24 DUP2 ADD DUP6 SWAP1 MSTORE SWAP1 MLOAD SWAP4 SWAP5 POP PUSH2 0x100 SWAP1 SWAP3 DIV AND SWAP2 PUSH4 0xA9059CBB SWAP2 PUSH1 0x44 DUP1 DUP3 ADD SWAP3 PUSH1 0x20 SWAP3 SWAP1 SWAP2 SWAP1 DUP3 SWAP1 SUB ADD DUP2 PUSH1 0x0 DUP8 DUP1 EXTCODESIZE ISZERO DUP1 ISZERO PUSH2 0x366A JUMPI PUSH1 0x0 DUP1 REVERT JUMPDEST POP GAS CALL ISZERO DUP1 ISZERO PUSH2 0x367E JUMPI RETURNDATASIZE PUSH1 0x0 DUP1 RETURNDATACOPY RETURNDATASIZE PUSH1 0x0 REVERT JUMPDEST POP POP POP POP PUSH1 0x40 MLOAD RETURNDATASIZE PUSH1 0x20 DUP2 LT ISZERO PUSH2 0x3694 JUMPI PUSH1 0x0 DUP1 REVERT JUMPDEST POP POP POP JUMPDEST DUP2 DUP5 LT ISZERO PUSH2 0x371B JUMPI PUSH1 0x0 PUSH2 0x36B1 PUSH1 0x2 PUSH2 0xBC0 DUP6 DUP9 PUSH2 0x4EBA JUMP JUMPDEST PUSH1 0xC SLOAD PUSH1 0x40 DUP1 MLOAD PUSH4 0xEDE198BB PUSH1 0xE0 SHL DUP2 MSTORE PUSH1 0x4 DUP2 ADD DUP5 SWAP1 MSTORE SWAP1 MLOAD SWAP3 SWAP4 POP PUSH1 0x1 PUSH1 0x1 PUSH1 0xA0 SHL SUB SWAP1 SWAP2 AND SWAP2 PUSH4 0xEDE198BB SWAP2 PUSH1 0x24 DUP1 DUP3 ADD SWAP3 PUSH1 0x0 SWAP3 SWAP1 SWAP2 SWAP1 DUP3 SWAP1 SUB ADD DUP2 DUP4 DUP8 DUP1 EXTCODESIZE ISZERO DUP1 ISZERO PUSH2 0x3701 JUMPI PUSH1 0x0 DUP1 REVERT JUMPDEST POP GAS CALL ISZERO DUP1 ISZERO PUSH2 0x3715 JUMPI RETURNDATASIZE PUSH1 0x0 DUP1 RETURNDATACOPY RETURNDATASIZE PUSH1 0x0 REVERT JUMPDEST POP POP POP POP POP JUMPDEST DUP1 DUP4 GT ISZERO PUSH2 0x37BD JUMPI PUSH1 0x0 PUSH2 0x3734 PUSH1 0x2 PUSH2 0xBC0 DUP7 DUP6 PUSH2 0x4EBA JUMP JUMPDEST PUSH1 0x8 SLOAD PUSH1 0xC SLOAD PUSH1 0x40 DUP1 MLOAD PUSH4 0xA9059CBB PUSH1 0xE0 SHL DUP2 MSTORE PUSH1 0x1 PUSH1 0x1 PUSH1 0xA0 SHL SUB SWAP3 DUP4 AND PUSH1 0x4 DUP3 ADD MSTORE PUSH1 0x24 DUP2 ADD DUP6 SWAP1 MSTORE SWAP1 MLOAD SWAP4 SWAP5 POP SWAP2 AND SWAP2 PUSH4 0xA9059CBB SWAP2 PUSH1 0x44 DUP1 DUP3 ADD SWAP3 PUSH1 0x20 SWAP3 SWAP1 SWAP2 SWAP1 DUP3 SWAP1 SUB ADD DUP2 PUSH1 0x0 DUP8 DUP1 EXTCODESIZE ISZERO DUP1 ISZERO PUSH2 0x378F JUMPI PUSH1 0x0 DUP1 REVERT JUMPDEST POP GAS CALL ISZERO DUP1 ISZERO PUSH2 0x37A3 JUMPI RETURNDATASIZE PUSH1 0x0 DUP1 RETURNDATACOPY RETURNDATASIZE PUSH1 0x0 REVERT JUMPDEST POP POP POP POP PUSH1 0x40 MLOAD RETURNDATASIZE PUSH1 0x20 DUP2 LT ISZERO PUSH2 0x37B9 JUMPI PUSH1 0x0 DUP1 REVERT JUMPDEST POP POP POP JUMPDEST DUP1 DUP4 LT ISZERO PUSH2 0x3840 JUMPI PUSH1 0x0 PUSH2 0x37D6 PUSH1 0x2 PUSH2 0xBC0 DUP6 DUP8 PUSH2 0x4EBA JUMP JUMPDEST PUSH1 0xC SLOAD PUSH1 0x40 DUP1 MLOAD PUSH4 0x9C34EFF PUSH1 0xE3 SHL DUP2 MSTORE PUSH1 0x4 DUP2 ADD DUP5 SWAP1 MSTORE SWAP1 MLOAD SWAP3 SWAP4 POP PUSH1 0x1 PUSH1 0x1 PUSH1 0xA0 SHL SUB SWAP1 SWAP2 AND SWAP2 PUSH4 0x4E1A77F8 SWAP2 PUSH1 0x24 DUP1 DUP3 ADD SWAP3 PUSH1 0x0 SWAP3 SWAP1 SWAP2 SWAP1 DUP3 SWAP1 SUB ADD DUP2 DUP4 DUP8 DUP1 EXTCODESIZE ISZERO DUP1 ISZERO PUSH2 0x3826 JUMPI PUSH1 0x0 DUP1 REVERT JUMPDEST POP GAS CALL ISZERO DUP1 ISZERO PUSH2 0x383A JUMPI RETURNDATASIZE PUSH1 0x0 DUP1 RETURNDATACOPY RETURNDATASIZE PUSH1 0x0 REVERT JUMPDEST POP POP POP POP POP JUMPDEST POP POP POP POP JUMP JUMPDEST PUSH1 0x0 PUSH2 0x1027 PUSH2 0x3853 PUSH2 0x4EFC JUMP JUMPDEST DUP5 DUP5 PUSH2 0x4FEC JUMP JUMPDEST PUSH1 0x0 DUP1 DUP4 GT DUP1 ISZERO PUSH2 0x386B JUMPI POP PUSH1 0x0 DUP3 GT JUMPDEST PUSH2 0x38AC JUMPI PUSH1 0x40 DUP1 MLOAD PUSH3 0x461BCD PUSH1 0xE5 SHL DUP2 MSTORE PUSH1 0x20 PUSH1 0x4 DUP3 ADD MSTORE PUSH1 0xD PUSH1 0x24 DUP3 ADD MSTORE PUSH13 0x494E56414C49445F56414C5545 PUSH1 0x98 SHL PUSH1 0x44 DUP3 ADD MSTORE SWAP1 MLOAD SWAP1 DUP2 SWAP1 SUB PUSH1 0x64 ADD SWAP1 REVERT JUMPDEST PUSH1 0x0 PUSH2 0x38B8 DUP4 DUP6 PUSH2 0x4E18 JUMP JUMPDEST SWAP1 POP PUSH1 0x0 PUSH2 0x38C6 DUP5 DUP8 PUSH2 0x4EBA JUMP JUMPDEST SWAP1 POP PUSH1 0x0 PUSH2 0x1078 DUP7 PUSH2 0x1D6D DUP6 DUP6 PUSH2 0x4E78 JUMP JUMPDEST PUSH1 0x0 DUP1 PUSH1 0x0 PUSH2 0x38E5 PUSH2 0x13AE JUMP JUMPDEST SWAP1 POP PUSH1 0x0 DUP1 DUP3 PUSH2 0x38F9 JUMPI POP DUP5 SWAP1 POP DUP1 PUSH2 0x219B JUMP JUMPDEST PUSH1 0x0 DUP1 PUSH2 0x3904 PUSH2 0x4AE6 JUMP JUMPDEST SWAP1 SWAP3 POP SWAP1 POP PUSH2 0x3925 DUP2 PUSH2 0x1D6D DUP5 PUSH2 0xBC0 PUSH2 0x391E DUP3 DUP15 PUSH2 0x51D5 JUMP JUMPDEST DUP7 SWAP1 PUSH2 0x4E18 JUMP JUMPDEST SWAP3 POP PUSH2 0x2196 DUP3 PUSH2 0xBC0 DUP8 DUP12 PUSH2 0x4E18 JUMP JUMPDEST CALLER ORIGIN EQ PUSH2 0x39FD JUMPI PUSH1 0xA SLOAD PUSH1 0x40 DUP1 MLOAD PUSH4 0x6C9B2A3F PUSH1 0xE1 SHL DUP2 MSTORE CALLER PUSH1 0x4 DUP3 ADD MSTORE SWAP1 MLOAD PUSH1 0x1 PUSH1 0x1 PUSH1 0xA0 SHL SUB SWAP1 SWAP3 AND SWAP2 PUSH4 0xD936547E SWAP2 PUSH1 0x24 DUP1 DUP3 ADD SWAP3 PUSH1 0x20 SWAP3 SWAP1 SWAP2 SWAP1 DUP3 SWAP1 SUB ADD DUP2 DUP7 DUP1 EXTCODESIZE ISZERO DUP1 ISZERO PUSH2 0x3987 JUMPI PUSH1 0x0 DUP1 REVERT JUMPDEST POP GAS STATICCALL ISZERO DUP1 ISZERO PUSH2 0x399B JUMPI RETURNDATASIZE PUSH1 0x0 DUP1 RETURNDATACOPY RETURNDATASIZE PUSH1 0x0 REVERT JUMPDEST POP POP POP POP PUSH1 0x40 MLOAD RETURNDATASIZE PUSH1 0x20 DUP2 LT ISZERO PUSH2 0x39B1 JUMPI PUSH1 0x0 DUP1 REVERT JUMPDEST POP MLOAD ISZERO ISZERO PUSH1 0x1 EQ PUSH2 0x39FD JUMPI PUSH1 0x40 DUP1 MLOAD PUSH3 0x461BCD PUSH1 0xE5 SHL DUP2 MSTORE PUSH1 0x20 PUSH1 0x4 DUP3 ADD MSTORE PUSH1 0x11 PUSH1 0x24 DUP3 ADD MSTORE PUSH17 0x1253959053125117D5D2125511531254D5 PUSH1 0x7A SHL PUSH1 0x44 DUP3 ADD MSTORE SWAP1 MLOAD SWAP1 DUP2 SWAP1 SUB PUSH1 0x64 ADD SWAP1 REVERT JUMPDEST TIMESTAMP DUP2 LT ISZERO PUSH2 0x3A45 JUMPI PUSH1 0x40 DUP1 MLOAD PUSH3 0x461BCD PUSH1 0xE5 SHL DUP2 MSTORE PUSH1 0x20 PUSH1 0x4 DUP3 ADD MSTORE PUSH1 0x10 PUSH1 0x24 DUP3 ADD MSTORE PUSH16 0x494E56414C49445F444541444C494E45 PUSH1 0x80 SHL PUSH1 0x44 DUP3 ADD MSTORE SWAP1 MLOAD SWAP1 DUP2 SWAP1 SUB PUSH1 0x64 ADD SWAP1 REVERT JUMPDEST PUSH1 0x0 DUP4 GT PUSH2 0x3A93 JUMPI PUSH1 0x40 DUP1 MLOAD PUSH3 0x461BCD PUSH1 0xE5 SHL DUP2 MSTORE PUSH1 0x20 PUSH1 0x4 DUP3 ADD MSTORE PUSH1 0x16 PUSH1 0x24 DUP3 ADD MSTORE PUSH22 0x1253959053125117D3505617D09054D157D253941555 PUSH1 0x52 SHL PUSH1 0x44 DUP3 ADD MSTORE SWAP1 MLOAD SWAP1 DUP2 SWAP1 SUB PUSH1 0x64 ADD SWAP1 REVERT JUMPDEST PUSH1 0x0 DUP3 GT PUSH2 0x3ADF JUMPI PUSH1 0x40 DUP1 MLOAD PUSH3 0x461BCD PUSH1 0xE5 SHL DUP2 MSTORE PUSH1 0x20 PUSH1 0x4 DUP3 ADD MSTORE PUSH1 0x14 PUSH1 0x24 DUP3 ADD MSTORE PUSH20 0x1253959053125117D513D2D15397D3D555141555 PUSH1 0x62 SHL PUSH1 0x44 DUP3 ADD MSTORE SWAP1 MLOAD SWAP1 DUP2 SWAP1 SUB PUSH1 0x64 ADD SWAP1 REVERT JUMPDEST PUSH1 0x8 SLOAD PUSH1 0x40 DUP1 MLOAD PUSH4 0x70A08231 PUSH1 0xE0 SHL DUP2 MSTORE ADDRESS PUSH1 0x4 DUP3 ADD MSTORE SWAP1 MLOAD PUSH1 0x1 PUSH1 0x1 PUSH1 0xA0 SHL SUB SWAP1 SWAP3 AND SWAP2 PUSH4 0x70A08231 SWAP2 PUSH1 0x24 DUP1 DUP3 ADD SWAP3 PUSH1 0x20 SWAP3 SWAP1 SWAP2 SWAP1 DUP3 SWAP1 SUB ADD DUP2 DUP7 DUP1 EXTCODESIZE ISZERO DUP1 ISZERO PUSH2 0x3B2A JUMPI PUSH1 0x0 DUP1 REVERT JUMPDEST POP GAS STATICCALL ISZERO DUP1 ISZERO PUSH2 0x3B3E JUMPI RETURNDATASIZE PUSH1 0x0 DUP1 RETURNDATACOPY RETURNDATASIZE PUSH1 0x0 REVERT JUMPDEST POP POP POP POP PUSH1 0x40 MLOAD RETURNDATASIZE PUSH1 0x20 DUP2 LT ISZERO PUSH2 0x3B54 JUMPI PUSH1 0x0 DUP1 REVERT JUMPDEST POP MLOAD DUP3 LT PUSH2 0x3B93 JUMPI PUSH1 0x40 MLOAD PUSH3 0x461BCD PUSH1 0xE5 SHL DUP2 MSTORE PUSH1 0x4 ADD DUP1 DUP1 PUSH1 0x20 ADD DUP3 DUP2 SUB DUP3 MSTORE PUSH1 0x29 DUP2 MSTORE PUSH1 0x20 ADD DUP1 PUSH2 0x5635 PUSH1 0x29 SWAP2 CODECOPY PUSH1 0x40 ADD SWAP2 POP POP PUSH1 0x40 MLOAD DUP1 SWAP2 SUB SWAP1 REVERT JUMPDEST PUSH1 0x0 DUP1 PUSH2 0x3B9E PUSH2 0x4AE6 JUMP JUMPDEST SWAP1 SWAP3 POP SWAP1 POP DUP1 DUP5 LT PUSH2 0x3BE1 JUMPI PUSH1 0x40 MLOAD PUSH3 0x461BCD PUSH1 0xE5 SHL DUP2 MSTORE PUSH1 0x4 ADD DUP1 DUP1 PUSH1 0x20 ADD DUP3 DUP2 SUB DUP3 MSTORE PUSH1 0x26 DUP2 MSTORE PUSH1 0x20 ADD DUP1 PUSH2 0x5686 PUSH1 0x26 SWAP2 CODECOPY PUSH1 0x40 ADD SWAP2 POP POP PUSH1 0x40 MLOAD DUP1 SWAP2 SUB SWAP1 REVERT JUMPDEST PUSH1 0x0 PUSH2 0x3BEE DUP6 DUP5 DUP5 PUSH2 0x385A JUMP JUMPDEST SWAP1 POP PUSH1 0x0 PUSH2 0x3C0D PUSH2 0x3E8 PUSH2 0xBC0 PUSH1 0xD SLOAD DUP6 PUSH2 0x4E18 SWAP1 SWAP2 SWAP1 PUSH4 0xFFFFFFFF AND JUMP JUMPDEST SWAP1 POP PUSH2 0x3C19 DUP3 DUP3 PUSH2 0x51D5 JUMP JUMPDEST SWAP2 POP DUP7 DUP3 GT ISZERO PUSH2 0x3C65 JUMPI PUSH1 0x40 DUP1 MLOAD PUSH3 0x461BCD PUSH1 0xE5 SHL DUP2 MSTORE PUSH1 0x20 PUSH1 0x4 DUP3 ADD MSTORE PUSH1 0x12 PUSH1 0x24 DUP3 ADD MSTORE PUSH18 0x43414E5F4E4F545F4D414B455F5452414445 PUSH1 0x70 SHL PUSH1 0x44 DUP3 ADD MSTORE SWAP1 MLOAD SWAP1 DUP2 SWAP1 SUB PUSH1 0x64 ADD SWAP1 REVERT JUMPDEST PUSH1 0x0 DUP3 GT PUSH2 0x3CAF JUMPI PUSH1 0x40 DUP1 MLOAD PUSH3 0x461BCD PUSH1 0xE5 SHL DUP2 MSTORE PUSH1 0x20 PUSH1 0x4 DUP3 ADD MSTORE PUSH1 0x12 PUSH1 0x24 DUP3 ADD MSTORE PUSH18 0x1253959053125117D09054D157D253941555 PUSH1 0x72 SHL PUSH1 0x44 DUP3 ADD MSTORE SWAP1 MLOAD SWAP1 DUP2 SWAP1 SUB PUSH1 0x64 ADD SWAP1 REVERT JUMPDEST PUSH1 0x7 SLOAD PUSH1 0x40 DUP1 MLOAD PUSH4 0x70A08231 PUSH1 0xE0 SHL DUP2 MSTORE CALLER PUSH1 0x4 DUP3 ADD MSTORE SWAP1 MLOAD PUSH2 0x100 SWAP1 SWAP3 DIV PUSH1 0x1 PUSH1 0x1 PUSH1 0xA0 SHL SUB AND SWAP2 PUSH4 0x70A08231 SWAP2 PUSH1 0x24 DUP1 DUP3 ADD SWAP3 PUSH1 0x20 SWAP3 SWAP1 SWAP2 SWAP1 DUP3 SWAP1 SUB ADD DUP2 DUP7 DUP1 EXTCODESIZE ISZERO DUP1 ISZERO PUSH2 0x3CFE JUMPI PUSH1 0x0 DUP1 REVERT JUMPDEST POP GAS STATICCALL ISZERO DUP1 ISZERO PUSH2 0x3D12 JUMPI RETURNDATASIZE PUSH1 0x0 DUP1 RETURNDATACOPY RETURNDATASIZE PUSH1 0x0 REVERT JUMPDEST POP POP POP POP PUSH1 0x40 MLOAD RETURNDATASIZE PUSH1 0x20 DUP2 LT ISZERO PUSH2 0x3D28 JUMPI PUSH1 0x0 DUP1 REVERT JUMPDEST POP MLOAD DUP3 GT ISZERO PUSH2 0x3D7E JUMPI PUSH1 0x40 DUP1 MLOAD PUSH3 0x461BCD PUSH1 0xE5 SHL DUP2 MSTORE PUSH1 0x20 PUSH1 0x4 DUP3 ADD MSTORE PUSH1 0x1E PUSH1 0x24 DUP3 ADD MSTORE PUSH32 0x424153455F494E5055545F4849474845525F555345525F42414C414E43450000 PUSH1 0x44 DUP3 ADD MSTORE SWAP1 MLOAD SWAP1 DUP2 SWAP1 SUB PUSH1 0x64 ADD SWAP1 REVERT JUMPDEST PUSH1 0x7 SLOAD PUSH1 0x40 DUP1 MLOAD PUSH4 0x23B872DD PUSH1 0xE0 SHL DUP2 MSTORE CALLER PUSH1 0x4 DUP3 ADD MSTORE ADDRESS PUSH1 0x24 DUP3 ADD MSTORE PUSH1 0x44 DUP2 ADD DUP6 SWAP1 MSTORE SWAP1 MLOAD PUSH2 0x100 SWAP1 SWAP3 DIV PUSH1 0x1 PUSH1 0x1 PUSH1 0xA0 SHL SUB AND SWAP2 PUSH4 0x23B872DD SWAP2 PUSH1 0x64 DUP1 DUP3 ADD SWAP3 PUSH1 0x20 SWAP3 SWAP1 SWAP2 SWAP1 DUP3 SWAP1 SUB ADD DUP2 PUSH1 0x0 DUP8 DUP1 EXTCODESIZE ISZERO DUP1 ISZERO PUSH2 0x3DDC JUMPI PUSH1 0x0 DUP1 REVERT JUMPDEST POP GAS CALL ISZERO DUP1 ISZERO PUSH2 0x3DF0 JUMPI RETURNDATASIZE PUSH1 0x0 DUP1 RETURNDATACOPY RETURNDATASIZE PUSH1 0x0 REVERT JUMPDEST POP POP POP POP PUSH1 0x40 MLOAD RETURNDATASIZE PUSH1 0x20 DUP2 LT ISZERO PUSH2 0x3E06 JUMPI PUSH1 0x0 DUP1 REVERT JUMPDEST POP POP PUSH1 0x8 SLOAD PUSH1 0x40 DUP1 MLOAD PUSH4 0xA9059CBB PUSH1 0xE0 SHL DUP2 MSTORE CALLER PUSH1 0x4 DUP3 ADD MSTORE PUSH1 0x24 DUP2 ADD DUP10 SWAP1 MSTORE SWAP1 MLOAD PUSH1 0x1 PUSH1 0x1 PUSH1 0xA0 SHL SUB SWAP1 SWAP3 AND SWAP2 PUSH4 0xA9059CBB SWAP2 PUSH1 0x44 DUP1 DUP3 ADD SWAP3 PUSH1 0x20 SWAP3 SWAP1 SWAP2 SWAP1 DUP3 SWAP1 SUB ADD DUP2 PUSH1 0x0 DUP8 DUP1 EXTCODESIZE ISZERO DUP1 ISZERO PUSH2 0x3E5C JUMPI PUSH1 0x0 DUP1 REVERT JUMPDEST POP GAS CALL ISZERO DUP1 ISZERO PUSH2 0x3E70 JUMPI RETURNDATASIZE PUSH1 0x0 DUP1 RETURNDATACOPY RETURNDATASIZE PUSH1 0x0 REVERT JUMPDEST POP POP POP POP PUSH1 0x40 MLOAD RETURNDATASIZE PUSH1 0x20 DUP2 LT ISZERO PUSH2 0x3E86 JUMPI PUSH1 0x0 DUP1 REVERT JUMPDEST POP POP PUSH1 0x7 SLOAD PUSH1 0x9 SLOAD PUSH1 0x40 DUP1 MLOAD PUSH4 0xA9059CBB PUSH1 0xE0 SHL DUP2 MSTORE PUSH1 0x1 PUSH1 0x1 PUSH1 0xA0 SHL SUB SWAP3 DUP4 AND PUSH1 0x4 DUP3 ADD MSTORE PUSH1 0x24 DUP2 ADD DUP6 SWAP1 MSTORE SWAP1 MLOAD PUSH2 0x100 SWAP1 SWAP4 DIV SWAP1 SWAP2 AND SWAP2 PUSH4 0xA9059CBB SWAP2 PUSH1 0x44 DUP1 DUP3 ADD SWAP3 PUSH1 0x20 SWAP3 SWAP1 SWAP2 SWAP1 DUP3 SWAP1 SUB ADD DUP2 PUSH1 0x0 DUP8 DUP1 EXTCODESIZE ISZERO DUP1 ISZERO PUSH2 0x3EE7 JUMPI PUSH1 0x0 DUP1 REVERT JUMPDEST POP GAS CALL ISZERO DUP1 ISZERO PUSH2 0x3EFB JUMPI RETURNDATASIZE PUSH1 0x0 DUP1 RETURNDATACOPY RETURNDATASIZE PUSH1 0x0 REVERT JUMPDEST POP POP POP POP PUSH1 0x40 MLOAD RETURNDATASIZE PUSH1 0x20 DUP2 LT ISZERO PUSH2 0x3F11 JUMPI PUSH1 0x0 DUP1 REVERT JUMPDEST POP POP PUSH1 0x9 SLOAD PUSH1 0x7 SLOAD PUSH1 0x40 DUP1 MLOAD PUSH4 0x339DFF23 PUSH1 0xE2 SHL DUP2 MSTORE PUSH2 0x100 SWAP1 SWAP3 DIV PUSH1 0x1 PUSH1 0x1 PUSH1 0xA0 SHL SUB SWAP1 DUP2 AND PUSH1 0x4 DUP5 ADD MSTORE SWAP1 MLOAD SWAP3 AND SWAP2 PUSH4 0xCE77FC8C SWAP2 PUSH1 0x24 DUP1 DUP3 ADD SWAP3 PUSH1 0x0 SWAP3 SWAP1 SWAP2 SWAP1 DUP3 SWAP1 SUB ADD DUP2 DUP4 DUP8 DUP1 EXTCODESIZE ISZERO DUP1 ISZERO PUSH2 0x3F69 JUMPI PUSH1 0x0 DUP1 REVERT JUMPDEST POP GAS CALL ISZERO DUP1 ISZERO PUSH2 0x3F7D JUMPI RETURNDATASIZE PUSH1 0x0 DUP1 RETURNDATACOPY RETURNDATASIZE PUSH1 0x0 REVERT JUMPDEST POP POP PUSH1 0x40 DUP1 MLOAD CALLER DUP2 MSTORE PUSH1 0x20 DUP2 ADD DUP12 SWAP1 MSTORE DUP1 DUP3 ADD DUP7 SWAP1 MSTORE PUSH1 0x60 DUP2 ADD DUP11 SWAP1 MSTORE PUSH1 0x80 DUP2 ADD DUP9 SWAP1 MSTORE PUSH1 0xA0 DUP2 ADD DUP8 SWAP1 MSTORE SWAP1 MLOAD PUSH32 0x6E9D5A0202C67970B52B10DEB68F1641A9408D90DB857BC984D008C1BE70383A SWAP4 POP SWAP1 DUP2 SWAP1 SUB PUSH1 0xC0 ADD SWAP2 POP LOG1 POP POP POP POP POP POP POP JUMP JUMPDEST PUSH1 0xD SLOAD DUP2 JUMP JUMPDEST PUSH1 0xB SLOAD PUSH1 0x1 PUSH1 0x1 PUSH1 0xA0 SHL SUB AND DUP2 JUMP JUMPDEST PUSH1 0x0 DUP1 DUP4 GT DUP1 ISZERO PUSH2 0x4006 JUMPI POP PUSH1 0x0 DUP3 GT JUMPDEST PUSH2 0x4047 JUMPI PUSH1 0x40 DUP1 MLOAD PUSH3 0x461BCD PUSH1 0xE5 SHL DUP2 MSTORE PUSH1 0x20 PUSH1 0x4 DUP3 ADD MSTORE PUSH1 0xD PUSH1 0x24 DUP3 ADD MSTORE PUSH13 0x494E56414C49445F56414C5545 PUSH1 0x98 SHL PUSH1 0x44 DUP3 ADD MSTORE SWAP1 MLOAD SWAP1 DUP2 SWAP1 SUB PUSH1 0x64 ADD SWAP1 REVERT JUMPDEST PUSH1 0x0 PUSH2 0x4053 DUP4 DUP6 PUSH2 0x4E18 JUMP JUMPDEST SWAP1 POP PUSH1 0x0 PUSH2 0x4061 DUP5 DUP8 PUSH2 0x51D5 JUMP JUMPDEST SWAP1 POP PUSH1 0x0 PUSH2 0x1078 PUSH2 0x4072 DUP5 DUP5 PUSH2 0x4E78 JUMP JUMPDEST DUP8 SWAP1 PUSH2 0x4EBA JUMP JUMPDEST PUSH1 0x1 PUSH1 0x1 PUSH1 0xA0 SHL SUB SWAP2 DUP3 AND PUSH1 0x0 SWAP1 DUP2 MSTORE PUSH1 0x2 PUSH1 0x20 SWAP1 DUP2 MSTORE PUSH1 0x40 DUP1 DUP4 KECCAK256 SWAP4 SWAP1 SWAP5 AND DUP3 MSTORE SWAP2 SWAP1 SWAP2 MSTORE KECCAK256 SLOAD SWAP1 JUMP JUMPDEST CALLER ORIGIN EQ PUSH2 0x416C JUMPI PUSH1 0xA SLOAD PUSH1 0x40 DUP1 MLOAD PUSH4 0x6C9B2A3F PUSH1 0xE1 SHL DUP2 MSTORE CALLER PUSH1 0x4 DUP3 ADD MSTORE SWAP1 MLOAD PUSH1 0x1 PUSH1 0x1 PUSH1 0xA0 SHL SUB SWAP1 SWAP3 AND SWAP2 PUSH4 0xD936547E SWAP2 PUSH1 0x24 DUP1 DUP3 ADD SWAP3 PUSH1 0x20 SWAP3 SWAP1 SWAP2 SWAP1 DUP3 SWAP1 SUB ADD DUP2 DUP7 DUP1 EXTCODESIZE ISZERO DUP1 ISZERO PUSH2 0x40F6 JUMPI PUSH1 0x0 DUP1 REVERT JUMPDEST POP GAS STATICCALL ISZERO DUP1 ISZERO PUSH2 0x410A JUMPI RETURNDATASIZE PUSH1 0x0 DUP1 RETURNDATACOPY RETURNDATASIZE PUSH1 0x0 REVERT JUMPDEST POP POP POP POP PUSH1 0x40 MLOAD RETURNDATASIZE PUSH1 0x20 DUP2 LT ISZERO PUSH2 0x4120 JUMPI PUSH1 0x0 DUP1 REVERT JUMPDEST POP MLOAD ISZERO ISZERO PUSH1 0x1 EQ PUSH2 0x416C JUMPI PUSH1 0x40 DUP1 MLOAD PUSH3 0x461BCD PUSH1 0xE5 SHL DUP2 MSTORE PUSH1 0x20 PUSH1 0x4 DUP3 ADD MSTORE PUSH1 0x11 PUSH1 0x24 DUP3 ADD MSTORE PUSH17 0x1253959053125117D5D2125511531254D5 PUSH1 0x7A SHL PUSH1 0x44 DUP3 ADD MSTORE SWAP1 MLOAD SWAP1 DUP2 SWAP1 SUB PUSH1 0x64 ADD SWAP1 REVERT JUMPDEST TIMESTAMP DUP2 LT ISZERO PUSH2 0x41B4 JUMPI PUSH1 0x40 DUP1 MLOAD PUSH3 0x461BCD PUSH1 0xE5 SHL DUP2 MSTORE PUSH1 0x20 PUSH1 0x4 DUP3 ADD MSTORE PUSH1 0x10 PUSH1 0x24 DUP3 ADD MSTORE PUSH16 0x494E56414C49445F444541444C494E45 PUSH1 0x80 SHL PUSH1 0x44 DUP3 ADD MSTORE SWAP1 MLOAD SWAP1 DUP2 SWAP1 SUB PUSH1 0x64 ADD SWAP1 REVERT JUMPDEST PUSH1 0x0 DUP4 GT PUSH2 0x41FE JUMPI PUSH1 0x40 DUP1 MLOAD PUSH3 0x461BCD PUSH1 0xE5 SHL DUP2 MSTORE PUSH1 0x20 PUSH1 0x4 DUP3 ADD MSTORE PUSH1 0x12 PUSH1 0x24 DUP3 ADD MSTORE PUSH18 0x1253959053125117D09054D157D253941555 PUSH1 0x72 SHL PUSH1 0x44 DUP3 ADD MSTORE SWAP1 MLOAD SWAP1 DUP2 SWAP1 SUB PUSH1 0x64 ADD SWAP1 REVERT JUMPDEST PUSH1 0x0 DUP3 GT PUSH2 0x424E JUMPI PUSH1 0x40 DUP1 MLOAD PUSH3 0x461BCD PUSH1 0xE5 SHL DUP2 MSTORE PUSH1 0x20 PUSH1 0x4 DUP3 ADD MSTORE PUSH1 0x18 PUSH1 0x24 DUP3 ADD MSTORE PUSH24 0x1253959053125117D3525397D513D2D15397D3D555141555 PUSH1 0x42 SHL PUSH1 0x44 DUP3 ADD MSTORE SWAP1 MLOAD SWAP1 DUP2 SWAP1 SUB PUSH1 0x64 ADD SWAP1 REVERT JUMPDEST PUSH1 0x7 SLOAD PUSH1 0x40 DUP1 MLOAD PUSH4 0x70A08231 PUSH1 0xE0 SHL DUP2 MSTORE CALLER PUSH1 0x4 DUP3 ADD MSTORE SWAP1 MLOAD PUSH2 0x100 SWAP1 SWAP3 DIV PUSH1 0x1 PUSH1 0x1 PUSH1 0xA0 SHL SUB AND SWAP2 PUSH4 0x70A08231 SWAP2 PUSH1 0x24 DUP1 DUP3 ADD SWAP3 PUSH1 0x20 SWAP3 SWAP1 SWAP2 SWAP1 DUP3 SWAP1 SUB ADD DUP2 DUP7 DUP1 EXTCODESIZE ISZERO DUP1 ISZERO PUSH2 0x429D JUMPI PUSH1 0x0 DUP1 REVERT JUMPDEST POP GAS STATICCALL ISZERO DUP1 ISZERO PUSH2 0x42B1 JUMPI RETURNDATASIZE PUSH1 0x0 DUP1 RETURNDATACOPY RETURNDATASIZE PUSH1 0x0 REVERT JUMPDEST POP POP POP POP PUSH1 0x40 MLOAD RETURNDATASIZE PUSH1 0x20 DUP2 LT ISZERO PUSH2 0x42C7 JUMPI PUSH1 0x0 DUP1 REVERT JUMPDEST POP MLOAD DUP4 GT ISZERO PUSH2 0x431D JUMPI PUSH1 0x40 DUP1 MLOAD PUSH3 0x461BCD PUSH1 0xE5 SHL DUP2 MSTORE PUSH1 0x20 PUSH1 0x4 DUP3 ADD MSTORE PUSH1 0x1E PUSH1 0x24 DUP3 ADD MSTORE PUSH32 0x424153455F494E5055545F4849474845525F555345525F42414C414E43450000 PUSH1 0x44 DUP3 ADD MSTORE SWAP1 MLOAD SWAP1 DUP2 SWAP1 SUB PUSH1 0x64 ADD SWAP1 REVERT JUMPDEST PUSH1 0x0 DUP1 PUSH2 0x4328 PUSH2 0x4AE6 JUMP JUMPDEST SWAP1 SWAP3 POP SWAP1 POP DUP1 DUP5 LT PUSH2 0x436B JUMPI PUSH1 0x40 MLOAD PUSH3 0x461BCD PUSH1 0xE5 SHL DUP2 MSTORE PUSH1 0x4 ADD DUP1 DUP1 PUSH1 0x20 ADD DUP3 DUP2 SUB DUP3 MSTORE PUSH1 0x23 DUP2 MSTORE PUSH1 0x20 ADD DUP1 PUSH2 0x56AC PUSH1 0x23 SWAP2 CODECOPY PUSH1 0x40 ADD SWAP2 POP POP PUSH1 0x40 MLOAD DUP1 SWAP2 SUB SWAP1 REVERT JUMPDEST PUSH1 0x0 PUSH2 0x4388 PUSH2 0x3E8 PUSH2 0xBC0 PUSH1 0xD SLOAD DUP10 PUSH2 0x4E18 SWAP1 SWAP2 SWAP1 PUSH4 0xFFFFFFFF AND JUMP JUMPDEST SWAP1 POP PUSH1 0x0 PUSH2 0x4396 DUP8 DUP4 PUSH2 0x4EBA JUMP JUMPDEST SWAP1 POP PUSH1 0x0 PUSH2 0x43A5 DUP3 DUP7 DUP7 PUSH2 0x143B JUMP JUMPDEST SWAP1 POP DUP7 DUP2 LT ISZERO PUSH2 0x43F1 JUMPI PUSH1 0x40 DUP1 MLOAD PUSH3 0x461BCD PUSH1 0xE5 SHL DUP2 MSTORE PUSH1 0x20 PUSH1 0x4 DUP3 ADD MSTORE PUSH1 0x12 PUSH1 0x24 DUP3 ADD MSTORE PUSH18 0x43414E5F4E4F545F4D414B455F5452414445 PUSH1 0x70 SHL PUSH1 0x44 DUP3 ADD MSTORE SWAP1 MLOAD SWAP1 DUP2 SWAP1 SUB PUSH1 0x64 ADD SWAP1 REVERT JUMPDEST DUP4 DUP2 LT PUSH2 0x442F JUMPI PUSH1 0x40 MLOAD PUSH3 0x461BCD PUSH1 0xE5 SHL DUP2 MSTORE PUSH1 0x4 ADD DUP1 DUP1 PUSH1 0x20 ADD DUP3 DUP2 SUB DUP3 MSTORE PUSH1 0x26 DUP2 MSTORE PUSH1 0x20 ADD DUP1 PUSH2 0x5686 PUSH1 0x26 SWAP2 CODECOPY PUSH1 0x40 ADD SWAP2 POP POP PUSH1 0x40 MLOAD DUP1 SWAP2 SUB SWAP1 REVERT JUMPDEST PUSH1 0x8 SLOAD PUSH1 0x40 DUP1 MLOAD PUSH4 0x70A08231 PUSH1 0xE0 SHL DUP2 MSTORE ADDRESS PUSH1 0x4 DUP3 ADD MSTORE SWAP1 MLOAD PUSH1 0x1 PUSH1 0x1 PUSH1 0xA0 SHL SUB SWAP1 SWAP3 AND SWAP2 PUSH4 0x70A08231 SWAP2 PUSH1 0x24 DUP1 DUP3 ADD SWAP3 PUSH1 0x20 SWAP3 SWAP1 SWAP2 SWAP1 DUP3 SWAP1 SUB ADD DUP2 DUP7 DUP1 EXTCODESIZE ISZERO DUP1 ISZERO PUSH2 0x447A JUMPI PUSH1 0x0 DUP1 REVERT JUMPDEST POP GAS STATICCALL ISZERO DUP1 ISZERO PUSH2 0x448E JUMPI RETURNDATASIZE PUSH1 0x0 DUP1 RETURNDATACOPY RETURNDATASIZE PUSH1 0x0 REVERT JUMPDEST POP POP POP POP PUSH1 0x40 MLOAD RETURNDATASIZE PUSH1 0x20 DUP2 LT ISZERO PUSH2 0x44A4 JUMPI PUSH1 0x0 DUP1 REVERT JUMPDEST POP MLOAD DUP2 LT PUSH2 0x44E3 JUMPI PUSH1 0x40 MLOAD PUSH3 0x461BCD PUSH1 0xE5 SHL DUP2 MSTORE PUSH1 0x4 ADD DUP1 DUP1 PUSH1 0x20 ADD DUP3 DUP2 SUB DUP3 MSTORE PUSH1 0x29 DUP2 MSTORE PUSH1 0x20 ADD DUP1 PUSH2 0x5635 PUSH1 0x29 SWAP2 CODECOPY PUSH1 0x40 ADD SWAP2 POP POP PUSH1 0x40 MLOAD DUP1 SWAP2 SUB SWAP1 REVERT JUMPDEST PUSH1 0x7 SLOAD PUSH1 0x40 DUP1 MLOAD PUSH4 0x23B872DD PUSH1 0xE0 SHL DUP2 MSTORE CALLER PUSH1 0x4 DUP3 ADD MSTORE ADDRESS PUSH1 0x24 DUP3 ADD MSTORE PUSH1 0x44 DUP2 ADD DUP12 SWAP1 MSTORE SWAP1 MLOAD PUSH2 0x100 SWAP1 SWAP3 DIV PUSH1 0x1 PUSH1 0x1 PUSH1 0xA0 SHL SUB AND SWAP2 PUSH4 0x23B872DD SWAP2 PUSH1 0x64 DUP1 DUP3 ADD SWAP3 PUSH1 0x20 SWAP3 SWAP1 SWAP2 SWAP1 DUP3 SWAP1 SUB ADD DUP2 PUSH1 0x0 DUP8 DUP1 EXTCODESIZE ISZERO DUP1 ISZERO PUSH2 0x4541 JUMPI PUSH1 0x0 DUP1 REVERT JUMPDEST POP GAS CALL ISZERO DUP1 ISZERO PUSH2 0x4555 JUMPI RETURNDATASIZE PUSH1 0x0 DUP1 RETURNDATACOPY RETURNDATASIZE PUSH1 0x0 REVERT JUMPDEST POP POP POP POP PUSH1 0x40 MLOAD RETURNDATASIZE PUSH1 0x20 DUP2 LT ISZERO PUSH2 0x456B JUMPI PUSH1 0x0 DUP1 REVERT JUMPDEST POP POP PUSH1 0x8 SLOAD PUSH1 0x40 DUP1 MLOAD PUSH4 0xA9059CBB PUSH1 0xE0 SHL DUP2 MSTORE CALLER PUSH1 0x4 DUP3 ADD MSTORE PUSH1 0x24 DUP2 ADD DUP5 SWAP1 MSTORE SWAP1 MLOAD PUSH1 0x1 PUSH1 0x1 PUSH1 0xA0 SHL SUB SWAP1 SWAP3 AND SWAP2 PUSH4 0xA9059CBB SWAP2 PUSH1 0x44 DUP1 DUP3 ADD SWAP3 PUSH1 0x20 SWAP3 SWAP1 SWAP2 SWAP1 DUP3 SWAP1 SUB ADD DUP2 PUSH1 0x0 DUP8 DUP1 EXTCODESIZE ISZERO DUP1 ISZERO PUSH2 0x45C1 JUMPI PUSH1 0x0 DUP1 REVERT JUMPDEST POP GAS CALL ISZERO DUP1 ISZERO PUSH2 0x45D5 JUMPI RETURNDATASIZE PUSH1 0x0 DUP1 RETURNDATACOPY RETURNDATASIZE PUSH1 0x0 REVERT JUMPDEST POP POP POP POP PUSH1 0x40 MLOAD RETURNDATASIZE PUSH1 0x20 DUP2 LT ISZERO PUSH2 0x45EB JUMPI PUSH1 0x0 DUP1 REVERT JUMPDEST POP POP PUSH1 0x7 SLOAD PUSH1 0x9 SLOAD PUSH1 0x40 DUP1 MLOAD PUSH4 0xA9059CBB PUSH1 0xE0 SHL DUP2 MSTORE PUSH1 0x1 PUSH1 0x1 PUSH1 0xA0 SHL SUB SWAP3 DUP4 AND PUSH1 0x4 DUP3 ADD MSTORE PUSH1 0x24 DUP2 ADD DUP8 SWAP1 MSTORE SWAP1 MLOAD PUSH2 0x100 SWAP1 SWAP4 DIV SWAP1 SWAP2 AND SWAP2 PUSH4 0xA9059CBB SWAP2 PUSH1 0x44 DUP1 DUP3 ADD SWAP3 PUSH1 0x20 SWAP3 SWAP1 SWAP2 SWAP1 DUP3 SWAP1 SUB ADD DUP2 PUSH1 0x0 DUP8 DUP1 EXTCODESIZE ISZERO DUP1 ISZERO PUSH2 0x464C JUMPI PUSH1 0x0 DUP1 REVERT JUMPDEST POP GAS CALL ISZERO DUP1 ISZERO PUSH2 0x4660 JUMPI RETURNDATASIZE PUSH1 0x0 DUP1 RETURNDATACOPY RETURNDATASIZE PUSH1 0x0 REVERT JUMPDEST POP POP POP POP PUSH1 0x40 MLOAD RETURNDATASIZE PUSH1 0x20 DUP2 LT ISZERO PUSH2 0x4676 JUMPI PUSH1 0x0 DUP1 REVERT JUMPDEST POP POP PUSH1 0x9 SLOAD PUSH1 0x7 SLOAD PUSH1 0x40 DUP1 MLOAD PUSH4 0x339DFF23 PUSH1 0xE2 SHL DUP2 MSTORE PUSH2 0x100 SWAP1 SWAP3 DIV PUSH1 0x1 PUSH1 0x1 PUSH1 0xA0 SHL SUB SWAP1 DUP2 AND PUSH1 0x4 DUP5 ADD MSTORE SWAP1 MLOAD SWAP3 AND SWAP2 PUSH4 0xCE77FC8C SWAP2 PUSH1 0x24 DUP1 DUP3 ADD SWAP3 PUSH1 0x0 SWAP3 SWAP1 SWAP2 SWAP1 DUP3 SWAP1 SUB ADD DUP2 DUP4 DUP8 DUP1 EXTCODESIZE ISZERO DUP1 ISZERO PUSH2 0x46CE JUMPI PUSH1 0x0 DUP1 REVERT JUMPDEST POP GAS CALL ISZERO DUP1 ISZERO PUSH2 0x46E2 JUMPI RETURNDATASIZE PUSH1 0x0 DUP1 RETURNDATACOPY RETURNDATASIZE PUSH1 0x0 REVERT JUMPDEST POP POP PUSH1 0x40 DUP1 MLOAD CALLER DUP2 MSTORE PUSH1 0x20 DUP2 ADD DUP12 SWAP1 MSTORE DUP1 DUP3 ADD DUP13 SWAP1 MSTORE PUSH1 0x60 DUP2 ADD DUP6 SWAP1 MSTORE PUSH1 0x80 DUP2 ADD DUP10 SWAP1 MSTORE PUSH1 0xA0 DUP2 ADD DUP9 SWAP1 MSTORE SWAP1 MLOAD PUSH32 0xD294BE030E23D0862312F418541EC01D571908715169F1CB1109BBA3212B8C2D SWAP4 POP SWAP1 DUP2 SWAP1 SUB PUSH1 0xC0 ADD SWAP2 POP LOG1 POP POP POP POP POP POP POP POP JUMP JUMPDEST PUSH2 0x474E PUSH2 0x4EFC JUMP JUMPDEST PUSH1 0x0 SLOAD PUSH1 0x1 PUSH1 0x1 PUSH1 0xA0 SHL SUB SWAP1 DUP2 AND SWAP2 AND EQ PUSH2 0x479E JUMPI PUSH1 0x40 DUP1 MLOAD PUSH3 0x461BCD PUSH1 0xE5 SHL DUP2 MSTORE PUSH1 0x20 PUSH1 0x4 DUP3 ADD DUP2 SWAP1 MSTORE PUSH1 0x24 DUP3 ADD MSTORE PUSH1 0x0 DUP1 MLOAD PUSH1 0x20 PUSH2 0x5718 DUP4 CODECOPY DUP2 MLOAD SWAP2 MSTORE PUSH1 0x44 DUP3 ADD MSTORE SWAP1 MLOAD SWAP1 DUP2 SWAP1 SUB PUSH1 0x64 ADD SWAP1 REVERT JUMPDEST PUSH1 0xB SLOAD PUSH1 0x40 DUP1 MLOAD PUSH4 0x109CC30B PUSH1 0xE2 SHL DUP2 MSTORE ADDRESS PUSH1 0x4 DUP3 ADD MSTORE PUSH1 0x24 DUP2 ADD DUP3 SWAP1 MSTORE PUSH1 0x15 PUSH1 0x44 DUP3 ADD MSTORE PUSH21 0x1CD95D119959535858DA1A5B9950DBDB9D1C9858DD PUSH1 0x5A SHL PUSH1 0x64 DUP3 ADD MSTORE SWAP1 MLOAD PUSH1 0x1 PUSH1 0x1 PUSH1 0xA0 SHL SUB SWAP1 SWAP3 AND SWAP2 PUSH4 0x42730C2C SWAP2 PUSH1 0x84 DUP1 DUP3 ADD SWAP3 PUSH1 0x20 SWAP3 SWAP1 SWAP2 SWAP1 DUP3 SWAP1 SUB ADD DUP2 DUP7 DUP1 EXTCODESIZE ISZERO DUP1 ISZERO PUSH2 0x4815 JUMPI PUSH1 0x0 DUP1 REVERT JUMPDEST POP GAS STATICCALL ISZERO DUP1 ISZERO PUSH2 0x4829 JUMPI RETURNDATASIZE PUSH1 0x0 DUP1 RETURNDATACOPY RETURNDATASIZE PUSH1 0x0 REVERT JUMPDEST POP POP POP POP PUSH1 0x40 MLOAD RETURNDATASIZE PUSH1 0x20 DUP2 LT ISZERO PUSH2 0x483F JUMPI PUSH1 0x0 DUP1 REVERT JUMPDEST POP MLOAD PUSH2 0x4887 JUMPI PUSH1 0x40 DUP1 MLOAD PUSH3 0x461BCD PUSH1 0xE5 SHL DUP2 MSTORE PUSH1 0x20 PUSH1 0x4 DUP3 ADD MSTORE PUSH1 0x12 PUSH1 0x24 DUP3 ADD MSTORE PUSH18 0x24A72B20A624A22FA822A926A4A9A9A4A7A7 PUSH1 0x71 SHL PUSH1 0x44 DUP3 ADD MSTORE SWAP1 MLOAD SWAP1 DUP2 SWAP1 SUB PUSH1 0x64 ADD SWAP1 REVERT JUMPDEST PUSH1 0xB SLOAD PUSH1 0x40 DUP1 MLOAD PUSH4 0x6BFB078D PUSH1 0xE0 SHL DUP2 MSTORE ADDRESS PUSH1 0x4 DUP3 ADD MSTORE PUSH1 0x60 PUSH1 0x24 DUP3 ADD MSTORE PUSH1 0x15 PUSH1 0x64 DUP3 ADD MSTORE PUSH21 0x1CD95D119959535858DA1A5B9950DBDB9D1C9858DD PUSH1 0x5A SHL PUSH1 0x84 DUP3 ADD MSTORE PUSH1 0xA0 PUSH1 0x44 DUP3 ADD MSTORE PUSH1 0x12 PUSH1 0xA4 DUP3 ADD MSTORE PUSH18 0x199959535858DA1A5B9950DBDB9D1C9858DD PUSH1 0x72 SHL PUSH1 0xC4 DUP3 ADD MSTORE SWAP1 MLOAD PUSH1 0x0 SWAP3 PUSH1 0x1 PUSH1 0x1 PUSH1 0xA0 SHL SUB AND SWAP2 PUSH4 0x6BFB078D SWAP2 PUSH1 0xE4 DUP1 DUP4 ADD SWAP3 PUSH1 0x20 SWAP3 SWAP2 SWAP1 DUP3 SWAP1 SUB ADD DUP2 DUP7 DUP1 EXTCODESIZE ISZERO DUP1 ISZERO PUSH2 0x4927 JUMPI PUSH1 0x0 DUP1 REVERT JUMPDEST POP GAS STATICCALL ISZERO DUP1 ISZERO PUSH2 0x493B JUMPI RETURNDATASIZE PUSH1 0x0 DUP1 RETURNDATACOPY RETURNDATASIZE PUSH1 0x0 REVERT JUMPDEST POP POP POP POP PUSH1 0x40 MLOAD RETURNDATASIZE PUSH1 0x20 DUP2 LT ISZERO PUSH2 0x4951 JUMPI PUSH1 0x0 DUP1 REVERT JUMPDEST POP MLOAD SWAP1 POP PUSH1 0x1 PUSH1 0x1 PUSH1 0xA0 SHL SUB DUP2 AND PUSH2 0x49A2 JUMPI PUSH1 0x40 DUP1 MLOAD PUSH3 0x461BCD PUSH1 0xE5 SHL DUP2 MSTORE PUSH1 0x20 PUSH1 0x4 DUP3 ADD MSTORE PUSH1 0xF PUSH1 0x24 DUP3 ADD MSTORE PUSH15 0x494E56414C49445F41444452455353 PUSH1 0x88 SHL PUSH1 0x44 DUP3 ADD MSTORE SWAP1 MLOAD SWAP1 DUP2 SWAP1 SUB PUSH1 0x64 ADD SWAP1 REVERT JUMPDEST PUSH1 0x9 DUP1 SLOAD PUSH1 0x1 PUSH1 0x1 PUSH1 0xA0 SHL SUB NOT AND PUSH1 0x1 PUSH1 0x1 PUSH1 0xA0 SHL SUB DUP4 DUP2 AND SWAP2 SWAP1 SWAP2 OR SWAP1 SWAP2 SSTORE PUSH1 0xB SLOAD PUSH1 0x40 DUP1 MLOAD PUSH4 0x6E977F0B PUSH1 0xE0 SHL DUP2 MSTORE PUSH1 0x1 PUSH1 0x44 DUP3 ADD MSTORE PUSH1 0x60 PUSH1 0x4 DUP3 ADD MSTORE PUSH1 0x15 PUSH1 0x64 DUP3 ADD MSTORE PUSH21 0x1CD95D119959535858DA1A5B9950DBDB9D1C9858DD PUSH1 0x5A SHL PUSH1 0x84 DUP3 ADD MSTORE PUSH1 0xA0 PUSH1 0x24 DUP3 ADD MSTORE PUSH1 0x12 PUSH1 0xA4 DUP3 ADD MSTORE PUSH18 0x199959535858DA1A5B9950DBDB9D1C9858DD PUSH1 0x72 SHL PUSH1 0xC4 DUP3 ADD MSTORE SWAP1 MLOAD SWAP2 SWAP1 SWAP3 AND SWAP2 PUSH4 0x6E977F0B SWAP2 PUSH1 0xE4 DUP1 DUP4 ADD SWAP3 PUSH1 0x0 SWAP3 SWAP2 SWAP1 DUP3 SWAP1 SUB ADD DUP2 DUP4 DUP8 DUP1 EXTCODESIZE ISZERO DUP1 ISZERO PUSH2 0x4A5C JUMPI PUSH1 0x0 DUP1 REVERT JUMPDEST POP GAS CALL ISZERO DUP1 ISZERO PUSH2 0x4A70 JUMPI RETURNDATASIZE PUSH1 0x0 DUP1 RETURNDATACOPY RETURNDATASIZE PUSH1 0x0 REVERT JUMPDEST POP POP PUSH1 0xB SLOAD PUSH1 0x40 DUP1 MLOAD PUSH4 0x45503FCB PUSH1 0xE1 SHL DUP2 MSTORE PUSH1 0x20 PUSH1 0x4 DUP3 ADD MSTORE PUSH1 0x15 PUSH1 0x24 DUP3 ADD MSTORE PUSH21 0x1CD95D119959535858DA1A5B9950DBDB9D1C9858DD PUSH1 0x5A SHL PUSH1 0x44 DUP3 ADD MSTORE SWAP1 MLOAD PUSH1 0x1 PUSH1 0x1 PUSH1 0xA0 SHL SUB SWAP1 SWAP3 AND SWAP4 POP PUSH4 0x8AA07F96 SWAP3 POP PUSH1 0x64 DUP1 DUP3 ADD SWAP3 PUSH1 0x0 SWAP3 SWAP1 SWAP2 SWAP1 DUP3 SWAP1 SUB ADD DUP2 DUP4 DUP8 DUP1 EXTCODESIZE ISZERO DUP1 ISZERO PUSH2 0x138A JUMPI PUSH1 0x0 DUP1 REVERT JUMPDEST PUSH1 0x0 DUP1 PUSH1 0x0 PUSH1 0x7 PUSH1 0x1 SWAP1 SLOAD SWAP1 PUSH2 0x100 EXP SWAP1 DIV PUSH1 0x1 PUSH1 0x1 PUSH1 0xA0 SHL SUB AND PUSH1 0x1 PUSH1 0x1 PUSH1 0xA0 SHL SUB AND PUSH4 0x70A08231 ADDRESS PUSH1 0x40 MLOAD DUP3 PUSH4 0xFFFFFFFF AND PUSH1 0xE0 SHL DUP2 MSTORE PUSH1 0x4 ADD DUP1 DUP3 PUSH1 0x1 PUSH1 0x1 PUSH1 0xA0 SHL SUB AND DUP2 MSTORE PUSH1 0x20 ADD SWAP2 POP POP PUSH1 0x20 PUSH1 0x40 MLOAD DUP1 DUP4 SUB DUP2 DUP7 DUP1 EXTCODESIZE ISZERO DUP1 ISZERO PUSH2 0x4B4D JUMPI PUSH1 0x0 DUP1 REVERT JUMPDEST POP GAS STATICCALL ISZERO DUP1 ISZERO PUSH2 0x4B61 JUMPI RETURNDATASIZE PUSH1 0x0 DUP1 RETURNDATACOPY RETURNDATASIZE PUSH1 0x0 REVERT JUMPDEST POP POP POP POP PUSH1 0x40 MLOAD RETURNDATASIZE PUSH1 0x20 DUP2 LT ISZERO PUSH2 0x4B77 JUMPI PUSH1 0x0 DUP1 REVERT JUMPDEST POP MLOAD PUSH1 0x8 SLOAD PUSH1 0x40 DUP1 MLOAD PUSH4 0x70A08231 PUSH1 0xE0 SHL DUP2 MSTORE ADDRESS PUSH1 0x4 DUP3 ADD MSTORE SWAP1 MLOAD SWAP3 SWAP4 POP PUSH1 0x0 SWAP3 PUSH1 0x1 PUSH1 0x1 PUSH1 0xA0 SHL SUB SWAP1 SWAP3 AND SWAP2 PUSH4 0x70A08231 SWAP2 PUSH1 0x24 DUP1 DUP3 ADD SWAP3 PUSH1 0x20 SWAP3 SWAP1 SWAP2 SWAP1 DUP3 SWAP1 SUB ADD DUP2 DUP7 DUP1 EXTCODESIZE ISZERO DUP1 ISZERO PUSH2 0x4BCA JUMPI PUSH1 0x0 DUP1 REVERT JUMPDEST POP GAS STATICCALL ISZERO DUP1 ISZERO PUSH2 0x4BDE JUMPI RETURNDATASIZE PUSH1 0x0 DUP1 RETURNDATACOPY RETURNDATASIZE PUSH1 0x0 REVERT JUMPDEST POP POP POP POP PUSH1 0x40 MLOAD RETURNDATASIZE PUSH1 0x20 DUP2 LT ISZERO PUSH2 0x4BF4 JUMPI PUSH1 0x0 DUP1 REVERT JUMPDEST POP MLOAD PUSH1 0xC SLOAD PUSH1 0x40 DUP1 MLOAD PUSH4 0x59BF5D39 PUSH1 0xE0 SHL DUP2 MSTORE DUP2 MLOAD SWAP4 SWAP5 POP PUSH1 0x0 SWAP4 DUP5 SWAP4 PUSH1 0x1 PUSH1 0x1 PUSH1 0xA0 SHL SUB AND SWAP3 PUSH4 0x59BF5D39 SWAP3 PUSH1 0x4 DUP1 DUP3 ADD SWAP4 SWAP2 DUP3 SWAP1 SUB ADD DUP2 DUP7 DUP1 EXTCODESIZE ISZERO DUP1 ISZERO PUSH2 0x4C3C JUMPI PUSH1 0x0 DUP1 REVERT JUMPDEST POP GAS STATICCALL ISZERO DUP1 ISZERO PUSH2 0x4C50 JUMPI RETURNDATASIZE PUSH1 0x0 DUP1 RETURNDATACOPY RETURNDATASIZE PUSH1 0x0 REVERT JUMPDEST POP POP POP POP PUSH1 0x40 MLOAD RETURNDATASIZE PUSH1 0x40 DUP2 LT ISZERO PUSH2 0x4C66 JUMPI PUSH1 0x0 DUP1 REVERT JUMPDEST POP DUP1 MLOAD PUSH1 0x20 SWAP1 SWAP2 ADD MLOAD SWAP1 SWAP3 POP SWAP1 POP PUSH2 0x4C7E DUP5 DUP4 PUSH2 0x51D5 JUMP JUMPDEST PUSH2 0x4C88 DUP5 DUP4 PUSH2 0x51D5 JUMP JUMPDEST SWAP6 POP SWAP6 POP POP POP POP POP SWAP1 SWAP2 JUMP JUMPDEST PUSH1 0x0 DUP1 DUP1 PUSH2 0x4CA0 PUSH2 0x4AE6 JUMP JUMPDEST SWAP1 SWAP3 POP SWAP1 POP PUSH1 0x0 PUSH2 0x4CB1 DUP3 DUP5 PUSH2 0x4E18 JUMP JUMPDEST SWAP4 POP POP POP POP SWAP1 JUMP JUMPDEST PUSH2 0x4CC1 PUSH2 0x4EFC JUMP JUMPDEST PUSH1 0x0 SLOAD PUSH1 0x1 PUSH1 0x1 PUSH1 0xA0 SHL SUB SWAP1 DUP2 AND SWAP2 AND EQ PUSH2 0x4D11 JUMPI PUSH1 0x40 DUP1 MLOAD PUSH3 0x461BCD PUSH1 0xE5 SHL DUP2 MSTORE PUSH1 0x20 PUSH1 0x4 DUP3 ADD DUP2 SWAP1 MSTORE PUSH1 0x24 DUP3 ADD MSTORE PUSH1 0x0 DUP1 MLOAD PUSH1 0x20 PUSH2 0x5718 DUP4 CODECOPY DUP2 MLOAD SWAP2 MSTORE PUSH1 0x44 DUP3 ADD MSTORE SWAP1 MLOAD SWAP1 DUP2 SWAP1 SUB PUSH1 0x64 ADD SWAP1 REVERT JUMPDEST PUSH2 0x4D1A DUP2 PUSH2 0x5405 JUMP JUMPDEST POP JUMP JUMPDEST PUSH1 0x8 SLOAD PUSH1 0x1 PUSH1 0x1 PUSH1 0xA0 SHL SUB AND DUP2 JUMP JUMPDEST PUSH2 0x4D34 PUSH2 0x4EFC JUMP JUMPDEST PUSH1 0x0 SLOAD PUSH1 0x1 PUSH1 0x1 PUSH1 0xA0 SHL SUB SWAP1 DUP2 AND SWAP2 AND EQ PUSH2 0x4D84 JUMPI PUSH1 0x40 DUP1 MLOAD PUSH3 0x461BCD PUSH1 0xE5 SHL DUP2 MSTORE PUSH1 0x20 PUSH1 0x4 DUP3 ADD DUP2 SWAP1 MSTORE PUSH1 0x24 DUP3 ADD MSTORE PUSH1 0x0 DUP1 MLOAD PUSH1 0x20 PUSH2 0x5718 DUP4 CODECOPY DUP2 MLOAD SWAP2 MSTORE PUSH1 0x44 DUP3 ADD MSTORE SWAP1 MLOAD SWAP1 DUP2 SWAP1 SUB PUSH1 0x64 ADD SWAP1 REVERT JUMPDEST PUSH1 0x7 SLOAD PUSH1 0xFF AND ISZERO PUSH2 0x4DCB JUMPI PUSH1 0x40 DUP1 MLOAD PUSH3 0x461BCD PUSH1 0xE5 SHL DUP2 MSTORE PUSH1 0x20 PUSH1 0x4 DUP3 ADD MSTORE PUSH1 0xC PUSH1 0x24 DUP3 ADD MSTORE PUSH12 0x1253959053125117D2539255 PUSH1 0xA2 SHL PUSH1 0x44 DUP3 ADD MSTORE SWAP1 MLOAD SWAP1 DUP2 SWAP1 SUB PUSH1 0x64 ADD SWAP1 REVERT JUMPDEST DUP4 MLOAD PUSH2 0x4DDE SWAP1 PUSH1 0x6 SWAP1 PUSH1 0x20 DUP8 ADD SWAP1 PUSH2 0x550A JUMP JUMPDEST POP DUP3 MLOAD PUSH2 0x4DF2 SWAP1 PUSH1 0x5 SWAP1 PUSH1 0x20 DUP7 ADD SWAP1 PUSH2 0x550A JUMP JUMPDEST POP PUSH1 0x4 DUP1 SLOAD PUSH1 0xFF SWAP1 SWAP4 AND PUSH1 0xFF NOT SWAP4 DUP5 AND OR SWAP1 SSTORE PUSH1 0x3 SSTORE PUSH1 0x7 DUP1 SLOAD SWAP1 SWAP2 AND PUSH1 0x1 OR SWAP1 SSTORE POP POP JUMP JUMPDEST PUSH1 0x0 DUP3 PUSH2 0x4E27 JUMPI POP PUSH1 0x0 PUSH2 0x102B JUMP JUMPDEST DUP3 DUP3 MUL DUP3 DUP5 DUP3 DUP2 PUSH2 0x4E34 JUMPI INVALID JUMPDEST DIV EQ PUSH2 0x4E71 JUMPI PUSH1 0x40 MLOAD PUSH3 0x461BCD PUSH1 0xE5 SHL DUP2 MSTORE PUSH1 0x4 ADD DUP1 DUP1 PUSH1 0x20 ADD DUP3 DUP2 SUB DUP3 MSTORE PUSH1 0x21 DUP2 MSTORE PUSH1 0x20 ADD DUP1 PUSH2 0x56F7 PUSH1 0x21 SWAP2 CODECOPY PUSH1 0x40 ADD SWAP2 POP POP PUSH1 0x40 MLOAD DUP1 SWAP2 SUB SWAP1 REVERT JUMPDEST SWAP4 SWAP3 POP POP POP JUMP JUMPDEST PUSH1 0x0 PUSH2 0x4E71 DUP4 DUP4 PUSH1 0x40 MLOAD DUP1 PUSH1 0x40 ADD PUSH1 0x40 MSTORE DUP1 PUSH1 0x1A DUP2 MSTORE PUSH1 0x20 ADD PUSH32 0x536166654D6174683A206469766973696F6E206279207A65726F000000000000 DUP2 MSTORE POP PUSH2 0x54A5 JUMP JUMPDEST PUSH1 0x0 PUSH2 0x4E71 DUP4 DUP4 PUSH1 0x40 MLOAD DUP1 PUSH1 0x40 ADD PUSH1 0x40 MSTORE DUP1 PUSH1 0x1E DUP2 MSTORE PUSH1 0x20 ADD PUSH32 0x536166654D6174683A207375627472616374696F6E206F766572666C6F770000 DUP2 MSTORE POP PUSH2 0x513E JUMP JUMPDEST CALLER SWAP1 JUMP JUMPDEST PUSH1 0x1 PUSH1 0x1 PUSH1 0xA0 SHL SUB DUP4 AND PUSH2 0x4F45 JUMPI PUSH1 0x40 MLOAD PUSH3 0x461BCD PUSH1 0xE5 SHL DUP2 MSTORE PUSH1 0x4 ADD DUP1 DUP1 PUSH1 0x20 ADD DUP3 DUP2 SUB DUP3 MSTORE PUSH1 0x24 DUP2 MSTORE PUSH1 0x20 ADD DUP1 PUSH2 0x55C3 PUSH1 0x24 SWAP2 CODECOPY PUSH1 0x40 ADD SWAP2 POP POP PUSH1 0x40 MLOAD DUP1 SWAP2 SUB SWAP1 REVERT JUMPDEST PUSH1 0x1 PUSH1 0x1 PUSH1 0xA0 SHL SUB DUP3 AND PUSH2 0x4F8A JUMPI PUSH1 0x40 MLOAD PUSH3 0x461BCD PUSH1 0xE5 SHL DUP2 MSTORE PUSH1 0x4 ADD DUP1 DUP1 PUSH1 0x20 ADD DUP3 DUP2 SUB DUP3 MSTORE PUSH1 0x22 DUP2 MSTORE PUSH1 0x20 ADD DUP1 PUSH2 0x582E PUSH1 0x22 SWAP2 CODECOPY PUSH1 0x40 ADD SWAP2 POP POP PUSH1 0x40 MLOAD DUP1 SWAP2 SUB SWAP1 REVERT JUMPDEST PUSH1 0x1 PUSH1 0x1 PUSH1 0xA0 SHL SUB DUP1 DUP5 AND PUSH1 0x0 DUP2 DUP2 MSTORE PUSH1 0x2 PUSH1 0x20 SWAP1 DUP2 MSTORE PUSH1 0x40 DUP1 DUP4 KECCAK256 SWAP5 DUP8 AND DUP1 DUP5 MSTORE SWAP5 DUP3 MSTORE SWAP2 DUP3 SWAP1 KECCAK256 DUP6 SWAP1 SSTORE DUP2 MLOAD DUP6 DUP2 MSTORE SWAP2 MLOAD PUSH32 0x8C5BE1E5EBEC7D5BD14F71427D1E84F3DD0314C0F7B2291E5B200AC8C7C3B925 SWAP3 DUP2 SWAP1 SUB SWAP1 SWAP2 ADD SWAP1 LOG3 POP POP POP JUMP JUMPDEST PUSH1 0x1 PUSH1 0x1 PUSH1 0xA0 SHL SUB DUP4 AND PUSH2 0x5031 JUMPI PUSH1 0x40 MLOAD PUSH3 0x461BCD PUSH1 0xE5 SHL DUP2 MSTORE PUSH1 0x4 ADD DUP1 DUP1 PUSH1 0x20 ADD DUP3 DUP2 SUB DUP3 MSTORE PUSH1 0x25 DUP2 MSTORE PUSH1 0x20 ADD DUP1 PUSH2 0x559E PUSH1 0x25 SWAP2 CODECOPY PUSH1 0x40 ADD SWAP2 POP POP PUSH1 0x40 MLOAD DUP1 SWAP2 SUB SWAP1 REVERT JUMPDEST PUSH1 0x1 PUSH1 0x1 PUSH1 0xA0 SHL SUB DUP3 AND PUSH2 0x5076 JUMPI PUSH1 0x40 MLOAD PUSH3 0x461BCD PUSH1 0xE5 SHL DUP2 MSTORE PUSH1 0x4 ADD DUP1 DUP1 PUSH1 0x20 ADD DUP3 DUP2 SUB DUP3 MSTORE PUSH1 0x23 DUP2 MSTORE PUSH1 0x20 ADD DUP1 PUSH2 0x575E PUSH1 0x23 SWAP2 CODECOPY PUSH1 0x40 ADD SWAP2 POP POP PUSH1 0x40 MLOAD DUP1 SWAP2 SUB SWAP1 REVERT JUMPDEST PUSH2 0x50B3 DUP2 PUSH1 0x40 MLOAD DUP1 PUSH1 0x60 ADD PUSH1 0x40 MSTORE DUP1 PUSH1 0x26 DUP2 MSTORE PUSH1 0x20 ADD PUSH2 0x5738 PUSH1 0x26 SWAP2 CODECOPY PUSH1 0x1 PUSH1 0x1 PUSH1 0xA0 SHL SUB DUP7 AND PUSH1 0x0 SWAP1 DUP2 MSTORE PUSH1 0x1 PUSH1 0x20 MSTORE PUSH1 0x40 SWAP1 KECCAK256 SLOAD SWAP2 SWAP1 PUSH2 0x513E JUMP JUMPDEST PUSH1 0x1 PUSH1 0x1 PUSH1 0xA0 SHL SUB DUP1 DUP6 AND PUSH1 0x0 SWAP1 DUP2 MSTORE PUSH1 0x1 PUSH1 0x20 MSTORE PUSH1 0x40 DUP1 DUP3 KECCAK256 SWAP4 SWAP1 SWAP4 SSTORE SWAP1 DUP5 AND DUP2 MSTORE KECCAK256 SLOAD PUSH2 0x50E2 SWAP1 DUP3 PUSH2 0x51D5 JUMP JUMPDEST PUSH1 0x1 PUSH1 0x1 PUSH1 0xA0 SHL SUB DUP1 DUP5 AND PUSH1 0x0 DUP2 DUP2 MSTORE PUSH1 0x1 PUSH1 0x20 SWAP1 DUP2 MSTORE PUSH1 0x40 SWAP2 DUP3 SWAP1 KECCAK256 SWAP5 SWAP1 SWAP5 SSTORE DUP1 MLOAD DUP6 DUP2 MSTORE SWAP1 MLOAD SWAP2 SWAP4 SWAP3 DUP8 AND SWAP3 PUSH32 0xDDF252AD1BE2C89B69C2B068FC378DAA952BA7F163C4A11628F55A4DF523B3EF SWAP3 SWAP2 DUP3 SWAP1 SUB ADD SWAP1 LOG3 POP POP POP JUMP JUMPDEST PUSH1 0x0 DUP2 DUP5 DUP5 GT ISZERO PUSH2 0x51CD JUMPI PUSH1 0x40 MLOAD PUSH3 0x461BCD PUSH1 0xE5 SHL DUP2 MSTORE PUSH1 0x4 ADD DUP1 DUP1 PUSH1 0x20 ADD DUP3 DUP2 SUB DUP3 MSTORE DUP4 DUP2 DUP2 MLOAD DUP2 MSTORE PUSH1 0x20 ADD SWAP2 POP DUP1 MLOAD SWAP1 PUSH1 0x20 ADD SWAP1 DUP1 DUP4 DUP4 PUSH1 0x0 JUMPDEST DUP4 DUP2 LT ISZERO PUSH2 0x5192 JUMPI DUP2 DUP2 ADD MLOAD DUP4 DUP3 ADD MSTORE PUSH1 0x20 ADD PUSH2 0x517A JUMP JUMPDEST POP POP POP POP SWAP1 POP SWAP1 DUP2 ADD SWAP1 PUSH1 0x1F AND DUP1 ISZERO PUSH2 0x51BF JUMPI DUP1 DUP3 SUB DUP1 MLOAD PUSH1 0x1 DUP4 PUSH1 0x20 SUB PUSH2 0x100 EXP SUB NOT AND DUP2 MSTORE PUSH1 0x20 ADD SWAP2 POP JUMPDEST POP SWAP3 POP POP POP PUSH1 0x40 MLOAD DUP1 SWAP2 SUB SWAP1 REVERT JUMPDEST POP POP POP SWAP1 SUB SWAP1 JUMP JUMPDEST PUSH1 0x0 DUP3 DUP3 ADD DUP4 DUP2 LT ISZERO PUSH2 0x4E71 JUMPI PUSH1 0x40 DUP1 MLOAD PUSH3 0x461BCD PUSH1 0xE5 SHL DUP2 MSTORE PUSH1 0x20 PUSH1 0x4 DUP3 ADD MSTORE PUSH1 0x1B PUSH1 0x24 DUP3 ADD MSTORE PUSH32 0x536166654D6174683A206164646974696F6E206F766572666C6F770000000000 PUSH1 0x44 DUP3 ADD MSTORE SWAP1 MLOAD SWAP1 DUP2 SWAP1 SUB PUSH1 0x64 ADD SWAP1 REVERT JUMPDEST PUSH1 0x1 PUSH1 0x1 PUSH1 0xA0 SHL SUB DUP3 AND PUSH2 0x528A JUMPI PUSH1 0x40 DUP1 MLOAD PUSH3 0x461BCD PUSH1 0xE5 SHL DUP2 MSTORE PUSH1 0x20 PUSH1 0x4 DUP3 ADD MSTORE PUSH1 0x1F PUSH1 0x24 DUP3 ADD MSTORE PUSH32 0x42455032303A206D696E7420746F20746865207A65726F206164647265737300 PUSH1 0x44 DUP3 ADD MSTORE SWAP1 MLOAD SWAP1 DUP2 SWAP1 SUB PUSH1 0x64 ADD SWAP1 REVERT JUMPDEST PUSH1 0x3 SLOAD PUSH2 0x5297 SWAP1 DUP3 PUSH2 0x51D5 JUMP JUMPDEST PUSH1 0x3 SSTORE PUSH1 0x1 PUSH1 0x1 PUSH1 0xA0 SHL SUB DUP3 AND PUSH1 0x0 SWAP1 DUP2 MSTORE PUSH1 0x1 PUSH1 0x20 MSTORE PUSH1 0x40 SWAP1 KECCAK256 SLOAD PUSH2 0x52BD SWAP1 DUP3 PUSH2 0x51D5 JUMP JUMPDEST PUSH1 0x1 PUSH1 0x1 PUSH1 0xA0 SHL SUB DUP4 AND PUSH1 0x0 DUP2 DUP2 MSTORE PUSH1 0x1 PUSH1 0x20 SWAP1 DUP2 MSTORE PUSH1 0x40 DUP1 DUP4 KECCAK256 SWAP5 SWAP1 SWAP5 SSTORE DUP4 MLOAD DUP6 DUP2 MSTORE SWAP4 MLOAD SWAP3 SWAP4 SWAP2 SWAP3 PUSH32 0xDDF252AD1BE2C89B69C2B068FC378DAA952BA7F163C4A11628F55A4DF523B3EF SWAP3 DUP2 SWAP1 SUB SWAP1 SWAP2 ADD SWAP1 LOG3 POP POP JUMP JUMPDEST PUSH1 0x1 PUSH1 0x1 PUSH1 0xA0 SHL SUB DUP3 AND PUSH2 0x535A JUMPI PUSH1 0x40 MLOAD PUSH3 0x461BCD PUSH1 0xE5 SHL DUP2 MSTORE PUSH1 0x4 ADD DUP1 DUP1 PUSH1 0x20 ADD DUP3 DUP2 SUB DUP3 MSTORE PUSH1 0x21 DUP2 MSTORE PUSH1 0x20 ADD DUP1 PUSH2 0x57A6 PUSH1 0x21 SWAP2 CODECOPY PUSH1 0x40 ADD SWAP2 POP POP PUSH1 0x40 MLOAD DUP1 SWAP2 SUB SWAP1 REVERT JUMPDEST PUSH2 0x5397 DUP2 PUSH1 0x40 MLOAD DUP1 PUSH1 0x60 ADD PUSH1 0x40 MSTORE DUP1 PUSH1 0x22 DUP2 MSTORE PUSH1 0x20 ADD PUSH2 0x57EB PUSH1 0x22 SWAP2 CODECOPY PUSH1 0x1 PUSH1 0x1 PUSH1 0xA0 SHL SUB DUP6 AND PUSH1 0x0 SWAP1 DUP2 MSTORE PUSH1 0x1 PUSH1 0x20 MSTORE PUSH1 0x40 SWAP1 KECCAK256 SLOAD SWAP2 SWAP1 PUSH2 0x513E JUMP JUMPDEST PUSH1 0x1 PUSH1 0x1 PUSH1 0xA0 SHL SUB DUP4 AND PUSH1 0x0 SWAP1 DUP2 MSTORE PUSH1 0x1 PUSH1 0x20 MSTORE PUSH1 0x40 SWAP1 KECCAK256 SSTORE PUSH1 0x3 SLOAD PUSH2 0x53BD SWAP1 DUP3 PUSH2 0x4EBA JUMP JUMPDEST PUSH1 0x3 SSTORE PUSH1 0x40 DUP1 MLOAD DUP3 DUP2 MSTORE SWAP1 MLOAD PUSH1 0x0 SWAP2 PUSH1 0x1 PUSH1 0x1 PUSH1 0xA0 SHL SUB DUP6 AND SWAP2 PUSH32 0xDDF252AD1BE2C89B69C2B068FC378DAA952BA7F163C4A11628F55A4DF523B3EF SWAP2 DUP2 SWAP1 SUB PUSH1 0x20 ADD SWAP1 LOG3 POP POP JUMP JUMPDEST PUSH1 0x1 PUSH1 0x1 PUSH1 0xA0 SHL SUB DUP2 AND PUSH2 0x544A JUMPI PUSH1 0x40 MLOAD PUSH3 0x461BCD PUSH1 0xE5 SHL DUP2 MSTORE PUSH1 0x4 ADD DUP1 DUP1 PUSH1 0x20 ADD DUP3 DUP2 SUB DUP3 MSTORE PUSH1 0x26 DUP2 MSTORE PUSH1 0x20 ADD DUP1 PUSH2 0x55E7 PUSH1 0x26 SWAP2 CODECOPY PUSH1 0x40 ADD SWAP2 POP POP PUSH1 0x40 MLOAD DUP1 SWAP2 SUB SWAP1 REVERT JUMPDEST PUSH1 0x0 DUP1 SLOAD PUSH1 0x40 MLOAD PUSH1 0x1 PUSH1 0x1 PUSH1 0xA0 SHL SUB DUP1 DUP6 AND SWAP4 SWAP3 AND SWAP2 PUSH32 0x8BE0079C531659141344CD1FD0A4F28419497F9722A3DAAFE3B4186F6B6457E0 SWAP2 LOG3 PUSH1 0x0 DUP1 SLOAD PUSH1 0x1 PUSH1 0x1 PUSH1 0xA0 SHL SUB NOT AND PUSH1 0x1 PUSH1 0x1 PUSH1 0xA0 SHL SUB SWAP3 SWAP1 SWAP3 AND SWAP2 SWAP1 SWAP2 OR SWAP1 SSTORE JUMP JUMPDEST PUSH1 0x0 DUP2 DUP4 PUSH2 0x54F4 JUMPI PUSH1 0x40 MLOAD PUSH3 0x461BCD PUSH1 0xE5 SHL DUP2 MSTORE PUSH1 0x20 PUSH1 0x4 DUP3 ADD DUP2 DUP2 MSTORE DUP4 MLOAD PUSH1 0x24 DUP5 ADD MSTORE DUP4 MLOAD SWAP1 SWAP3 DUP4 SWAP3 PUSH1 0x44 SWAP1 SWAP2 ADD SWAP2 SWAP1 DUP6 ADD SWAP1 DUP1 DUP4 DUP4 PUSH1 0x0 DUP4 ISZERO PUSH2 0x5192 JUMPI DUP2 DUP2 ADD MLOAD DUP4 DUP3 ADD MSTORE PUSH1 0x20 ADD PUSH2 0x517A JUMP JUMPDEST POP PUSH1 0x0 DUP4 DUP6 DUP2 PUSH2 0x5500 JUMPI INVALID JUMPDEST DIV SWAP6 SWAP5 POP POP POP POP POP JUMP JUMPDEST DUP3 DUP1 SLOAD PUSH1 0x1 DUP2 PUSH1 0x1 AND ISZERO PUSH2 0x100 MUL SUB AND PUSH1 0x2 SWAP1 DIV SWAP1 PUSH1 0x0 MSTORE PUSH1 0x20 PUSH1 0x0 KECCAK256 SWAP1 PUSH1 0x1F ADD PUSH1 0x20 SWAP1 DIV DUP2 ADD SWAP3 DUP3 PUSH1 0x1F LT PUSH2 0x554B JUMPI DUP1 MLOAD PUSH1 0xFF NOT AND DUP4 DUP1 ADD OR DUP6 SSTORE PUSH2 0x5578 JUMP JUMPDEST DUP3 DUP1 ADD PUSH1 0x1 ADD DUP6 SSTORE DUP3 ISZERO PUSH2 0x5578 JUMPI SWAP2 DUP3 ADD JUMPDEST DUP3 DUP2 GT ISZERO PUSH2 0x5578 JUMPI DUP3 MLOAD DUP3 SSTORE SWAP2 PUSH1 0x20 ADD SWAP2 SWAP1 PUSH1 0x1 ADD SWAP1 PUSH2 0x555D JUMP JUMPDEST POP PUSH2 0x5584 SWAP3 SWAP2 POP PUSH2 0x5588 JUMP JUMPDEST POP SWAP1 JUMP JUMPDEST JUMPDEST DUP1 DUP3 GT ISZERO PUSH2 0x5584 JUMPI PUSH1 0x0 DUP2 SSTORE PUSH1 0x1 ADD PUSH2 0x5589 JUMP INVALID TIMESTAMP GASLIMIT POP ORIGIN ADDRESS GASPRICE KECCAK256 PUSH21 0x72616E736665722066726F6D20746865207A65726F KECCAK256 PUSH2 0x6464 PUSH19 0x65737342455032303A20617070726F76652066 PUSH19 0x6F6D20746865207A65726F2061646472657373 0x4F PUSH24 0x6E61626C653A206E6577206F776E65722069732074686520 PUSH27 0x65726F2061646472657373424153455F4F55545055545F48494748 GASLIMIT MSTORE 0x5F NUMBER SSTORE MSTORE MSTORE GASLIMIT 0x4E SLOAD 0x5F SLOAD MSTORE COINBASE DIFFICULTY GASLIMIT 0x5F TIMESTAMP COINBASE 0x4C COINBASE 0x4E NUMBER GASLIMIT SLOAD 0x4F 0x4B GASLIMIT 0x4E 0x5F 0x4F SSTORE SLOAD POP SSTORE SLOAD 0x5F 0x48 0x49 SELFBALANCE 0x48 GASLIMIT MSTORE 0x5F NUMBER SSTORE MSTORE MSTORE GASLIMIT 0x4E SLOAD 0x5F SLOAD MSTORE COINBASE DIFFICULTY GASLIMIT 0x5F TIMESTAMP COINBASE 0x4C COINBASE 0x4E NUMBER GASLIMIT TIMESTAMP GASLIMIT POP ORIGIN ADDRESS GASPRICE KECCAK256 PUSH21 0x72616E7366657220616D6F756E7420657863656564 PUSH20 0x20616C6C6F77616E6365544F4B454E5F4F555450 SSTORE SLOAD 0x5F 0x48 0x49 SELFBALANCE 0x48 GASLIMIT MSTORE 0x5F POP 0x4F 0x4F 0x4C 0x5F SLOAD 0x4F 0x4B GASLIMIT 0x4E 0x5F TIMESTAMP COINBASE 0x4C COINBASE 0x4E NUMBER GASLIMIT 0x4D 0x49 0x4E 0x5F SLOAD 0x4F 0x4B GASLIMIT 0x4E 0x5F 0x48 0x49 SELFBALANCE 0x48 GASLIMIT MSTORE 0x5F POP 0x4F 0x4F 0x4C 0x5F SLOAD 0x4F 0x4B GASLIMIT 0x4E 0x5F TIMESTAMP COINBASE 0x4C COINBASE 0x4E NUMBER GASLIMIT 0x4D 0x49 0x4E 0x5F TIMESTAMP COINBASE MSTORE8 GASLIMIT 0x5F 0x4F SSTORE SLOAD POP SSTORE SLOAD 0x5F 0x48 0x49 SELFBALANCE 0x48 GASLIMIT MSTORE 0x5F POP 0x4F 0x4F 0x4C 0x5F TIMESTAMP COINBASE MSTORE8 GASLIMIT 0x5F TIMESTAMP COINBASE 0x4C COINBASE 0x4E NUMBER GASLIMIT MSTORE8 PUSH2 0x6665 0x4D PUSH2 0x7468 GASPRICE KECCAK256 PUSH14 0x756C7469706C69636174696F6E20 PUSH16 0x766572666C6F774F776E61626C653A20 PUSH4 0x616C6C65 PUSH19 0x206973206E6F7420746865206F776E65724245 POP ORIGIN ADDRESS GASPRICE KECCAK256 PUSH21 0x72616E7366657220616D6F756E7420657863656564 PUSH20 0x2062616C616E636542455032303A207472616E73 PUSH7 0x657220746F2074 PUSH9 0x65207A65726F206164 PUSH5 0x7265737342 GASLIMIT POP ORIGIN ADDRESS GASPRICE KECCAK256 PUSH5 0x6563726561 PUSH20 0x656420616C6C6F77616E63652062656C6F77207A PUSH6 0x726F42455032 ADDRESS GASPRICE KECCAK256 PUSH3 0x75726E KECCAK256 PUSH7 0x726F6D20746865 KECCAK256 PUSH27 0x65726F2061646472657373424153455F4F55545055545F48494748 GASLIMIT MSTORE 0x5F POP 0x4F 0x4F 0x4C 0x5F TIMESTAMP COINBASE MSTORE8 GASLIMIT 0x5F TIMESTAMP COINBASE 0x4C COINBASE 0x4E NUMBER GASLIMIT TIMESTAMP GASLIMIT POP ORIGIN ADDRESS GASPRICE KECCAK256 PUSH3 0x75726E KECCAK256 PUSH2 0x6D6F PUSH22 0x6E7420657863656564732062616C616E6365544F4B45 0x4E 0x5F 0x4F SSTORE SLOAD POP SSTORE SLOAD 0x5F 0x48 0x49 SELFBALANCE 0x48 GASLIMIT MSTORE 0x5F SLOAD 0x4F 0x4B GASLIMIT 0x4E 0x5F TIMESTAMP COINBASE 0x4C COINBASE 0x4E NUMBER GASLIMIT TIMESTAMP GASLIMIT POP ORIGIN ADDRESS GASPRICE KECCAK256 PUSH2 0x7070 PUSH19 0x6F766520746F20746865207A65726F20616464 PUSH19 0x657373A2646970667358221220413C4A0E0541 0xE8 0xD0 0xC2 0xBF 0x5C 0xA7 0xFC 0x4F SWAP12 0x22 DUP5 PUSH4 0x98330563 0xE PUSH8 0x2681B3B75EAC5E82 PUSH5 0x736F6C6343 STOP MOD 0xC STOP CALLER "
		},
		"gasEstimates": {
			"creation": {
				"codeDepositCost": "4532200",
				"executionCost": "infinite",
				"totalCost": "infinite"
			},
			"external": {
				"TRADE_FEE()": "1065",
				"addLP(uint256,uint256,uint256,uint256)": "infinite",
				"allowance(address,address)": "1383",
				"approve(address,uint256)": "infinite",
				"balanceOf(address)": "1209",
				"base()": "1138",
				"decimals()": "1147",
				"decreaseAllowance(address,uint256)": "infinite",
				"farmContract()": "1082",
				"feeMachineContract()": "1105",
				"getBaseInputAmountFromTokenOutput(uint256,uint256,uint256)": "infinite",
				"getBaseOutput(uint256)": "infinite",
				"getBaseOutputAmountFromTokenInput(uint256,uint256,uint256)": "infinite",
				"getDataFromBaseInputToAddLp(uint256)": "infinite",
				"getDataFromTokenInputToAddLp(uint256)": "infinite",
				"getDataToRemoveLP(uint256)": "infinite",
				"getK()": "infinite",
				"getOwner()": "1140",
				"getTokenInputAmountFromBaseOutput(uint256,uint256,uint256)": "infinite",
				"getTokenOutput(uint256)": "infinite",
				"getTokenOutputAmountFromBaseInput(uint256,uint256,uint256)": "infinite",
				"getTotalReserve()": "infinite",
				"increaseAllowance(address,uint256)": "infinite",
				"initToken(string,string,uint8,uint256)": "infinite",
				"initialized()": "1056",
				"name()": "infinite",
				"owner()": "1127",
				"rebalanceToFarmContract()": "infinite",
				"removeLP(uint256,uint256,uint256,uint256)": "infinite",
				"renounceOwnership()": "infinite",
				"setFarmContract()": "infinite",
				"setFeeMachineContract()": "infinite",
				"setTradeFee()": "infinite",
				"swapBaseToTokenWithBaseInput(uint256,uint256,uint256)": "infinite",
				"swapBaseToTokenWithTokenOutput(uint256,uint256,uint256)": "infinite",
				"swapTokenToBaseWithBaseOutput(uint256,uint256,uint256)": "infinite",
				"swapTokenToBaseWithTokenInput(uint256,uint256,uint256)": "infinite",
				"symbol()": "infinite",
				"token()": "1169",
				"totalSupply()": "1066",
				"transfer(address,uint256)": "infinite",
				"transferFrom(address,address,uint256)": "infinite",
				"transferOwnership(address)": "infinite",
				"turingTimeLockContract()": "1126",
				"whitelistContract()": "1083"
			}
		},
		"methodIdentifiers": {
			"TRADE_FEE()": "d1322962",
			"addLP(uint256,uint256,uint256,uint256)": "60b1765c",
			"allowance(address,address)": "dd62ed3e",
			"approve(address,uint256)": "095ea7b3",
			"balanceOf(address)": "70a08231",
			"base()": "5001f3b5",
			"decimals()": "313ce567",
			"decreaseAllowance(address,uint256)": "a457c2d7",
			"farmContract()": "9eb0e965",
			"feeMachineContract()": "42eba2ce",
			"getBaseInputAmountFromTokenOutput(uint256,uint256,uint256)": "b7c3ba45",
			"getBaseOutput(uint256)": "635f95ff",
			"getBaseOutputAmountFromTokenInput(uint256,uint256,uint256)": "dbcfbf2f",
			"getDataFromBaseInputToAddLp(uint256)": "c6e842fc",
			"getDataFromTokenInputToAddLp(uint256)": "6662d177",
			"getDataToRemoveLP(uint256)": "711f6142",
			"getK()": "ee39e7a0",
			"getOwner()": "893d20e8",
			"getTokenInputAmountFromBaseOutput(uint256,uint256,uint256)": "97bb21c6",
			"getTokenOutput(uint256)": "11fbded3",
			"getTokenOutputAmountFromBaseInput(uint256,uint256,uint256)": "2916bc10",
			"getTotalReserve()": "ec022918",
			"increaseAllowance(address,uint256)": "39509351",
			"initToken(string,string,uint8,uint256)": "ffea733e",
			"initialized()": "158ef93e",
			"name()": "06fdde03",
			"owner()": "8da5cb5b",
			"rebalanceToFarmContract()": "a58d3d31",
			"removeLP(uint256,uint256,uint256,uint256)": "76125deb",
			"renounceOwnership()": "715018a6",
			"setFarmContract()": "42a6ae57",
			"setFeeMachineContract()": "ead915e3",
			"setTradeFee()": "1279732c",
			"swapBaseToTokenWithBaseInput(uint256,uint256,uint256)": "e50a38d7",
			"swapBaseToTokenWithTokenOutput(uint256,uint256,uint256)": "d0e9de6c",
			"swapTokenToBaseWithBaseOutput(uint256,uint256,uint256)": "73dd25a3",
			"swapTokenToBaseWithTokenInput(uint256,uint256,uint256)": "03bf04c1",
			"symbol()": "95d89b41",
			"token()": "fc0c546a",
			"totalSupply()": "18160ddd",
			"transfer(address,uint256)": "a9059cbb",
			"transferFrom(address,address,uint256)": "23b872dd",
			"transferOwnership(address)": "f2fde38b",
			"turingTimeLockContract()": "da6ca9c9",
			"whitelistContract()": "84900b04"
		}
	},
	"abi": [
		{
			"inputs": [
				{
					"internalType": "contract IBEP20",
					"name": "_base",
					"type": "address"
				},
				{
					"internalType": "contract IBEP20",
					"name": "_token",
					"type": "address"
				},
				{
					"internalType": "contract ITuringTimeLock",
					"name": "_turingTimeLockContract",
					"type": "address"
				},
				{
					"internalType": "contract ITuringswapFeeMachine",
					"name": "_feeMachineContract",
					"type": "address"
				},
				{
					"internalType": "contract ITuringswapFarmVenus",
					"name": "_farmContract",
					"type": "address"
				},
				{
					"internalType": "contract ITuringswapWhitelist",
					"name": "_whitelistContract",
					"type": "address"
				},
				{
					"internalType": "string",
					"name": "name",
					"type": "string"
				},
				{
					"internalType": "string",
					"name": "symbol",
					"type": "string"
				},
				{
					"internalType": "uint8",
					"name": "decimal",
					"type": "uint8"
				}
			],
			"stateMutability": "nonpayable",
			"type": "constructor"
		},
		{
			"anonymous": false,
			"inputs": [
				{
					"indexed": true,
					"internalType": "address",
					"name": "owner",
					"type": "address"
				},
				{
					"indexed": true,
					"internalType": "address",
					"name": "spender",
					"type": "address"
				},
				{
					"indexed": false,
					"internalType": "uint256",
					"name": "value",
					"type": "uint256"
				}
			],
			"name": "Approval",
			"type": "event"
		},
		{
			"anonymous": false,
			"inputs": [
				{
					"indexed": true,
					"internalType": "address",
					"name": "previousOwner",
					"type": "address"
				},
				{
					"indexed": true,
					"internalType": "address",
					"name": "newOwner",
					"type": "address"
				}
			],
			"name": "OwnershipTransferred",
			"type": "event"
		},
		{
			"anonymous": false,
			"inputs": [
				{
					"indexed": true,
					"internalType": "address",
					"name": "from",
					"type": "address"
				},
				{
					"indexed": true,
					"internalType": "address",
					"name": "to",
					"type": "address"
				},
				{
					"indexed": false,
					"internalType": "uint256",
					"name": "value",
					"type": "uint256"
				}
			],
			"name": "Transfer",
			"type": "event"
		},
		{
			"anonymous": false,
			"inputs": [
				{
					"indexed": false,
					"internalType": "address",
					"name": "sender",
					"type": "address"
				},
				{
					"indexed": false,
					"internalType": "uint256",
					"name": "mintLP",
					"type": "uint256"
				},
				{
					"indexed": false,
					"internalType": "uint256",
					"name": "baseInputAmount",
					"type": "uint256"
				},
				{
					"indexed": false,
					"internalType": "uint256",
					"name": "tokenInputAmount",
					"type": "uint256"
				},
				{
					"indexed": false,
					"internalType": "uint256",
					"name": "poolBaseBalance",
					"type": "uint256"
				},
				{
					"indexed": false,
					"internalType": "uint256",
					"name": "poolTokenBalance",
					"type": "uint256"
				}
			],
			"name": "onAddLP",
			"type": "event"
		},
		{
			"anonymous": false,
			"inputs": [
				{
					"indexed": false,
					"internalType": "address",
					"name": "sender",
					"type": "address"
				},
				{
					"indexed": false,
					"internalType": "uint256",
					"name": "amountLP",
					"type": "uint256"
				},
				{
					"indexed": false,
					"internalType": "uint256",
					"name": "baseOutputAmout",
					"type": "uint256"
				},
				{
					"indexed": false,
					"internalType": "uint256",
					"name": "tokenOutputAmount",
					"type": "uint256"
				},
				{
					"indexed": false,
					"internalType": "uint256",
					"name": "poolBaseBalance",
					"type": "uint256"
				},
				{
					"indexed": false,
					"internalType": "uint256",
					"name": "poolTokenBalance",
					"type": "uint256"
				}
			],
			"name": "onRemoveLP",
			"type": "event"
		},
		{
			"anonymous": false,
			"inputs": [
				{
					"indexed": false,
					"internalType": "address",
					"name": "sender",
					"type": "address"
				},
				{
					"indexed": false,
					"internalType": "uint256",
					"name": "minTokenOutput",
					"type": "uint256"
				},
				{
					"indexed": false,
					"internalType": "uint256",
					"name": "baseInputAmount",
					"type": "uint256"
				},
				{
					"indexed": false,
					"internalType": "uint256",
					"name": "tokenOutputAmount",
					"type": "uint256"
				},
				{
					"indexed": false,
					"internalType": "uint256",
					"name": "poolBaseBalance",
					"type": "uint256"
				},
				{
					"indexed": false,
					"internalType": "uint256",
					"name": "poolTokenBalance",
					"type": "uint256"
				}
			],
			"name": "onSwapBaseToTokenWithBaseInput",
			"type": "event"
		},
		{
			"anonymous": false,
			"inputs": [
				{
					"indexed": false,
					"internalType": "address",
					"name": "sender",
					"type": "address"
				},
				{
					"indexed": false,
					"internalType": "uint256",
					"name": "maxBaseInput",
					"type": "uint256"
				},
				{
					"indexed": false,
					"internalType": "uint256",
					"name": "baseInputAmount",
					"type": "uint256"
				},
				{
					"indexed": false,
					"internalType": "uint256",
					"name": "tokenOutputAmount",
					"type": "uint256"
				},
				{
					"indexed": false,
					"internalType": "uint256",
					"name": "poolBaseBalance",
					"type": "uint256"
				},
				{
					"indexed": false,
					"internalType": "uint256",
					"name": "poolTokenBalance",
					"type": "uint256"
				}
			],
			"name": "onSwapBaseToTokenWithTokenOutput",
			"type": "event"
		},
		{
			"anonymous": false,
			"inputs": [
				{
					"indexed": false,
					"internalType": "address",
					"name": "sender",
					"type": "address"
				},
				{
					"indexed": false,
					"internalType": "uint256",
					"name": "maxTokenInput",
					"type": "uint256"
				},
				{
					"indexed": false,
					"internalType": "uint256",
					"name": "tokenInputAmount",
					"type": "uint256"
				},
				{
					"indexed": false,
					"internalType": "uint256",
					"name": "baseOutputAmount",
					"type": "uint256"
				},
				{
					"indexed": false,
					"internalType": "uint256",
					"name": "poolBaseBalance",
					"type": "uint256"
				},
				{
					"indexed": false,
					"internalType": "uint256",
					"name": "poolTokenBalance",
					"type": "uint256"
				}
			],
			"name": "onSwapTokenToBaseWithBaseOutput",
			"type": "event"
		},
		{
			"anonymous": false,
			"inputs": [
				{
					"indexed": false,
					"internalType": "address",
					"name": "sender",
					"type": "address"
				},
				{
					"indexed": false,
					"internalType": "uint256",
					"name": "minBaseOutput",
					"type": "uint256"
				},
				{
					"indexed": false,
					"internalType": "uint256",
					"name": "tokenInputAmount",
					"type": "uint256"
				},
				{
					"indexed": false,
					"internalType": "uint256",
					"name": "baseOutputAmount",
					"type": "uint256"
				},
				{
					"indexed": false,
					"internalType": "uint256",
					"name": "poolBaseBalance",
					"type": "uint256"
				},
				{
					"indexed": false,
					"internalType": "uint256",
					"name": "poolTokenBalance",
					"type": "uint256"
				}
			],
			"name": "onSwapTokenToBaseWithTokenInput",
			"type": "event"
		},
		{
			"inputs": [],
			"name": "TRADE_FEE",
			"outputs": [
				{
					"internalType": "uint256",
					"name": "",
					"type": "uint256"
				}
			],
			"stateMutability": "view",
			"type": "function"
		},
		{
			"inputs": [
				{
					"internalType": "uint256",
					"name": "minLP",
					"type": "uint256"
				},
				{
					"internalType": "uint256",
					"name": "baseInputAmount",
					"type": "uint256"
				},
				{
					"internalType": "uint256",
					"name": "maxTokenInputAmount",
					"type": "uint256"
				},
				{
					"internalType": "uint256",
					"name": "deadline",
					"type": "uint256"
				}
			],
			"name": "addLP",
			"outputs": [
				{
					"internalType": "uint256",
					"name": "",
					"type": "uint256"
				}
			],
			"stateMutability": "nonpayable",
			"type": "function"
		},
		{
			"inputs": [
				{
					"internalType": "address",
					"name": "owner",
					"type": "address"
				},
				{
					"internalType": "address",
					"name": "spender",
					"type": "address"
				}
			],
			"name": "allowance",
			"outputs": [
				{
					"internalType": "uint256",
					"name": "",
					"type": "uint256"
				}
			],
			"stateMutability": "view",
			"type": "function"
		},
		{
			"inputs": [
				{
					"internalType": "address",
					"name": "spender",
					"type": "address"
				},
				{
					"internalType": "uint256",
					"name": "amount",
					"type": "uint256"
				}
			],
			"name": "approve",
			"outputs": [
				{
					"internalType": "bool",
					"name": "",
					"type": "bool"
				}
			],
			"stateMutability": "nonpayable",
			"type": "function"
		},
		{
			"inputs": [
				{
					"internalType": "address",
					"name": "account",
					"type": "address"
				}
			],
			"name": "balanceOf",
			"outputs": [
				{
					"internalType": "uint256",
					"name": "",
					"type": "uint256"
				}
			],
			"stateMutability": "view",
			"type": "function"
		},
		{
			"inputs": [],
			"name": "base",
			"outputs": [
				{
					"internalType": "contract IBEP20",
					"name": "",
					"type": "address"
				}
			],
			"stateMutability": "view",
			"type": "function"
		},
		{
			"inputs": [],
			"name": "decimals",
			"outputs": [
				{
					"internalType": "uint8",
					"name": "",
					"type": "uint8"
				}
			],
			"stateMutability": "view",
			"type": "function"
		},
		{
			"inputs": [
				{
					"internalType": "address",
					"name": "spender",
					"type": "address"
				},
				{
					"internalType": "uint256",
					"name": "subtractedValue",
					"type": "uint256"
				}
			],
			"name": "decreaseAllowance",
			"outputs": [
				{
					"internalType": "bool",
					"name": "",
					"type": "bool"
				}
			],
			"stateMutability": "nonpayable",
			"type": "function"
		},
		{
			"inputs": [],
			"name": "farmContract",
			"outputs": [
				{
					"internalType": "contract ITuringswapFarmVenus",
					"name": "",
					"type": "address"
				}
			],
			"stateMutability": "view",
			"type": "function"
		},
		{
			"inputs": [],
			"name": "feeMachineContract",
			"outputs": [
				{
					"internalType": "contract ITuringswapFeeMachine",
					"name": "",
					"type": "address"
				}
			],
			"stateMutability": "view",
			"type": "function"
		},
		{
			"inputs": [
				{
					"internalType": "uint256",
					"name": "tokenOutputAmount",
					"type": "uint256"
				},
				{
					"internalType": "uint256",
					"name": "baseReserve",
					"type": "uint256"
				},
				{
					"internalType": "uint256",
					"name": "tokenReserve",
					"type": "uint256"
				}
			],
			"name": "getBaseInputAmountFromTokenOutput",
			"outputs": [
				{
					"internalType": "uint256",
					"name": "",
					"type": "uint256"
				}
			],
			"stateMutability": "pure",
			"type": "function"
		},
		{
			"inputs": [
				{
					"internalType": "uint256",
					"name": "tokenInputAmount",
					"type": "uint256"
				}
			],
			"name": "getBaseOutput",
			"outputs": [
				{
					"internalType": "uint256",
					"name": "",
					"type": "uint256"
				}
			],
			"stateMutability": "view",
			"type": "function"
		},
		{
			"inputs": [
				{
					"internalType": "uint256",
					"name": "tokenInputAmount",
					"type": "uint256"
				},
				{
					"internalType": "uint256",
					"name": "baseReserve",
					"type": "uint256"
				},
				{
					"internalType": "uint256",
					"name": "tokenReserve",
					"type": "uint256"
				}
			],
			"name": "getBaseOutputAmountFromTokenInput",
			"outputs": [
				{
					"internalType": "uint256",
					"name": "",
					"type": "uint256"
				}
			],
			"stateMutability": "pure",
			"type": "function"
		},
		{
			"inputs": [
				{
					"internalType": "uint256",
					"name": "baseInputAmount",
					"type": "uint256"
				}
			],
			"name": "getDataFromBaseInputToAddLp",
			"outputs": [
				{
					"internalType": "uint256",
					"name": "",
					"type": "uint256"
				},
				{
					"internalType": "uint256",
					"name": "",
					"type": "uint256"
				}
			],
			"stateMutability": "view",
			"type": "function"
		},
		{
			"inputs": [
				{
					"internalType": "uint256",
					"name": "tokenInputAmount",
					"type": "uint256"
				}
			],
			"name": "getDataFromTokenInputToAddLp",
			"outputs": [
				{
					"internalType": "uint256",
					"name": "",
					"type": "uint256"
				},
				{
					"internalType": "uint256",
					"name": "",
					"type": "uint256"
				}
			],
			"stateMutability": "view",
			"type": "function"
		},
		{
			"inputs": [
				{
					"internalType": "uint256",
					"name": "amountLP",
					"type": "uint256"
				}
			],
			"name": "getDataToRemoveLP",
			"outputs": [
				{
					"internalType": "uint256",
					"name": "",
					"type": "uint256"
				},
				{
					"internalType": "uint256",
					"name": "",
					"type": "uint256"
				}
			],
			"stateMutability": "view",
			"type": "function"
		},
		{
			"inputs": [],
			"name": "getK",
			"outputs": [
				{
					"internalType": "uint256",
					"name": "",
					"type": "uint256"
				}
			],
			"stateMutability": "view",
			"type": "function"
		},
		{
			"inputs": [],
			"name": "getOwner",
			"outputs": [
				{
					"internalType": "address",
					"name": "",
					"type": "address"
				}
			],
			"stateMutability": "view",
			"type": "function"
		},
		{
			"inputs": [
				{
					"internalType": "uint256",
					"name": "baseOutputAmount",
					"type": "uint256"
				},
				{
					"internalType": "uint256",
					"name": "baseReserve",
					"type": "uint256"
				},
				{
					"internalType": "uint256",
					"name": "tokenReserve",
					"type": "uint256"
				}
			],
			"name": "getTokenInputAmountFromBaseOutput",
			"outputs": [
				{
					"internalType": "uint256",
					"name": "",
					"type": "uint256"
				}
			],
			"stateMutability": "pure",
			"type": "function"
		},
		{
			"inputs": [
				{
					"internalType": "uint256",
					"name": "baseInputAmount",
					"type": "uint256"
				}
			],
			"name": "getTokenOutput",
			"outputs": [
				{
					"internalType": "uint256",
					"name": "",
					"type": "uint256"
				}
			],
			"stateMutability": "view",
			"type": "function"
		},
		{
			"inputs": [
				{
					"internalType": "uint256",
					"name": "baseInputAmount",
					"type": "uint256"
				},
				{
					"internalType": "uint256",
					"name": "baseReserve",
					"type": "uint256"
				},
				{
					"internalType": "uint256",
					"name": "tokenReserve",
					"type": "uint256"
				}
			],
			"name": "getTokenOutputAmountFromBaseInput",
			"outputs": [
				{
					"internalType": "uint256",
					"name": "",
					"type": "uint256"
				}
			],
			"stateMutability": "pure",
			"type": "function"
		},
		{
			"inputs": [],
			"name": "getTotalReserve",
			"outputs": [
				{
					"internalType": "uint256",
					"name": "",
					"type": "uint256"
				},
				{
					"internalType": "uint256",
					"name": "",
					"type": "uint256"
				}
			],
			"stateMutability": "view",
			"type": "function"
		},
		{
			"inputs": [
				{
					"internalType": "address",
					"name": "spender",
					"type": "address"
				},
				{
					"internalType": "uint256",
					"name": "addedValue",
					"type": "uint256"
				}
			],
			"name": "increaseAllowance",
			"outputs": [
				{
					"internalType": "bool",
					"name": "",
					"type": "bool"
				}
			],
			"stateMutability": "nonpayable",
			"type": "function"
		},
		{
			"inputs": [
				{
					"internalType": "string",
					"name": "name",
					"type": "string"
				},
				{
					"internalType": "string",
					"name": "symbol",
					"type": "string"
				},
				{
					"internalType": "uint8",
					"name": "decimal",
					"type": "uint8"
				},
				{
					"internalType": "uint256",
					"name": "totalSupply",
					"type": "uint256"
				}
			],
			"name": "initToken",
			"outputs": [],
			"stateMutability": "nonpayable",
			"type": "function"
		},
		{
			"inputs": [],
			"name": "initialized",
			"outputs": [
				{
					"internalType": "bool",
					"name": "",
					"type": "bool"
				}
			],
			"stateMutability": "view",
			"type": "function"
		},
		{
			"inputs": [],
			"name": "name",
			"outputs": [
				{
					"internalType": "string",
					"name": "",
					"type": "string"
				}
			],
			"stateMutability": "view",
			"type": "function"
		},
		{
			"inputs": [],
			"name": "owner",
			"outputs": [
				{
					"internalType": "address",
					"name": "",
					"type": "address"
				}
			],
			"stateMutability": "view",
			"type": "function"
		},
		{
			"inputs": [],
			"name": "rebalanceToFarmContract",
			"outputs": [],
			"stateMutability": "nonpayable",
			"type": "function"
		},
		{
			"inputs": [
				{
					"internalType": "uint256",
					"name": "amountLP",
					"type": "uint256"
				},
				{
					"internalType": "uint256",
					"name": "minBaseOutput",
					"type": "uint256"
				},
				{
					"internalType": "uint256",
					"name": "minTokenOutput",
					"type": "uint256"
				},
				{
					"internalType": "uint256",
					"name": "deadline",
					"type": "uint256"
				}
			],
			"name": "removeLP",
			"outputs": [
				{
					"internalType": "uint256",
					"name": "",
					"type": "uint256"
				},
				{
					"internalType": "uint256",
					"name": "",
					"type": "uint256"
				}
			],
			"stateMutability": "nonpayable",
			"type": "function"
		},
		{
			"inputs": [],
			"name": "renounceOwnership",
			"outputs": [],
			"stateMutability": "nonpayable",
			"type": "function"
		},
		{
			"inputs": [],
			"name": "setFarmContract",
			"outputs": [],
			"stateMutability": "nonpayable",
			"type": "function"
		},
		{
			"inputs": [],
			"name": "setFeeMachineContract",
			"outputs": [],
			"stateMutability": "nonpayable",
			"type": "function"
		},
		{
			"inputs": [],
			"name": "setTradeFee",
			"outputs": [],
			"stateMutability": "nonpayable",
			"type": "function"
		},
		{
			"inputs": [
				{
					"internalType": "uint256",
					"name": "baseInputAmount",
					"type": "uint256"
				},
				{
					"internalType": "uint256",
					"name": "minTokenOutput",
					"type": "uint256"
				},
				{
					"internalType": "uint256",
					"name": "deadline",
					"type": "uint256"
				}
			],
			"name": "swapBaseToTokenWithBaseInput",
			"outputs": [],
			"stateMutability": "nonpayable",
			"type": "function"
		},
		{
			"inputs": [
				{
					"internalType": "uint256",
					"name": "maxBaseInput",
					"type": "uint256"
				},
				{
					"internalType": "uint256",
					"name": "tokenOutputAmount",
					"type": "uint256"
				},
				{
					"internalType": "uint256",
					"name": "deadline",
					"type": "uint256"
				}
			],
			"name": "swapBaseToTokenWithTokenOutput",
			"outputs": [],
			"stateMutability": "nonpayable",
			"type": "function"
		},
		{
			"inputs": [
				{
					"internalType": "uint256",
					"name": "maxTokenInput",
					"type": "uint256"
				},
				{
					"internalType": "uint256",
					"name": "baseOutputAmount",
					"type": "uint256"
				},
				{
					"internalType": "uint256",
					"name": "deadline",
					"type": "uint256"
				}
			],
			"name": "swapTokenToBaseWithBaseOutput",
			"outputs": [],
			"stateMutability": "nonpayable",
			"type": "function"
		},
		{
			"inputs": [
				{
					"internalType": "uint256",
					"name": "tokenInputAmount",
					"type": "uint256"
				},
				{
					"internalType": "uint256",
					"name": "minBaseOutput",
					"type": "uint256"
				},
				{
					"internalType": "uint256",
					"name": "deadline",
					"type": "uint256"
				}
			],
			"name": "swapTokenToBaseWithTokenInput",
			"outputs": [],
			"stateMutability": "nonpayable",
			"type": "function"
		},
		{
			"inputs": [],
			"name": "symbol",
			"outputs": [
				{
					"internalType": "string",
					"name": "",
					"type": "string"
				}
			],
			"stateMutability": "view",
			"type": "function"
		},
		{
			"inputs": [],
			"name": "token",
			"outputs": [
				{
					"internalType": "contract IBEP20",
					"name": "",
					"type": "address"
				}
			],
			"stateMutability": "view",
			"type": "function"
		},
		{
			"inputs": [],
			"name": "totalSupply",
			"outputs": [
				{
					"internalType": "uint256",
					"name": "",
					"type": "uint256"
				}
			],
			"stateMutability": "view",
			"type": "function"
		},
		{
			"inputs": [
				{
					"internalType": "address",
					"name": "recipient",
					"type": "address"
				},
				{
					"internalType": "uint256",
					"name": "amount",
					"type": "uint256"
				}
			],
			"name": "transfer",
			"outputs": [
				{
					"internalType": "bool",
					"name": "",
					"type": "bool"
				}
			],
			"stateMutability": "nonpayable",
			"type": "function"
		},
		{
			"inputs": [
				{
					"internalType": "address",
					"name": "sender",
					"type": "address"
				},
				{
					"internalType": "address",
					"name": "recipient",
					"type": "address"
				},
				{
					"internalType": "uint256",
					"name": "amount",
					"type": "uint256"
				}
			],
			"name": "transferFrom",
			"outputs": [
				{
					"internalType": "bool",
					"name": "",
					"type": "bool"
				}
			],
			"stateMutability": "nonpayable",
			"type": "function"
		},
		{
			"inputs": [
				{
					"internalType": "address",
					"name": "newOwner",
					"type": "address"
				}
			],
			"name": "transferOwnership",
			"outputs": [],
			"stateMutability": "nonpayable",
			"type": "function"
		},
		{
			"inputs": [],
			"name": "turingTimeLockContract",
			"outputs": [
				{
					"internalType": "contract ITuringTimeLock",
					"name": "",
					"type": "address"
				}
			],
			"stateMutability": "view",
			"type": "function"
		},
		{
			"inputs": [],
			"name": "whitelistContract",
			"outputs": [
				{
					"internalType": "contract ITuringswapWhitelist",
					"name": "",
					"type": "address"
				}
			],
			"stateMutability": "view",
			"type": "function"
		}
	]
}